{"contracts/TokenTreat.sol":{"TokenTreat":{"abi":[{"inputs":[],"stateMutability":"nonpayable","type":"constructor"},{"inputs":[],"name":"AccessControlBadConfirmation","type":"error"},{"inputs":[{"internalType":"address","name":"account","type":"address"},{"internalType":"bytes32","name":"neededRole","type":"bytes32"}],"name":"AccessControlUnauthorizedAccount","type":"error"},{"inputs":[{"internalType":"address","name":"target","type":"address"}],"name":"AddressEmptyCode","type":"error"},{"inputs":[{"internalType":"address","name":"implementation","type":"address"}],"name":"ERC1967InvalidImplementation","type":"error"},{"inputs":[],"name":"ERC1967NonPayable","type":"error"},{"inputs":[],"name":"ERC721EnumerableForbiddenBatchMint","type":"error"},{"inputs":[{"internalType":"address","name":"sender","type":"address"},{"internalType":"uint256","name":"tokenId","type":"uint256"},{"internalType":"address","name":"owner","type":"address"}],"name":"ERC721IncorrectOwner","type":"error"},{"inputs":[{"internalType":"address","name":"operator","type":"address"},{"internalType":"uint256","name":"tokenId","type":"uint256"}],"name":"ERC721InsufficientApproval","type":"error"},{"inputs":[{"internalType":"address","name":"approver","type":"address"}],"name":"ERC721InvalidApprover","type":"error"},{"inputs":[{"internalType":"address","name":"operator","type":"address"}],"name":"ERC721InvalidOperator","type":"error"},{"inputs":[{"internalType":"address","name":"owner","type":"address"}],"name":"ERC721InvalidOwner","type":"error"},{"inputs":[{"internalType":"address","name":"receiver","type":"address"}],"name":"ERC721InvalidReceiver","type":"error"},{"inputs":[{"internalType":"address","name":"sender","type":"address"}],"name":"ERC721InvalidSender","type":"error"},{"inputs":[{"internalType":"uint256","name":"tokenId","type":"uint256"}],"name":"ERC721NonexistentToken","type":"error"},{"inputs":[{"internalType":"address","name":"owner","type":"address"},{"internalType":"uint256","name":"index","type":"uint256"}],"name":"ERC721OutOfBoundsIndex","type":"error"},{"inputs":[],"name":"EnforcedPause","type":"error"},{"inputs":[],"name":"ExpectedPause","type":"error"},{"inputs":[],"name":"FailedInnerCall","type":"error"},{"inputs":[],"name":"InvalidInitialization","type":"error"},{"inputs":[],"name":"NotInitializing","type":"error"},{"inputs":[],"name":"UUPSUnauthorizedCallContext","type":"error"},{"inputs":[{"internalType":"bytes32","name":"slot","type":"bytes32"}],"name":"UUPSUnsupportedProxiableUUID","type":"error"},{"anonymous":false,"inputs":[{"indexed":true,"internalType":"address","name":"owner","type":"address"},{"indexed":true,"internalType":"address","name":"approved","type":"address"},{"indexed":true,"internalType":"uint256","name":"tokenId","type":"uint256"}],"name":"Approval","type":"event"},{"anonymous":false,"inputs":[{"indexed":true,"internalType":"address","name":"owner","type":"address"},{"indexed":true,"internalType":"address","name":"operator","type":"address"},{"indexed":false,"internalType":"bool","name":"approved","type":"bool"}],"name":"ApprovalForAll","type":"event"},{"anonymous":false,"inputs":[{"indexed":false,"internalType":"uint256","name":"_fromTokenId","type":"uint256"},{"indexed":false,"internalType":"uint256","name":"_toTokenId","type":"uint256"}],"name":"BatchMetadataUpdate","type":"event"},{"anonymous":false,"inputs":[{"indexed":false,"internalType":"uint64","name":"version","type":"uint64"}],"name":"Initialized","type":"event"},{"anonymous":false,"inputs":[{"indexed":false,"internalType":"uint256","name":"_tokenId","type":"uint256"}],"name":"MetadataUpdate","type":"event"},{"anonymous":false,"inputs":[{"indexed":false,"internalType":"address","name":"account","type":"address"}],"name":"Paused","type":"event"},{"anonymous":false,"inputs":[{"indexed":true,"internalType":"bytes32","name":"role","type":"bytes32"},{"indexed":true,"internalType":"bytes32","name":"previousAdminRole","type":"bytes32"},{"indexed":true,"internalType":"bytes32","name":"newAdminRole","type":"bytes32"}],"name":"RoleAdminChanged","type":"event"},{"anonymous":false,"inputs":[{"indexed":true,"internalType":"bytes32","name":"role","type":"bytes32"},{"indexed":true,"internalType":"address","name":"account","type":"address"},{"indexed":true,"internalType":"address","name":"sender","type":"address"}],"name":"RoleGranted","type":"event"},{"anonymous":false,"inputs":[{"indexed":true,"internalType":"bytes32","name":"role","type":"bytes32"},{"indexed":true,"internalType":"address","name":"account","type":"address"},{"indexed":true,"internalType":"address","name":"sender","type":"address"}],"name":"RoleRevoked","type":"event"},{"anonymous":false,"inputs":[{"indexed":true,"internalType":"address","name":"from","type":"address"},{"indexed":true,"internalType":"address","name":"to","type":"address"},{"indexed":true,"internalType":"uint256","name":"tokenId","type":"uint256"}],"name":"Transfer","type":"event"},{"anonymous":false,"inputs":[{"indexed":true,"internalType":"address","name":"claimAddress","type":"address"},{"indexed":false,"internalType":"uint256","name":"tokenId","type":"uint256"},{"indexed":false,"internalType":"uint256","name":"treatAmount","type":"uint256"},{"indexed":false,"internalType":"address","name":"treatTokenAddress","type":"address"},{"indexed":false,"internalType":"string","name":"treatMetadata","type":"string"}],"name":"TreatClaimed","type":"event"},{"anonymous":false,"inputs":[{"indexed":true,"internalType":"address","name":"destroyer","type":"address"},{"indexed":true,"internalType":"uint256","name":"tokenId","type":"uint256"},{"indexed":false,"internalType":"uint256","name":"treatAmount","type":"uint256"},{"indexed":false,"internalType":"address","name":"treatTokenAddress","type":"address"},{"indexed":false,"internalType":"uint256","name":"destroyReward","type":"uint256"}],"name":"TreatDestroyed","type":"event"},{"anonymous":false,"inputs":[{"indexed":true,"internalType":"address","name":"from","type":"address"},{"indexed":true,"internalType":"address","name":"to","type":"address"},{"indexed":false,"internalType":"uint256","name":"tokenId","type":"uint256"},{"indexed":true,"internalType":"uint256","name":"expiry","type":"uint256"},{"indexed":false,"internalType":"uint256","name":"treatAmount","type":"uint256"},{"indexed":false,"internalType":"address","name":"treatTokenAddress","type":"address"},{"indexed":false,"internalType":"string","name":"treatMetadata","type":"string"}],"name":"TreatMinted","type":"event"},{"anonymous":false,"inputs":[{"indexed":false,"internalType":"address","name":"account","type":"address"}],"name":"Unpaused","type":"event"},{"anonymous":false,"inputs":[{"indexed":true,"internalType":"address","name":"implementation","type":"address"}],"name":"Upgraded","type":"event"},{"inputs":[],"name":"ADMIN_ROLE","outputs":[{"internalType":"bytes32","name":"","type":"bytes32"}],"stateMutability":"view","type":"function"},{"inputs":[],"name":"DEFAULT_ADMIN_ROLE","outputs":[{"internalType":"bytes32","name":"","type":"bytes32"}],"stateMutability":"view","type":"function"},{"inputs":[],"name":"MINTER_ROLE","outputs":[{"internalType":"bytes32","name":"","type":"bytes32"}],"stateMutability":"view","type":"function"},{"inputs":[],"name":"PAUSER_ROLE","outputs":[{"internalType":"bytes32","name":"","type":"bytes32"}],"stateMutability":"view","type":"function"},{"inputs":[],"name":"UPGRADER_ROLE","outputs":[{"internalType":"bytes32","name":"","type":"bytes32"}],"stateMutability":"view","type":"function"},{"inputs":[],"name":"UPGRADE_INTERFACE_VERSION","outputs":[{"internalType":"string","name":"","type":"string"}],"stateMutability":"view","type":"function"},{"inputs":[],"name":"_nextTokenId","outputs":[{"internalType":"uint256","name":"","type":"uint256"}],"stateMutability":"view","type":"function"},{"inputs":[{"internalType":"address","name":"to","type":"address"},{"internalType":"uint256","name":"tokenId","type":"uint256"}],"name":"approve","outputs":[],"stateMutability":"nonpayable","type":"function"},{"inputs":[{"internalType":"address","name":"owner","type":"address"}],"name":"balanceOf","outputs":[{"internalType":"uint256","name":"","type":"uint256"}],"stateMutability":"view","type":"function"},{"inputs":[{"internalType":"uint256","name":"tokenId","type":"uint256"}],"name":"burn","outputs":[],"stateMutability":"nonpayable","type":"function"},{"inputs":[],"name":"burnRewardFee","outputs":[{"internalType":"uint256","name":"","type":"uint256"}],"stateMutability":"view","type":"function"},{"inputs":[{"internalType":"uint256","name":"tokenId","type":"uint256"}],"name":"burnTreat","outputs":[],"stateMutability":"nonpayable","type":"function"},{"inputs":[{"internalType":"uint256","name":"amount","type":"uint256"}],"name":"calculateBurnRewardFee","outputs":[{"internalType":"uint256","name":"","type":"uint256"}],"stateMutability":"view","type":"function"},{"inputs":[{"internalType":"uint256","name":"amount","type":"uint256"}],"name":"calculatePlatformFee","outputs":[{"internalType":"uint256","name":"","type":"uint256"}],"stateMutability":"view","type":"function"},{"inputs":[{"internalType":"uint256","name":"tokenId","type":"uint256"}],"name":"claimTreat","outputs":[],"stateMutability":"nonpayable","type":"function"},{"inputs":[{"internalType":"uint256","name":"tokenId","type":"uint256"},{"internalType":"address","name":"claimAddress","type":"address"}],"name":"claimTreatAtAddress","outputs":[],"stateMutability":"nonpayable","type":"function"},{"inputs":[{"internalType":"uint256","name":"tokenId","type":"uint256"}],"name":"getApproved","outputs":[{"internalType":"address","name":"","type":"address"}],"stateMutability":"view","type":"function"},{"inputs":[{"internalType":"bytes32","name":"role","type":"bytes32"}],"name":"getRoleAdmin","outputs":[{"internalType":"bytes32","name":"","type":"bytes32"}],"stateMutability":"view","type":"function"},{"inputs":[{"internalType":"bytes32","name":"role","type":"bytes32"},{"internalType":"address","name":"account","type":"address"}],"name":"grantRole","outputs":[],"stateMutability":"nonpayable","type":"function"},{"inputs":[{"internalType":"bytes32","name":"role","type":"bytes32"},{"internalType":"address","name":"account","type":"address"}],"name":"hasRole","outputs":[{"internalType":"bool","name":"","type":"bool"}],"stateMutability":"view","type":"function"},{"inputs":[{"internalType":"address","name":"_owner","type":"address"},{"internalType":"address","name":"minter","type":"address"}],"name":"initialize","outputs":[],"stateMutability":"nonpayable","type":"function"},{"inputs":[{"internalType":"address","name":"owner","type":"address"},{"internalType":"address","name":"operator","type":"address"}],"name":"isApprovedForAll","outputs":[{"internalType":"bool","name":"","type":"bool"}],"stateMutability":"view","type":"function"},{"inputs":[{"internalType":"address","name":"to","type":"address"},{"internalType":"string","name":"uri","type":"string"},{"internalType":"uint256","name":"expiry","type":"uint256"},{"internalType":"uint256","name":"treatAmount","type":"uint256"},{"internalType":"address","name":"treatTokenAddress","type":"address"},{"internalType":"address","name":"refundTreasury","type":"address"},{"internalType":"bool","name":"burnOnClaim","type":"bool"},{"internalType":"bool","name":"transferable","type":"bool"},{"internalType":"string","name":"treatMetadata","type":"string"}],"name":"mintTreat","outputs":[],"stateMutability":"payable","type":"function"},{"inputs":[],"name":"name","outputs":[{"internalType":"string","name":"","type":"string"}],"stateMutability":"view","type":"function"},{"inputs":[{"internalType":"uint256","name":"tokenId","type":"uint256"}],"name":"ownerOf","outputs":[{"internalType":"address","name":"","type":"address"}],"stateMutability":"view","type":"function"},{"inputs":[],"name":"pause","outputs":[],"stateMutability":"nonpayable","type":"function"},{"inputs":[],"name":"paused","outputs":[{"internalType":"bool","name":"","type":"bool"}],"stateMutability":"view","type":"function"},{"inputs":[],"name":"platformFee","outputs":[{"internalType":"uint256","name":"","type":"uint256"}],"stateMutability":"view","type":"function"},{"inputs":[],"name":"proxiableUUID","outputs":[{"internalType":"bytes32","name":"","type":"bytes32"}],"stateMutability":"view","type":"function"},{"inputs":[{"internalType":"bytes32","name":"role","type":"bytes32"},{"internalType":"address","name":"callerConfirmation","type":"address"}],"name":"renounceRole","outputs":[],"stateMutability":"nonpayable","type":"function"},{"inputs":[{"internalType":"bytes32","name":"role","type":"bytes32"},{"internalType":"address","name":"account","type":"address"}],"name":"revokeRole","outputs":[],"stateMutability":"nonpayable","type":"function"},{"inputs":[{"internalType":"address","name":"from","type":"address"},{"internalType":"address","name":"to","type":"address"},{"internalType":"uint256","name":"tokenId","type":"uint256"}],"name":"safeTransferFrom","outputs":[],"stateMutability":"nonpayable","type":"function"},{"inputs":[{"internalType":"address","name":"from","type":"address"},{"internalType":"address","name":"to","type":"address"},{"internalType":"uint256","name":"tokenId","type":"uint256"},{"internalType":"bytes","name":"data","type":"bytes"}],"name":"safeTransferFrom","outputs":[],"stateMutability":"nonpayable","type":"function"},{"inputs":[{"internalType":"address","name":"operator","type":"address"},{"internalType":"bool","name":"approved","type":"bool"}],"name":"setApprovalForAll","outputs":[],"stateMutability":"nonpayable","type":"function"},{"inputs":[{"internalType":"uint256","name":"fee","type":"uint256"}],"name":"setPlatformFee","outputs":[],"stateMutability":"nonpayable","type":"function"},{"inputs":[{"internalType":"uint256","name":"fee","type":"uint256"}],"name":"setRewardFee","outputs":[],"stateMutability":"nonpayable","type":"function"},{"inputs":[{"internalType":"bytes4","name":"interfaceId","type":"bytes4"}],"name":"supportsInterface","outputs":[{"internalType":"bool","name":"","type":"bool"}],"stateMutability":"view","type":"function"},{"inputs":[],"name":"symbol","outputs":[{"internalType":"string","name":"","type":"string"}],"stateMutability":"view","type":"function"},{"inputs":[{"internalType":"uint256","name":"index","type":"uint256"}],"name":"tokenByIndex","outputs":[{"internalType":"uint256","name":"","type":"uint256"}],"stateMutability":"view","type":"function"},{"inputs":[{"internalType":"address","name":"owner","type":"address"},{"internalType":"uint256","name":"index","type":"uint256"}],"name":"tokenOfOwnerByIndex","outputs":[{"internalType":"uint256","name":"","type":"uint256"}],"stateMutability":"view","type":"function"},{"inputs":[{"internalType":"uint256","name":"tokenId","type":"uint256"}],"name":"tokenURI","outputs":[{"internalType":"string","name":"","type":"string"}],"stateMutability":"view","type":"function"},{"inputs":[],"name":"totalBurnRewardFeeDistributed","outputs":[{"internalType":"uint256","name":"","type":"uint256"}],"stateMutability":"view","type":"function"},{"inputs":[],"name":"totalBurntTreats","outputs":[{"internalType":"uint256","name":"","type":"uint256"}],"stateMutability":"view","type":"function"},{"inputs":[],"name":"totalClaimedTreats","outputs":[{"internalType":"uint256","name":"","type":"uint256"}],"stateMutability":"view","type":"function"},{"inputs":[],"name":"totalPlatformFeeCollected","outputs":[{"internalType":"uint256","name":"","type":"uint256"}],"stateMutability":"view","type":"function"},{"inputs":[],"name":"totalSupply","outputs":[{"internalType":"uint256","name":"","type":"uint256"}],"stateMutability":"view","type":"function"},{"inputs":[{"internalType":"address","name":"from","type":"address"},{"internalType":"address","name":"to","type":"address"},{"internalType":"uint256","name":"tokenId","type":"uint256"}],"name":"transferFrom","outputs":[],"stateMutability":"nonpayable","type":"function"},{"inputs":[{"internalType":"uint256","name":"","type":"uint256"}],"name":"treatInfo","outputs":[{"internalType":"uint256","name":"expiry","type":"uint256"},{"internalType":"uint256","name":"amount","type":"uint256"},{"internalType":"address","name":"tokenAddress","type":"address"},{"internalType":"enum TokenTreat.TreatStatus","name":"status","type":"uint8"},{"internalType":"address","name":"refundTreasury","type":"address"},{"internalType":"string","name":"treatMetadata","type":"string"},{"internalType":"bool","name":"burnOnClaim","type":"bool"},{"internalType":"bool","name":"transferable","type":"bool"}],"stateMutability":"view","type":"function"},{"inputs":[],"name":"unpause","outputs":[],"stateMutability":"nonpayable","type":"function"},{"inputs":[{"internalType":"address","name":"newImplementation","type":"address"},{"internalType":"bytes","name":"data","type":"bytes"}],"name":"upgradeToAndCall","outputs":[],"stateMutability":"payable","type":"function"}],"devdoc":{"errors":{"AccessControlBadConfirmation()":[{"details":"The caller of a function is not the expected one. NOTE: Don't confuse with {AccessControlUnauthorizedAccount}."}],"AccessControlUnauthorizedAccount(address,bytes32)":[{"details":"The `account` is missing a role."}],"AddressEmptyCode(address)":[{"details":"There's no code at `target` (it is not a contract)."}],"ERC1967InvalidImplementation(address)":[{"details":"The `implementation` of the proxy is invalid."}],"ERC1967NonPayable()":[{"details":"An upgrade function sees `msg.value > 0` that may be lost."}],"ERC721EnumerableForbiddenBatchMint()":[{"details":"Batch mint is not allowed."}],"ERC721IncorrectOwner(address,uint256,address)":[{"details":"Indicates an error related to the ownership over a particular token. Used in transfers.","params":{"owner":"Address of the current owner of a token.","sender":"Address whose tokens are being transferred.","tokenId":"Identifier number of a token."}}],"ERC721InsufficientApproval(address,uint256)":[{"details":"Indicates a failure with the `operator`s approval. Used in transfers.","params":{"operator":"Address that may be allowed to operate on tokens without being their owner.","tokenId":"Identifier number of a token."}}],"ERC721InvalidApprover(address)":[{"details":"Indicates a failure with the `approver` of a token to be approved. Used in approvals.","params":{"approver":"Address initiating an approval operation."}}],"ERC721InvalidOperator(address)":[{"details":"Indicates a failure with the `operator` to be approved. Used in approvals.","params":{"operator":"Address that may be allowed to operate on tokens without being their owner."}}],"ERC721InvalidOwner(address)":[{"details":"Indicates that an address can't be an owner. For example, `address(0)` is a forbidden owner in EIP-20. Used in balance queries.","params":{"owner":"Address of the current owner of a token."}}],"ERC721InvalidReceiver(address)":[{"details":"Indicates a failure with the token `receiver`. Used in transfers.","params":{"receiver":"Address to which tokens are being transferred."}}],"ERC721InvalidSender(address)":[{"details":"Indicates a failure with the token `sender`. Used in transfers.","params":{"sender":"Address whose tokens are being transferred."}}],"ERC721NonexistentToken(uint256)":[{"details":"Indicates a `tokenId` whose `owner` is the zero address.","params":{"tokenId":"Identifier number of a token."}}],"ERC721OutOfBoundsIndex(address,uint256)":[{"details":"An `owner`'s token query was out of bounds for `index`. NOTE: The owner being `address(0)` indicates a global out of bounds index."}],"EnforcedPause()":[{"details":"The operation failed because the contract is paused."}],"ExpectedPause()":[{"details":"The operation failed because the contract is not paused."}],"FailedInnerCall()":[{"details":"A call to an address target failed. The target may have reverted."}],"InvalidInitialization()":[{"details":"The contract is already initialized."}],"NotInitializing()":[{"details":"The contract is not initializing."}],"UUPSUnauthorizedCallContext()":[{"details":"The call is from an unauthorized context."}],"UUPSUnsupportedProxiableUUID(bytes32)":[{"details":"The storage `slot` is unsupported as a UUID."}]},"events":{"Approval(address,address,uint256)":{"details":"Emitted when `owner` enables `approved` to manage the `tokenId` token."},"ApprovalForAll(address,address,bool)":{"details":"Emitted when `owner` enables or disables (`approved`) `operator` to manage all of its assets."},"BatchMetadataUpdate(uint256,uint256)":{"details":"This event emits when the metadata of a range of tokens is changed. So that the third-party platforms such as NFT market could timely update the images and related attributes of the NFTs."},"Initialized(uint64)":{"details":"Triggered when the contract has been initialized or reinitialized."},"MetadataUpdate(uint256)":{"details":"This event emits when the metadata of a token is changed. So that the third-party platforms such as NFT market could timely update the images and related attributes of the NFT."},"Paused(address)":{"details":"Emitted when the pause is triggered by `account`."},"RoleAdminChanged(bytes32,bytes32,bytes32)":{"details":"Emitted when `newAdminRole` is set as ``role``'s admin role, replacing `previousAdminRole` `DEFAULT_ADMIN_ROLE` is the starting admin for all roles, despite {RoleAdminChanged} not being emitted signaling this."},"RoleGranted(bytes32,address,address)":{"details":"Emitted when `account` is granted `role`. `sender` is the account that originated the contract call, an admin role bearer except when using {AccessControl-_setupRole}."},"RoleRevoked(bytes32,address,address)":{"details":"Emitted when `account` is revoked `role`. `sender` is the account that originated the contract call:   - if using `revokeRole`, it is the admin role bearer   - if using `renounceRole`, it is the role bearer (i.e. `account`)"},"Transfer(address,address,uint256)":{"details":"Emitted when `tokenId` token is transferred from `from` to `to`."},"Unpaused(address)":{"details":"Emitted when the pause is lifted by `account`."},"Upgraded(address)":{"details":"Emitted when the implementation is upgraded."}},"kind":"dev","methods":{"approve(address,uint256)":{"details":"See {IERC721-approve}."},"balanceOf(address)":{"details":"See {IERC721-balanceOf}."},"burn(uint256)":{"details":"Burns `tokenId`. See {ERC721-_burn}. Requirements: - The caller must own `tokenId` or be an approved operator."},"constructor":{"custom:oz-upgrades-unsafe-allow":"constructor"},"getApproved(uint256)":{"details":"See {IERC721-getApproved}."},"getRoleAdmin(bytes32)":{"details":"Returns the admin role that controls `role`. See {grantRole} and {revokeRole}. To change a role's admin, use {_setRoleAdmin}."},"grantRole(bytes32,address)":{"details":"Grants `role` to `account`. If `account` had not been already granted `role`, emits a {RoleGranted} event. Requirements: - the caller must have ``role``'s admin role. May emit a {RoleGranted} event."},"hasRole(bytes32,address)":{"details":"Returns `true` if `account` has been granted `role`."},"isApprovedForAll(address,address)":{"details":"See {IERC721-isApprovedForAll}."},"name()":{"details":"See {IERC721Metadata-name}."},"ownerOf(uint256)":{"details":"See {IERC721-ownerOf}."},"paused()":{"details":"Returns true if the contract is paused, and false otherwise."},"proxiableUUID()":{"details":"Implementation of the ERC1822 {proxiableUUID} function. This returns the storage slot used by the implementation. It is used to validate the implementation's compatibility when performing an upgrade. IMPORTANT: A proxy pointing at a proxiable contract should not be considered proxiable itself, because this risks bricking a proxy that upgrades to it, by delegating to itself until out of gas. Thus it is critical that this function revert if invoked through a proxy. This is guaranteed by the `notDelegated` modifier."},"renounceRole(bytes32,address)":{"details":"Revokes `role` from the calling account. Roles are often managed via {grantRole} and {revokeRole}: this function's purpose is to provide a mechanism for accounts to lose their privileges if they are compromised (such as when a trusted device is misplaced). If the calling account had been revoked `role`, emits a {RoleRevoked} event. Requirements: - the caller must be `callerConfirmation`. May emit a {RoleRevoked} event."},"revokeRole(bytes32,address)":{"details":"Revokes `role` from `account`. If `account` had been granted `role`, emits a {RoleRevoked} event. Requirements: - the caller must have ``role``'s admin role. May emit a {RoleRevoked} event."},"safeTransferFrom(address,address,uint256)":{"details":"See {IERC721-safeTransferFrom}."},"safeTransferFrom(address,address,uint256,bytes)":{"details":"See {IERC721-safeTransferFrom}."},"setApprovalForAll(address,bool)":{"details":"See {IERC721-setApprovalForAll}."},"symbol()":{"details":"See {IERC721Metadata-symbol}."},"tokenByIndex(uint256)":{"details":"See {IERC721Enumerable-tokenByIndex}."},"tokenOfOwnerByIndex(address,uint256)":{"details":"See {IERC721Enumerable-tokenOfOwnerByIndex}."},"totalSupply()":{"details":"See {IERC721Enumerable-totalSupply}."},"transferFrom(address,address,uint256)":{"details":"See {IERC721-transferFrom}."},"upgradeToAndCall(address,bytes)":{"custom:oz-upgrades-unsafe-allow-reachable":"delegatecall","details":"Upgrade the implementation of the proxy to `newImplementation`, and subsequently execute the function call encoded in `data`. Calls {_authorizeUpgrade}. Emits an {Upgraded} event."}},"version":1},"evm":{"bytecode":{"linkReferences":{},"object":"60a08060405234620000d157306080527ff0c57e16840df040f15088dc2f81fe391c3923bec73e23a9662efc9c229c6a009081549060ff8260401c16620000c257506001600160401b036002600160401b0319828216016200007c575b604051613d859081620000d7823960805181818161162b01526117370152f35b6001600160401b031990911681179091556040519081527fc7f505b2f371ae2175ee4913f4499e1f2633a7b5936321eed1cdaeb6115181d290602090a13880806200005c565b63f92ee8a960e01b8152600490fd5b600080fdfe608080604052600436101561001357600080fd5b60003560e01c90816301ffc9a714612a535750806306fdde03146129b0578063081812fc14612965578063095ea7b31461287e5780630cbab4f71461285a57806311c9c32e146125fe57806312e8e2c3146125dd57806318160ddd146125b257806323b872dd1461259b578063248a9ca31461255f57806326232a2e146125415780632f2ff15d146124f55780632f745c591461246457806336568abe1461241d5780633f4ba83a146123a6578063400cf3c41461226d57806341a2ac701461224c57806342842e0e1461221e57806342966c6814611e98578063485cc9551461197d5780634a60f6201461195f5780634f1ef286146116f85780634f6ccce71461169557806352d1902d1461161857806359b9e93c146115fa5780635c975abb146115ca5780636352211e1461159a578063666610691461157c57806370a082311461155157806375b238fc146115165780637f23007b1461133b5780638456cb59146112d457806391d148541461127a57806395d89b41146111745780639a2241bb14611156578063a217fddf1461113a578063a22cb46514611091578063accaa6c514611073578063ad3cb1cc1461102d578063b61dfeca14610f70578063b6fd17f3146104c8578063b88d4fde1461046f578063c60c3bbb14610451578063c87b56dd146103c4578063ca4d460314610397578063d53913931461035c578063d547741f1461030e578063e63ab1e9146102d3578063e985e9c5146102855763f72c0d8b1461024557600080fd5b346102805760003660031901126102805760206040517f189ab7a9244df0848122154315af71fe140f3db0fe014031783b0946b8c9d2e38152f35b600080fd5b346102805760403660031901126102805761029e612b4c565b6102af6102a9612b62565b91612d36565b9060018060a01b0316600052602052602060ff604060002054166040519015158152f35b346102805760003660031901126102805760206040517f65d7a28e3265b37a6474929f336521b332c1681b933f6cb9f3376673440d862a8152f35b346102805760403660031901126102805761035a60043561032d612b62565b9080600052600080516020613c70833981519152602052610355600160406000200154612e60565b6130f0565b005b346102805760003660031901126102805760206040517f9f2df0fed2c77648de5860a4cc508cd0818c85b8b8a1ab4ceeef8d981c8956a68152f35b346102805760203660031901126102805760206127106103bb6003546004356137cf565b04604051908152f35b34610280576020366003190112610280576004356103e18161352a565b506000527f0542a41881ee128a365a727b282c86fa859579490b9bb45aab8503648c8e790060205261044d61042361042a604060002060405192838092612ca0565b0382612be3565b600060405161043881612bad565b52604051918291602083526020830190612b0c565b0390f35b34610280576000366003190112610280576020600454604051908152f35b3461028057608036600319011261028057610488612b4c565b610490612b62565b90604435606435926001600160401b038411610280576104b761035a943690600401612c1f565b926104c38383836131a8565b6135a2565b610120366003190112610280576104dd612b4c565b6024356001600160401b038111610280576104fc903690600401612c1f565b6084356001600160a01b03811681036102805760a435906001600160a01b03821682036102805760c4359283151584036102805760e43590811515820361028057610104356001600160401b0381116102805761055d903690600401612c1f565b93426044351115610f1a576002549261058761271061057f60643596876137cf565b0480956137e2565b6001600160a01b03861615610eb6576040516323b872dd60e01b81523360048201523060248201526044810182905260208160648160006001600160a01b038c165af18015610eaa576105ee926105e5928892610e7c575b50613807565b946004546137e2565b600455600054966000198814610c5b576001880160005560405192836101008101106001600160401b0361010086011117610ab1576101008401604052604435845285602085015260018060a01b03871660408501526001606085015260018060a01b031660808401528660a0840152151560c0830152151560e0820152856000526001602052604060002081518155602082015160018201556002810160018060a01b0360408401511681549060608501516004811015610e66576001600160a81b03199092161760a091821b60ff60a01b161790915560808301516003830180546001600160a01b0319166001600160a01b03929092169190911790558201518051906001600160401b038211610ab15761070e6004840154612c66565b601f8111610e1f575b50602090601f8311600114610daa57918060e09492600594600092610d9f575b50508160011b916000199060031b1c19161760048201555b019161076d60c08201511515849060ff801983541691151516179055565b0151815461ff00191690151560081b61ff001617905560405161078f81612bad565b600081526001600160a01b03871615610d865785600052600160205260ff60056040600020015460081c1615610d48576107c76137a4565b6000868152600080516020613cd083398151915260205260409020546001600160a01b031680610d29575b6107fb88612d6f565b805460010190556000878152600080516020613cd08339815191526020526040812080546001600160a01b0319166001600160a01b038b1690811790915588918390600080516020613c508339815191529080a480610c7157600080516020613c308339815191525487600052600080516020613c1083398151915260205280604060002055600160401b811015610ab157876108ae8260016108c79401600080516020613c30833981519152556136b9565b90919082549060031b91821b91600019901b1916179055565b6001600160a01b0388168103610bed575b610bd457863b610ac7575b50846000527f0542a41881ee128a365a727b282c86fa859579490b9bb45aab8503648c8e79006020526040600020908051906001600160401b038211610ab157819061092f8454612c66565b601f8111610a61575b50602090601f83116001146109fb576000926109f0575b50508160011b916000199060031b1c19161790555b7ff8e1a15aba9398e019f0b49df1a4fde98ee17ae345cb5f6b5e2c27f5033e8ce76020604051868152a1604051938452602084015260018060a01b03166040830152608060608301527f3bb5b3cbe3e599032da0d641669452e9441356969485e2571a9697c1fc60bb646044359360018060a01b031692806109eb33946080830190612b0c565b0390a4005b01519050888061094f565b6000858152602081209350601f198516905b818110610a495750908460019594939210610a30575b505050811b019055610964565b015160001960f88460031b161c19169055888080610a23565b92936020600181928786015181550195019301610a0d565b909150836000526020600020601f840160051c810160208510610aaa575b90849392915b601f830160051c82018110610a9b575050610938565b60008155859450600101610a85565b5080610a7f565b634e487b7160e01b600052604160045260246000fd5b60405160208180610b01630a85bd0160e11b95868352336004840152600060248401528b6044840152608060648401526084830190612b0c565b038160006001600160a01b038d165af160009181610b8f575b50610b595787610b28613572565b8051919082610b5257604051633250574960e11b81526001600160a01b0383166004820152602490fd5b9050602001fd5b6001600160e01b03191603610b6e57866108e3565b604051633250574960e11b81526001600160a01b0387166004820152602490fd5b9091506020813d602011610bcc575b81610bab60209383612be3565b8101031261028057516001600160e01b031981168103610280579089610b1a565b3d9150610b9e565b6040516339e3563760e11b815260006004820152602490fd5b610bf688613173565b80600019810111610c5b5760018060a01b038916600052600080516020613bd0833981519152602052604060002060001982016000526020528760406000205587600052600080516020613bb0833981519152602052600019016040600020556108d8565b634e487b7160e01b600052601160045260246000fd5b6001600160a01b03881681146108c757610c8a81613173565b87600052600080516020613bb08339815191528060205260406000205490828203610ceb575b5050876000526000604081205581600052600080516020613bd0833981519152602052604060002090600052602052600060408120556108c7565b6000848152600080516020613bd083398151915260209081526040808320868452825280832054858452818420819055835292905220558980610cb0565b610d32876134f9565b610d3b81612d6f565b80546000190190556107f2565b60405162461bcd60e51b81526020600482015260226024820152600080516020613c908339815191526044820152616c6560f01b6064820152608490fd5b604051633250574960e11b815260006004820152602490fd5b015190508c80610737565b906004840160005260206000209160005b601f1985168110610e0757509260e0949260019260059583601f19811610610dee575b505050811b01600482015561074f565b015160001960f88460031b161c191690558c8080610dde565b91926020600181928685015181550194019201610dbb565b600484016000526020600020601f840160051c810160208510610e5f575b601f830160051c82018110610e53575050610717565b60008155600101610e3d565b5080610e3d565b634e487b7160e01b600052602160045260246000fd5b610e9c9060203d8111610ea3575b610e948183612be3565b8101906137ef565b508c6105df565b503d610e8a565b6040513d6000823e3d90fd5b803410610eca576105e5856105ee92613807565b60405162461bcd60e51b815260206004820152602260248201527f546f6b656e54726561743a20696e73756666696369656e74206d73672e76616c604482015261756560f01b6064820152608490fd5b60405162461bcd60e51b815260206004820152602860248201527f546f6b656e54726561743a20657870697279206d75737420626520696e207468604482015267652066757475726560c01b6064820152608490fd5b3461028057602036600319011261028057600435600052600160205260406000208054906001810154600282015460ff8160a01c1660018060a01b038060038601541692600560405196610fd288610fcb8160048501612ca0565b0389612be3565b01549460405197885260208801521660408601526004811015610e6657849360ff9261101392606087015260808601526101008060a0870152850190612b0c565b91818116151560c085015260081c16151560e08301520390f35b346102805760003660031901126102805761044d60405161104d81612bc8565b60058152640352e302e360dc1b6020820152604051918291602083526020830190612b0c565b34610280576000366003190112610280576020600354604051908152f35b34610280576040366003190112610280576110aa612b4c565b6024359081151590818303610280576001600160a01b0316918215611121576110f3906110d633612d36565b8460005260205260406000209060ff801983541691151516179055565b6040519081527f17307eab39ab6107e8899845ad3d59bd9653f200f220920489ca2b5937696c3160203392a3005b604051630b61174360e31b815260048101849052602490fd5b3461028057600036600319011261028057602060405160008152f35b34610280576000366003190112610280576020600754604051908152f35b346102805760003660031901126102805760405160007f80bb2b638cc20bc4d0a60d66940f3ab4a00c1d7b313497ca82fb0b4ab007930180546111b681612c66565b8085529160019180831690811561125057506001146111f4575b61044d856111e081870382612be3565b604051918291602083526020830190612b0c565b600090815292507ff4bad0a69248f59680a4f2b3000328cec71a413447c96781cfe5996daa8c456e5b8284106112385750505081016020016111e08261044d6111d0565b8054602085870181019190915290930192810161121d565b86955061044d969350602092506111e094915060ff191682840152151560051b82010192936111d0565b3461028057604036600319011261028057611293612b62565b600435600052600080516020613c7083398151915260205260406000209060018060a01b0316600052602052602060ff604060002054166040519015158152f35b34610280576000366003190112610280576112ed612e04565b6112f56137a4565b600080516020613cb0833981519152600160ff198254161790557f62e78cea01bee320cd4e420270b5ea74000d11b0c9f74754ebdbfc544b05a2586020604051338152a1005b3461028057602080600319360112610280576004358060005260019182815261136a6040600020544210613814565b8160005282815260ff60026040600020015460a01c166004811015610e6657836113949114613860565b600082815283825260409020600201805460ff60a01b1916600160a11b1790556113bd8261352a565b60008381528483526040902060028101546001600160a01b03939186918516156114e757505060008481528582526040808220600281015490880154915163a9059cbb60e01b81526001600160a01b0386166004820152602481019290925290918391839190871690829081604481015b03925af18015610eaa576114ca575b505b8360005284815260ff600560406000200154166114bc575b60065493858501809511610c5b57856114b7927fa2c73b1f66caf7df780b298e49fea7b834943add97570b5ca734332c5d257c809660065582600052526040600020958601548460028801541690600460405196879616980192856138c1565b0390a2005b6114c5846138ef565b611457565b6114e090823d8411610ea357610e948183612be3565b508561143d565b60008080938193015481811561150d575b88881690f161143f576040513d6000823e3d90fd5b506108fc6114f8565b346102805760003660031901126102805760206040517fa49807205ce4d355092ef5a8a18f56e8913cf4a201fbe287825b095693c217758152f35b3461028057602036600319011261028057602061157461156f612b4c565b613173565b604051908152f35b34610280576000366003190112610280576020600654604051908152f35b346102805760203660031901126102805760206115b860043561352a565b6040516001600160a01b039091168152f35b3461028057600036600319011261028057602060ff600080516020613cb083398151915254166040519015158152f35b34610280576000366003190112610280576020600554604051908152f35b34610280576000366003190112610280577f00000000000000000000000000000000000000000000000000000000000000006001600160a01b031630036116835760206040517f360894a13ba1a3210667c828492db98dca3e2076cc3735a920a3ca505d382bbc8152f35b60405163703e46dd60e11b8152600490fd5b3461028057602036600319011261028057600435600080516020613c30833981519152548110156116d9576116cb6020916136b9565b90546040519160031b1c8152f35b6044906040519063295f44f760e21b8252600060048301526024820152fd5b60403660031901126102805761170c612b4c565b6024356001600160401b0381116102805761172b903690600401612c1f565b906001600160a01b03907f00000000000000000000000000000000000000000000000000000000000000008216308114908115611931575b50611683573360009081527fab71e3f32666744d246edff3f96e4bdafee2e9867098cdd118a979a7464786a860209081526040909120549092907f189ab7a9244df0848122154315af71fe140f3db0fe014031783b0946b8c9d2e39060ff161561191357508116916040516352d1902d60e01b81528181600481875afa600091816118e4575b5061180757604051634c9c8ce360e01b815260048101859052602490fd5b9284937f360894a13ba1a3210667c828492db98dca3e2076cc3735a920a3ca505d382bbc908181036118cc5750833b156118b35780546001600160a01b03191682179055604051907fbc7cd75a20ee27fd9adebab32041f755214dbc6bffa90cc0225b39da2e5c2d3b600080a28351156118995750600083819261035a95519101845af4611893613572565b91613712565b92505050346118a457005b63b398979f60e01b8152600490fd5b604051634c9c8ce360e01b815260048101839052602490fd5b60249060405190632a87526960e21b82526004820152fd5b9091508281813d831161190c575b6118fc8183612be3565b81010312610280575190866117e9565b503d6118f2565b6044906040519063e2517d3f60e01b82523360048301526024820152fd5b9050827f360894a13ba1a3210667c828492db98dca3e2076cc3735a920a3ca505d382bbc5416141584611763565b34610280576000366003190112610280576020600054604051908152f35b3461028057604036600319011261028057611996612b4c565b61199e612b62565b90600080516020613d1083398151915254906001600160401b03821680159081611e88575b6001149081611e7e575b159081611e75575b50611e635760016001600160401b0319831617600080516020613d108339815191525560ff8260401c1615611e36575b604051611a1181612bc8565b600a815269151bdad95b951c99585d60b21b602082015260405190611a3582612bc8565b6005825264151c99585d60da1b6020830152611a4f613775565b611a57613775565b8051906001600160401b038211610ab1578190611a82600080516020613bf083398151915254612c66565b601f8111611db5575b50602090601f8311600114611d2357600092611d18575b50508160011b916000199060031b1c191617600080516020613bf0833981519152555b80516001600160401b038111610ab1577f80bb2b638cc20bc4d0a60d66940f3ab4a00c1d7b313497ca82fb0b4ab007930191611b018354612c66565b601f8111611cb4575b50602090601f8311600114611c25579282611ba293611ba8969360ff9996600092611c1a575b50508160011b916000199060031b1c19161790555b611b4d613775565b611b55613775565b611b5d613775565b611b65613775565b600080516020613cb083398151915286198154169055611b83613775565b611b8b613775565b611b93613775565b611b9c81612e93565b50612f21565b50612fd1565b50612710600255620186a060035560401c1615611bc157005b68ff000000000000000019600080516020613d108339815191525416600080516020613d10833981519152557fc7f505b2f371ae2175ee4913f4499e1f2633a7b5936321eed1cdaeb6115181d2602060405160018152a1005b015190508980611b30565b90601f19831691846000527ff4bad0a69248f59680a4f2b3000328cec71a413447c96781cfe5996daa8c456e9260005b818110611c9c575093611ba8969360ff99969360019383611ba29810611c83575b505050811b019055611b45565b015160001960f88460031b161c19169055898080611c76565b92936020600181928786015181550195019301611c55565b836000527ff4bad0a69248f59680a4f2b3000328cec71a413447c96781cfe5996daa8c456e601f840160051c81019160208510611d0e575b601f0160051c01905b818110611d025750611b0a565b60008155600101611cf5565b9091508190611cec565b015190508680611aa2565b9250600080516020613bf0833981519152600052600080516020613d30833981519152906000935b601f1984168510611d9a576001945083601f19811610611d81575b505050811b01600080516020613bf083398151915255611ac5565b015160001960f88460031b161c19169055868080611d66565b81810151835560209485019460019093019290910190611d4b565b909150600080516020613bf0833981519152600052601f830160051c600080516020613d308339815191520160208410611e21575b908392915b601f820160051c600080516020613d30833981519152018110611e125750611a8b565b60008155849350600101611def565b50600080516020613d30833981519152611dea565b68ffffffffffffffffff1982166801000000000000000117600080516020613d1083398151915255611a05565b60405163f92ee8a960e01b8152600490fd5b905015846119d5565b303b1591506119cd565b604084901c60ff161591506119c3565b34610280576020806003193601126102805760043590816000526001815260ff60056040600020015460081c16156121e157611ed26137a4565b6000828152600080516020613cd08339815191528083526040909120546001600160a01b039081169190331515908161212f575b5050811580159182612110575b85600052845260406000206bffffffffffffffffffffffff60a01b815416905584600084600080516020613c508339815191528280a41561204b575050600080516020613c30833981519152805483600052600080516020613c10833981519152835280604060002055600160401b811015610ab1576108ae81611f9d93600187940190556136b9565b600080516020613c3083398151915291825460001992838201918211610c5b5782600052600080516020613c1083398151915290818152611fe3604060002054936136b9565b90549060031b1c611ff7816108ae866136b9565b600052526040600020556000526000604081205581548015612035570190612032612021836136b9565b8154906000199060031b1b19169055565b55005b634e487b7160e01b600052603160045260246000fd5b612056575b50611f9d565b61205f81613173565b9083600052600080516020613bb0833981519152808452604060002054908382036120be575b50508360005260006040812055600052600080516020613bd0833981519152825260406000209060005281526000604081205582612050565b82600052600080516020613bd083398151915280865260406000208560005286526040600020549084600052865260406000208360005286528060406000205560005284526040600020558480612085565b612119866134f9565b61212284612d6f565b8054600019019055611f13565b81612180575b5015612142578480611f06565b83826121605760249060405190637e27328960e01b82526004820152fd5b60405163177e802f60e01b81523360048201526024810191909152604490fd5b338414915081156121c1575b811561219a575b5085612135565b905084600052600080516020613cf083398151915284523390604060002054161485612193565b90506121cc83612d36565b33600052845260ff604060002054169061218c565b6084906040519062461bcd60e51b8252600482015260226024820152600080516020613c908339815191526044820152616c6560f01b6064820152fd5b346102805761035a61222f36612b78565b906040519261223d84612bad565b600084526104c38383836131a8565b3461028057602036600319011261028057612265612da8565b600435600355005b3461028057604036600319011261028057600435612289612b62565b906122938161352a565b6001600160a01b03903390821603612369578160005260019260208481526122c16040600020544210613814565b8360005284815260ff60026040600020015460a01c166004811015610e6657856122eb9114613860565b60008481528582526040902060028101805460ff60a01b198116600160a11b179091558691908516156114e757505060008481528582526040808220600281015490880154915163a9059cbb60e01b81526001600160a01b03861660048201526024810192909252909183918391908716908290816044810161142e565b60405162461bcd60e51b81526020600482015260156024820152742a37b5b2b72a3932b0ba1d103737ba1037bbb732b960591b6044820152606490fd5b34610280576000366003190112610280576123bf612e04565b600080516020613cb0833981519152805460ff81161561240b5760ff191690557f5db9ee0a495bf2e6ff9c91a7834c1ba4fdd244a5e8aa4e537bd38aeae4b073aa6020604051338152a1005b604051638dfc202b60e01b8152600490fd5b3461028057604036600319011261028057612436612b62565b336001600160a01b038216036124525761035a906004356130f0565b60405163334bd91960e11b8152600490fd5b346102805760403660031901126102805761247d612b4c565b6024359061248a81613173565b8210156124ca5760018060a01b0316600052600080516020613bd08339815191526020526040600020906000526020526020604060002054604051908152f35b60405163295f44f760e21b81526001600160a01b039190911660048201526024810191909152604490fd5b346102805760403660031901126102805761035a600435612514612b62565b9080600052600080516020613c7083398151915260205261253c600160406000200154612e60565b61307b565b34610280576000366003190112610280576020600254604051908152f35b3461028057602036600319011261028057600435600052600080516020613c708339815191526020526020600160406000200154604051908152f35b346102805761035a6125ac36612b78565b916131a8565b34610280576000366003190112610280576020600080516020613c3083398151915254604051908152f35b34610280576020366003190112610280576125f6612da8565b600435600255005b346102805760208060031936011261028057600435908160005260019081815261262e6040600020544210613814565b8260005281815260ff60026040600020015460a01c166004811015610e6657826126589114613860565b60008381528282526040902060028101805460ff60a01b1916600360a01b1790558201546003546127109161268d91906137cf565b049061269b826005546137e2565b600555836000528281526126b6828460406000200154613807565b60008581528483526040902060028101546001600160a01b039291839182161561280957505060008681528584526040908190206002810154600390910154915163a9059cbb60e01b8082529285166001600160a01b031660048201526024810193909352831691908482806044810103816000875af1918215610eaa5785926127ec575b506040519081523360048201526024810186905291829060449082906000905af18015610eaa576127cf575b505b612772856138ef565b600754848101809111610c5b57600755846000528382526002604060002094850154940154169060405193845283015260408201527f839ff367ffb7ff50b52fd014700a49f0d68c1f2d4ea4363cbe912bd7eaaf487060603392a3005b6127e590833d8511610ea357610e948183612be3565b5085612767565b61280290833d8511610ea357610e948183612be3565b508861273b565b60008093819360038394015416828215612851575bf115610eaa578260008115612848575b600080809381933390f1612769576040513d6000823e3d90fd5b506108fc61282e565b506108fc61281e565b346102805760203660031901126102805760206127106103bb6002546004356137cf565b3461028057604036600319011261028057612897612b4c565b6024356128a38161352a565b33151580612952575b80612932575b61291a576001600160a01b039283169282918491167f8c5be1e5ebec7d5bd14f71427d1e84f3dd0314c0f7b2291e5b200ac8c7c3b925600080a46000908152600080516020613cf08339815191526020526040902080546001600160a01b0319169091179055005b60405163a9fbf51f60e01b8152336004820152602490fd5b5061293c81612d36565b3360005260205260ff60406000205416156128b2565b506001600160a01b0381163314156128ac565b34610280576020366003190112610280576004356129828161352a565b50600052600080516020613cf0833981519152602052602060018060a01b0360406000205416604051908152f35b34610280576000366003190112610280576040516000600080516020613bf083398151915280546129e081612c66565b808552916001918083169081156112505750600114612a095761044d856111e081870382612be3565b60009081529250600080516020613d308339815191525b828410612a3b5750505081016020016111e08261044d6111d0565b80546020858701810191909152909301928101612a20565b34610280576020366003190112610280576004359063ffffffff60e01b821680920361028057602091637965db0b60e01b8114908115612a95575b5015158152f35b632483248360e11b811491508115612aaf575b5083612a8e565b63780e9d6360e01b811491508115612ac9575b5083612aa8565b6380ac58cd60e01b811491508115612afb575b8115612aea575b5083612ac2565b6301ffc9a760e01b14905083612ae3565b635b5e139f60e01b81149150612adc565b919082519283825260005b848110612b38575050826000602080949584010152601f8019910116010190565b602081830181015184830182015201612b17565b600435906001600160a01b038216820361028057565b602435906001600160a01b038216820361028057565b6060906003190112610280576001600160a01b0390600435828116810361028057916024359081168103610280579060443590565b602081019081106001600160401b03821117610ab157604052565b604081019081106001600160401b03821117610ab157604052565b90601f801991011681019081106001600160401b03821117610ab157604052565b6001600160401b038111610ab157601f01601f191660200190565b81601f8201121561028057803590612c3682612c04565b92612c446040519485612be3565b8284526020838301011161028057816000926020809301838601378301015290565b90600182811c92168015612c96575b6020831014612c8057565b634e487b7160e01b600052602260045260246000fd5b91607f1691612c75565b9060009291805491612cb183612c66565b918282526001938481169081600014612d135750600114612cd3575b50505050565b90919394506000526020928360002092846000945b838610612cff575050505001019038808080612ccd565b805485870183015294019385908201612ce8565b9294505050602093945060ff191683830152151560051b01019038808080612ccd565b6001600160a01b031660009081527f80bb2b638cc20bc4d0a60d66940f3ab4a00c1d7b313497ca82fb0b4ab00793056020526040902090565b6001600160a01b031660009081527f80bb2b638cc20bc4d0a60d66940f3ab4a00c1d7b313497ca82fb0b4ab00793036020526040902090565b3360009081527fb16e88c42fd4e48df2dd6a2eabd6bc9aec654ec170056b470819f8892cc6431c60205260409020547fa49807205ce4d355092ef5a8a18f56e8913cf4a201fbe287825b095693c217759060ff16156119135750565b3360009081527f75442b0a96088b5456bc4ed01394c96a4feec0f883c9494257d76b96ab1c9b6b60205260409020547f65d7a28e3265b37a6474929f336521b332c1681b933f6cb9f3376673440d862a9060ff16156119135750565b80600052600080516020613c7083398151915260205260406000203360005260205260ff60406000205416156119135750565b6001600160a01b031660008181527fb7db2dd08fcb62d0c9e08c51941cae53c267786a0b75803fb7960902fc8ef97d6020526040812054909190600080516020613c708339815191529060ff16612f1c578280526020526040822081835260205260408220600160ff198254161790553391600080516020613b908339815191528180a4600190565b505090565b6001600160a01b031660008181527fab71e3f32666744d246edff3f96e4bdafee2e9867098cdd118a979a7464786a860205260408120549091907f189ab7a9244df0848122154315af71fe140f3db0fe014031783b0946b8c9d2e390600080516020613c708339815191529060ff16612fcb578184526020526040832082845260205260408320600160ff19825416179055600080516020613b90833981519152339380a4600190565b50505090565b6001600160a01b031660008181527f549fe2656c81d2947b3b913f0a53b9ea86c71e049f3a1b8aa23c09a8a05cb8d460205260408120549091907f9f2df0fed2c77648de5860a4cc508cd0818c85b8b8a1ab4ceeef8d981c8956a690600080516020613c708339815191529060ff16612fcb578184526020526040832082845260205260408320600160ff19825416179055600080516020613b90833981519152339380a4600190565b90600091808352600080516020613c7083398151915280602052604084209260018060a01b03169283855260205260ff60408520541615600014612fcb578184526020526040832082845260205260408320600160ff19825416179055600080516020613b90833981519152339380a4600190565b90600091808352600080516020613c7083398151915280602052604084209260018060a01b03169283855260205260ff604085205416600014612fcb57818452602052604083208284526020526040832060ff1981541690557ff6391f5c32d9c69d2a47ea670b442974b53935d1edc7fd64eb21e047a839171b339380a4600190565b6001600160a01b0381161561318f5761318b90612d6f565b5490565b6040516322718ad960e21b815260006004820152602490fd5b6001600160a01b0382811693918415610d86576000948386526020956001875260409660ff6005898420015460081c16156134bd576131e56137a4565b858252600080516020613cd0833981519152968782528589842054169733151580613423575b508815908115613404575b61321f83612d6f565b80546001019055888552835289842080546001600160a01b0319168617905587858a600080516020613c508339815191528780a41561335f57600080516020613c30833981519152805490888552600080516020613c108339815191528452818b862055600160401b82101561334b576108ae828a9260016132a3950190556136b9565b8388036132df575b5050505016928383036132be5750505050565b6064945051926364283d7b60e01b8452600484015260248301526044820152fd5b6132e890613173565b600019810193908411613337578291600080516020613bb0833981519152918a9452600080516020613bd0833981519152815283832085845281528784842055878352522055388080806132ab565b634e487b7160e01b83526011600452602483fd5b634e487b7160e01b85526041600452602485fd5b8784146132a35761336f88613173565b878452600080516020613bb08339815191528084528a852054908282036133c1575b5050878452838a812055888452600080516020613bd08339815191528352898420908452825282898120556132a3565b8a8652600080516020613bd08339815191528086528c872084885286528c872054908c885286528c87208388528652808d882055865284528a8520553880613391565b61340d896134f9565b6134168a612d6f565b8054600019019055613216565b80613470575b15613434573861320b565b89888a613451576024915190637e27328960e01b82526004820152fd5b905163177e802f60e01b81523360048201526024810191909152604490fd5b5033891480156134a2575b806134295750878452600080516020613cf0833981519152835233878b8620541614613429565b506134ac89612d36565b338552835260ff8a8520541661347b565b60849088519062461bcd60e51b8252600482015260226024820152600080516020613c908339815191526044820152616c6560f01b6064820152fd5b600052600080516020613cf083398151915260205260406000206bffffffffffffffffffffffff60a01b8154169055565b6000818152600080516020613cd083398151915260205260409020546001600160a01b031690811561355a575090565b60249060405190637e27328960e01b82526004820152fd5b3d1561359d573d9061358382612c04565b916135916040519384612be3565b82523d6000602084013e565b606090565b9190803b6135b05750505050565b6135f260018060a01b0380921694604051938493630a85bd0160e11b968786523360048701521660248501526044840152608060648401526084830190612b0c565b03906020816000938185885af19082908261366a575b50506136395782613617613572565b8051919082610b5257604051633250574960e11b815260048101839052602490fd5b6001600160e01b03191603613652575038808080612ccd565b60249060405190633250574960e11b82526004820152fd5b909192506020813d82116136b1575b8161368660209383612be3565b810103126136ad5751906001600160e01b0319821682036136aa5750903880613608565b80fd5b5080fd5b3d9150613679565b600080516020613c3083398151915280548210156136fc576000527fa42f15e5d656f8155fd7419d740a6073999f19cd6e061449ce4a257150545bf20190600090565b634e487b7160e01b600052603260045260246000fd5b90613739575080511561372757805190602001fd5b604051630a12f52160e11b8152600490fd5b8151158061376c575b61374a575090565b604051639996b31560e01b81526001600160a01b039091166004820152602490fd5b50803b15613742565b60ff600080516020613d108339815191525460401c161561379257565b604051631afcd79f60e31b8152600490fd5b60ff600080516020613cb083398151915254166137bd57565b60405163d93c066560e01b8152600490fd5b81810292918115918404141715610c5b57565b91908201809211610c5b57565b90816020910312610280575180151581036102805790565b91908203918211610c5b57565b1561381b57565b60405162461bcd60e51b815260206004820152601960248201527f546f6b656e54726561743a2074726561742065787069726564000000000000006044820152606490fd5b1561386757565b60405162461bcd60e51b815260206004820152602c60248201527f546f6b656e54726561743a20747265617420616c726561647920636c61696d6560448201526b19081bdc88195e1c1a5c995960a21b6064820152608490fd5b90926080926138ec95948352602083015260018060a01b031660408201528160608201520190612ca0565b90565b600081815260206001815260409160ff6005848320015460081c1615613b53576139176137a4565b838152600080516020613cd0833981519152808352838220546001600160a01b03168015939184159081613b34575b878552835285842080546001600160a01b0319169055868483600080516020613c508339815191528280a48415613a8a575050600080516020613c30833981519152805490868452600080516020613c1083398151915283528186852055600160401b821015613a76576108ae82889260016139c4950190556136b9565b600080516020613c308339815191529182546000199283820191821161333757878352600080516020613c1083398151915290818152613a0788852054936136b9565b90549060031b1c613a1b816108ae866136b9565b8452528582205585815280858120558254908115613a6257500190613a42612021836136b9565b55613a4b575050565b602492505190637e27328960e01b82526004820152fd5b634e487b7160e01b81526031600452602490fd5b634e487b7160e01b84526041600452602484fd5b613a95575b506139c4565b613a9e81613173565b90868452600080516020613bb08339815191528084528685205490838203613af1575b505086845283868120558352600080516020613bd083398151915282528483209083528152818481205538613a8f565b828652600080516020613bd08339815191528086528887208588528652888720549084885286528887208388528652808988205586528452868520553880613ac1565b613b3d886134f9565b613b4683612d6f565b8054600019019055613946565b50608491519062461bcd60e51b8252600482015260226024820152600080516020613c908339815191526044820152616c6560f01b6064820152fdfe2f8788117e7eff1d82e926ec794901d17c78024a50270940304540a733656f0d645e039705490088daad89bae25049a34f4a9072d398537b1ab2425f24cbed01645e039705490088daad89bae25049a34f4a9072d398537b1ab2425f24cbed0080bb2b638cc20bc4d0a60d66940f3ab4a00c1d7b313497ca82fb0b4ab0079300645e039705490088daad89bae25049a34f4a9072d398537b1ab2425f24cbed03645e039705490088daad89bae25049a34f4a9072d398537b1ab2425f24cbed02ddf252ad1be2c89b69c2b068fc378daa952ba7f163c4a11628f55a4df523b3ef02dd7bc7dec4dceedda775e58dd541e08a116c6c53815c0bd028192f7b626800546f6b656e54726561743a20746f6b656e206e6f74207472616e736665726162cd5ed15c6e187e77e9aee88184c21f4f2182ab5827cb3b7e07fbedcd63f0330080bb2b638cc20bc4d0a60d66940f3ab4a00c1d7b313497ca82fb0b4ab007930280bb2b638cc20bc4d0a60d66940f3ab4a00c1d7b313497ca82fb0b4ab0079304f0c57e16840df040f15088dc2f81fe391c3923bec73e23a9662efc9c229c6a0037c58c799b6609234b945e882912ee9ad34948a1dfaa20a97485e1a7752bbf81a264697066735822122054190c59113c7b98bc1ad30cd2c78e22c62fa9990905b8b2b9594bf79db6f4e664736f6c63430008140033","opcodes":"PUSH1 0xA0 DUP1 PUSH1 0x40 MSTORE CALLVALUE PUSH3 0xD1 JUMPI ADDRESS PUSH1 0x80 MSTORE PUSH32 0xF0C57E16840DF040F15088DC2F81FE391C3923BEC73E23A9662EFC9C229C6A00 SWAP1 DUP2 SLOAD SWAP1 PUSH1 0xFF DUP3 PUSH1 0x40 SHR AND PUSH3 0xC2 JUMPI POP PUSH1 0x1 PUSH1 0x1 PUSH1 0x40 SHL SUB PUSH1 0x2 PUSH1 0x1 PUSH1 0x40 SHL SUB NOT DUP3 DUP3 AND ADD PUSH3 0x7C JUMPI JUMPDEST PUSH1 0x40 MLOAD PUSH2 0x3D85 SWAP1 DUP2 PUSH3 0xD7 DUP3 CODECOPY PUSH1 0x80 MLOAD DUP2 DUP2 DUP2 PUSH2 0x162B ADD MSTORE PUSH2 0x1737 ADD MSTORE RETURN JUMPDEST PUSH1 0x1 PUSH1 0x1 PUSH1 0x40 SHL SUB NOT SWAP1 SWAP2 AND DUP2 OR SWAP1 SWAP2 SSTORE PUSH1 0x40 MLOAD SWAP1 DUP2 MSTORE PUSH32 0xC7F505B2F371AE2175EE4913F4499E1F2633A7B5936321EED1CDAEB6115181D2 SWAP1 PUSH1 0x20 SWAP1 LOG1 CODESIZE DUP1 DUP1 PUSH3 0x5C JUMP JUMPDEST PUSH4 0xF92EE8A9 PUSH1 0xE0 SHL DUP2 MSTORE PUSH1 0x4 SWAP1 REVERT JUMPDEST PUSH1 0x0 DUP1 REVERT INVALID PUSH1 0x80 DUP1 PUSH1 0x40 MSTORE PUSH1 0x4 CALLDATASIZE LT ISZERO PUSH2 0x13 JUMPI PUSH1 0x0 DUP1 REVERT JUMPDEST PUSH1 0x0 CALLDATALOAD PUSH1 0xE0 SHR SWAP1 DUP2 PUSH4 0x1FFC9A7 EQ PUSH2 0x2A53 JUMPI POP DUP1 PUSH4 0x6FDDE03 EQ PUSH2 0x29B0 JUMPI DUP1 PUSH4 0x81812FC EQ PUSH2 0x2965 JUMPI DUP1 PUSH4 0x95EA7B3 EQ PUSH2 0x287E JUMPI DUP1 PUSH4 0xCBAB4F7 EQ PUSH2 0x285A JUMPI DUP1 PUSH4 0x11C9C32E EQ PUSH2 0x25FE JUMPI DUP1 PUSH4 0x12E8E2C3 EQ PUSH2 0x25DD JUMPI DUP1 PUSH4 0x18160DDD EQ PUSH2 0x25B2 JUMPI DUP1 PUSH4 0x23B872DD EQ PUSH2 0x259B JUMPI DUP1 PUSH4 0x248A9CA3 EQ PUSH2 0x255F JUMPI DUP1 PUSH4 0x26232A2E EQ PUSH2 0x2541 JUMPI DUP1 PUSH4 0x2F2FF15D EQ PUSH2 0x24F5 JUMPI DUP1 PUSH4 0x2F745C59 EQ PUSH2 0x2464 JUMPI DUP1 PUSH4 0x36568ABE EQ PUSH2 0x241D JUMPI DUP1 PUSH4 0x3F4BA83A EQ PUSH2 0x23A6 JUMPI DUP1 PUSH4 0x400CF3C4 EQ PUSH2 0x226D JUMPI DUP1 PUSH4 0x41A2AC70 EQ PUSH2 0x224C JUMPI DUP1 PUSH4 0x42842E0E EQ PUSH2 0x221E JUMPI DUP1 PUSH4 0x42966C68 EQ PUSH2 0x1E98 JUMPI DUP1 PUSH4 0x485CC955 EQ PUSH2 0x197D JUMPI DUP1 PUSH4 0x4A60F620 EQ PUSH2 0x195F JUMPI DUP1 PUSH4 0x4F1EF286 EQ PUSH2 0x16F8 JUMPI DUP1 PUSH4 0x4F6CCCE7 EQ PUSH2 0x1695 JUMPI DUP1 PUSH4 0x52D1902D EQ PUSH2 0x1618 JUMPI DUP1 PUSH4 0x59B9E93C EQ PUSH2 0x15FA JUMPI DUP1 PUSH4 0x5C975ABB EQ PUSH2 0x15CA JUMPI DUP1 PUSH4 0x6352211E EQ PUSH2 0x159A JUMPI DUP1 PUSH4 0x66661069 EQ PUSH2 0x157C JUMPI DUP1 PUSH4 0x70A08231 EQ PUSH2 0x1551 JUMPI DUP1 PUSH4 0x75B238FC EQ PUSH2 0x1516 JUMPI DUP1 PUSH4 0x7F23007B EQ PUSH2 0x133B JUMPI DUP1 PUSH4 0x8456CB59 EQ PUSH2 0x12D4 JUMPI DUP1 PUSH4 0x91D14854 EQ PUSH2 0x127A JUMPI DUP1 PUSH4 0x95D89B41 EQ PUSH2 0x1174 JUMPI DUP1 PUSH4 0x9A2241BB EQ PUSH2 0x1156 JUMPI DUP1 PUSH4 0xA217FDDF EQ PUSH2 0x113A JUMPI DUP1 PUSH4 0xA22CB465 EQ PUSH2 0x1091 JUMPI DUP1 PUSH4 0xACCAA6C5 EQ PUSH2 0x1073 JUMPI DUP1 PUSH4 0xAD3CB1CC EQ PUSH2 0x102D JUMPI DUP1 PUSH4 0xB61DFECA EQ PUSH2 0xF70 JUMPI DUP1 PUSH4 0xB6FD17F3 EQ PUSH2 0x4C8 JUMPI DUP1 PUSH4 0xB88D4FDE EQ PUSH2 0x46F JUMPI DUP1 PUSH4 0xC60C3BBB EQ PUSH2 0x451 JUMPI DUP1 PUSH4 0xC87B56DD EQ PUSH2 0x3C4 JUMPI DUP1 PUSH4 0xCA4D4603 EQ PUSH2 0x397 JUMPI DUP1 PUSH4 0xD5391393 EQ PUSH2 0x35C JUMPI DUP1 PUSH4 0xD547741F EQ PUSH2 0x30E JUMPI DUP1 PUSH4 0xE63AB1E9 EQ PUSH2 0x2D3 JUMPI DUP1 PUSH4 0xE985E9C5 EQ PUSH2 0x285 JUMPI PUSH4 0xF72C0D8B EQ PUSH2 0x245 JUMPI PUSH1 0x0 DUP1 REVERT JUMPDEST CALLVALUE PUSH2 0x280 JUMPI PUSH1 0x0 CALLDATASIZE PUSH1 0x3 NOT ADD SLT PUSH2 0x280 JUMPI PUSH1 0x20 PUSH1 0x40 MLOAD PUSH32 0x189AB7A9244DF0848122154315AF71FE140F3DB0FE014031783B0946B8C9D2E3 DUP2 MSTORE RETURN JUMPDEST PUSH1 0x0 DUP1 REVERT JUMPDEST CALLVALUE PUSH2 0x280 JUMPI PUSH1 0x40 CALLDATASIZE PUSH1 0x3 NOT ADD SLT PUSH2 0x280 JUMPI PUSH2 0x29E PUSH2 0x2B4C JUMP JUMPDEST PUSH2 0x2AF PUSH2 0x2A9 PUSH2 0x2B62 JUMP JUMPDEST SWAP2 PUSH2 0x2D36 JUMP JUMPDEST SWAP1 PUSH1 0x1 DUP1 PUSH1 0xA0 SHL SUB AND PUSH1 0x0 MSTORE PUSH1 0x20 MSTORE PUSH1 0x20 PUSH1 0xFF PUSH1 0x40 PUSH1 0x0 KECCAK256 SLOAD AND PUSH1 0x40 MLOAD SWAP1 ISZERO ISZERO DUP2 MSTORE RETURN JUMPDEST CALLVALUE PUSH2 0x280 JUMPI PUSH1 0x0 CALLDATASIZE PUSH1 0x3 NOT ADD SLT PUSH2 0x280 JUMPI PUSH1 0x20 PUSH1 0x40 MLOAD PUSH32 0x65D7A28E3265B37A6474929F336521B332C1681B933F6CB9F3376673440D862A DUP2 MSTORE RETURN JUMPDEST CALLVALUE PUSH2 0x280 JUMPI PUSH1 0x40 CALLDATASIZE PUSH1 0x3 NOT ADD SLT PUSH2 0x280 JUMPI PUSH2 0x35A PUSH1 0x4 CALLDATALOAD PUSH2 0x32D PUSH2 0x2B62 JUMP JUMPDEST SWAP1 DUP1 PUSH1 0x0 MSTORE PUSH1 0x0 DUP1 MLOAD PUSH1 0x20 PUSH2 0x3C70 DUP4 CODECOPY DUP2 MLOAD SWAP2 MSTORE PUSH1 0x20 MSTORE PUSH2 0x355 PUSH1 0x1 PUSH1 0x40 PUSH1 0x0 KECCAK256 ADD SLOAD PUSH2 0x2E60 JUMP JUMPDEST PUSH2 0x30F0 JUMP JUMPDEST STOP JUMPDEST CALLVALUE PUSH2 0x280 JUMPI PUSH1 0x0 CALLDATASIZE PUSH1 0x3 NOT ADD SLT PUSH2 0x280 JUMPI PUSH1 0x20 PUSH1 0x40 MLOAD PUSH32 0x9F2DF0FED2C77648DE5860A4CC508CD0818C85B8B8A1AB4CEEEF8D981C8956A6 DUP2 MSTORE RETURN JUMPDEST CALLVALUE PUSH2 0x280 JUMPI PUSH1 0x20 CALLDATASIZE PUSH1 0x3 NOT ADD SLT PUSH2 0x280 JUMPI PUSH1 0x20 PUSH2 0x2710 PUSH2 0x3BB PUSH1 0x3 SLOAD PUSH1 0x4 CALLDATALOAD PUSH2 0x37CF JUMP JUMPDEST DIV PUSH1 0x40 MLOAD SWAP1 DUP2 MSTORE RETURN JUMPDEST CALLVALUE PUSH2 0x280 JUMPI PUSH1 0x20 CALLDATASIZE PUSH1 0x3 NOT ADD SLT PUSH2 0x280 JUMPI PUSH1 0x4 CALLDATALOAD PUSH2 0x3E1 DUP2 PUSH2 0x352A JUMP JUMPDEST POP PUSH1 0x0 MSTORE PUSH32 0x542A41881EE128A365A727B282C86FA859579490B9BB45AAB8503648C8E7900 PUSH1 0x20 MSTORE PUSH2 0x44D PUSH2 0x423 PUSH2 0x42A PUSH1 0x40 PUSH1 0x0 KECCAK256 PUSH1 0x40 MLOAD SWAP3 DUP4 DUP1 SWAP3 PUSH2 0x2CA0 JUMP JUMPDEST SUB DUP3 PUSH2 0x2BE3 JUMP JUMPDEST PUSH1 0x0 PUSH1 0x40 MLOAD PUSH2 0x438 DUP2 PUSH2 0x2BAD JUMP JUMPDEST MSTORE PUSH1 0x40 MLOAD SWAP2 DUP3 SWAP2 PUSH1 0x20 DUP4 MSTORE PUSH1 0x20 DUP4 ADD SWAP1 PUSH2 0x2B0C JUMP JUMPDEST SUB SWAP1 RETURN JUMPDEST CALLVALUE PUSH2 0x280 JUMPI PUSH1 0x0 CALLDATASIZE PUSH1 0x3 NOT ADD SLT PUSH2 0x280 JUMPI PUSH1 0x20 PUSH1 0x4 SLOAD PUSH1 0x40 MLOAD SWAP1 DUP2 MSTORE RETURN JUMPDEST CALLVALUE PUSH2 0x280 JUMPI PUSH1 0x80 CALLDATASIZE PUSH1 0x3 NOT ADD SLT PUSH2 0x280 JUMPI PUSH2 0x488 PUSH2 0x2B4C JUMP JUMPDEST PUSH2 0x490 PUSH2 0x2B62 JUMP JUMPDEST SWAP1 PUSH1 0x44 CALLDATALOAD PUSH1 0x64 CALLDATALOAD SWAP3 PUSH1 0x1 PUSH1 0x1 PUSH1 0x40 SHL SUB DUP5 GT PUSH2 0x280 JUMPI PUSH2 0x4B7 PUSH2 0x35A SWAP5 CALLDATASIZE SWAP1 PUSH1 0x4 ADD PUSH2 0x2C1F JUMP JUMPDEST SWAP3 PUSH2 0x4C3 DUP4 DUP4 DUP4 PUSH2 0x31A8 JUMP JUMPDEST PUSH2 0x35A2 JUMP JUMPDEST PUSH2 0x120 CALLDATASIZE PUSH1 0x3 NOT ADD SLT PUSH2 0x280 JUMPI PUSH2 0x4DD PUSH2 0x2B4C JUMP JUMPDEST PUSH1 0x24 CALLDATALOAD PUSH1 0x1 PUSH1 0x1 PUSH1 0x40 SHL SUB DUP2 GT PUSH2 0x280 JUMPI PUSH2 0x4FC SWAP1 CALLDATASIZE SWAP1 PUSH1 0x4 ADD PUSH2 0x2C1F JUMP JUMPDEST PUSH1 0x84 CALLDATALOAD PUSH1 0x1 PUSH1 0x1 PUSH1 0xA0 SHL SUB DUP2 AND DUP2 SUB PUSH2 0x280 JUMPI PUSH1 0xA4 CALLDATALOAD SWAP1 PUSH1 0x1 PUSH1 0x1 PUSH1 0xA0 SHL SUB DUP3 AND DUP3 SUB PUSH2 0x280 JUMPI PUSH1 0xC4 CALLDATALOAD SWAP3 DUP4 ISZERO ISZERO DUP5 SUB PUSH2 0x280 JUMPI PUSH1 0xE4 CALLDATALOAD SWAP1 DUP2 ISZERO ISZERO DUP3 SUB PUSH2 0x280 JUMPI PUSH2 0x104 CALLDATALOAD PUSH1 0x1 PUSH1 0x1 PUSH1 0x40 SHL SUB DUP2 GT PUSH2 0x280 JUMPI PUSH2 0x55D SWAP1 CALLDATASIZE SWAP1 PUSH1 0x4 ADD PUSH2 0x2C1F JUMP JUMPDEST SWAP4 TIMESTAMP PUSH1 0x44 CALLDATALOAD GT ISZERO PUSH2 0xF1A JUMPI PUSH1 0x2 SLOAD SWAP3 PUSH2 0x587 PUSH2 0x2710 PUSH2 0x57F PUSH1 0x64 CALLDATALOAD SWAP7 DUP8 PUSH2 0x37CF JUMP JUMPDEST DIV DUP1 SWAP6 PUSH2 0x37E2 JUMP JUMPDEST PUSH1 0x1 PUSH1 0x1 PUSH1 0xA0 SHL SUB DUP7 AND ISZERO PUSH2 0xEB6 JUMPI PUSH1 0x40 MLOAD PUSH4 0x23B872DD PUSH1 0xE0 SHL DUP2 MSTORE CALLER PUSH1 0x4 DUP3 ADD MSTORE ADDRESS PUSH1 0x24 DUP3 ADD MSTORE PUSH1 0x44 DUP2 ADD DUP3 SWAP1 MSTORE PUSH1 0x20 DUP2 PUSH1 0x64 DUP2 PUSH1 0x0 PUSH1 0x1 PUSH1 0x1 PUSH1 0xA0 SHL SUB DUP13 AND GAS CALL DUP1 ISZERO PUSH2 0xEAA JUMPI PUSH2 0x5EE SWAP3 PUSH2 0x5E5 SWAP3 DUP9 SWAP3 PUSH2 0xE7C JUMPI JUMPDEST POP PUSH2 0x3807 JUMP JUMPDEST SWAP5 PUSH1 0x4 SLOAD PUSH2 0x37E2 JUMP JUMPDEST PUSH1 0x4 SSTORE PUSH1 0x0 SLOAD SWAP7 PUSH1 0x0 NOT DUP9 EQ PUSH2 0xC5B JUMPI PUSH1 0x1 DUP9 ADD PUSH1 0x0 SSTORE PUSH1 0x40 MLOAD SWAP3 DUP4 PUSH2 0x100 DUP2 ADD LT PUSH1 0x1 PUSH1 0x1 PUSH1 0x40 SHL SUB PUSH2 0x100 DUP7 ADD GT OR PUSH2 0xAB1 JUMPI PUSH2 0x100 DUP5 ADD PUSH1 0x40 MSTORE PUSH1 0x44 CALLDATALOAD DUP5 MSTORE DUP6 PUSH1 0x20 DUP6 ADD MSTORE PUSH1 0x1 DUP1 PUSH1 0xA0 SHL SUB DUP8 AND PUSH1 0x40 DUP6 ADD MSTORE PUSH1 0x1 PUSH1 0x60 DUP6 ADD MSTORE PUSH1 0x1 DUP1 PUSH1 0xA0 SHL SUB AND PUSH1 0x80 DUP5 ADD MSTORE DUP7 PUSH1 0xA0 DUP5 ADD MSTORE ISZERO ISZERO PUSH1 0xC0 DUP4 ADD MSTORE ISZERO ISZERO PUSH1 0xE0 DUP3 ADD MSTORE DUP6 PUSH1 0x0 MSTORE PUSH1 0x1 PUSH1 0x20 MSTORE PUSH1 0x40 PUSH1 0x0 KECCAK256 DUP2 MLOAD DUP2 SSTORE PUSH1 0x20 DUP3 ADD MLOAD PUSH1 0x1 DUP3 ADD SSTORE PUSH1 0x2 DUP2 ADD PUSH1 0x1 DUP1 PUSH1 0xA0 SHL SUB PUSH1 0x40 DUP5 ADD MLOAD AND DUP2 SLOAD SWAP1 PUSH1 0x60 DUP6 ADD MLOAD PUSH1 0x4 DUP2 LT ISZERO PUSH2 0xE66 JUMPI PUSH1 0x1 PUSH1 0x1 PUSH1 0xA8 SHL SUB NOT SWAP1 SWAP3 AND OR PUSH1 0xA0 SWAP2 DUP3 SHL PUSH1 0xFF PUSH1 0xA0 SHL AND OR SWAP1 SWAP2 SSTORE PUSH1 0x80 DUP4 ADD MLOAD PUSH1 0x3 DUP4 ADD DUP1 SLOAD PUSH1 0x1 PUSH1 0x1 PUSH1 0xA0 SHL SUB NOT AND PUSH1 0x1 PUSH1 0x1 PUSH1 0xA0 SHL SUB SWAP3 SWAP1 SWAP3 AND SWAP2 SWAP1 SWAP2 OR SWAP1 SSTORE DUP3 ADD MLOAD DUP1 MLOAD SWAP1 PUSH1 0x1 PUSH1 0x1 PUSH1 0x40 SHL SUB DUP3 GT PUSH2 0xAB1 JUMPI PUSH2 0x70E PUSH1 0x4 DUP5 ADD SLOAD PUSH2 0x2C66 JUMP JUMPDEST PUSH1 0x1F DUP2 GT PUSH2 0xE1F JUMPI JUMPDEST POP PUSH1 0x20 SWAP1 PUSH1 0x1F DUP4 GT PUSH1 0x1 EQ PUSH2 0xDAA JUMPI SWAP2 DUP1 PUSH1 0xE0 SWAP5 SWAP3 PUSH1 0x5 SWAP5 PUSH1 0x0 SWAP3 PUSH2 0xD9F JUMPI JUMPDEST POP POP DUP2 PUSH1 0x1 SHL SWAP2 PUSH1 0x0 NOT SWAP1 PUSH1 0x3 SHL SHR NOT AND OR PUSH1 0x4 DUP3 ADD SSTORE JUMPDEST ADD SWAP2 PUSH2 0x76D PUSH1 0xC0 DUP3 ADD MLOAD ISZERO ISZERO DUP5 SWAP1 PUSH1 0xFF DUP1 NOT DUP4 SLOAD AND SWAP2 ISZERO ISZERO AND OR SWAP1 SSTORE JUMP JUMPDEST ADD MLOAD DUP2 SLOAD PUSH2 0xFF00 NOT AND SWAP1 ISZERO ISZERO PUSH1 0x8 SHL PUSH2 0xFF00 AND OR SWAP1 SSTORE PUSH1 0x40 MLOAD PUSH2 0x78F DUP2 PUSH2 0x2BAD JUMP JUMPDEST PUSH1 0x0 DUP2 MSTORE PUSH1 0x1 PUSH1 0x1 PUSH1 0xA0 SHL SUB DUP8 AND ISZERO PUSH2 0xD86 JUMPI DUP6 PUSH1 0x0 MSTORE PUSH1 0x1 PUSH1 0x20 MSTORE PUSH1 0xFF PUSH1 0x5 PUSH1 0x40 PUSH1 0x0 KECCAK256 ADD SLOAD PUSH1 0x8 SHR AND ISZERO PUSH2 0xD48 JUMPI PUSH2 0x7C7 PUSH2 0x37A4 JUMP JUMPDEST PUSH1 0x0 DUP7 DUP2 MSTORE PUSH1 0x0 DUP1 MLOAD PUSH1 0x20 PUSH2 0x3CD0 DUP4 CODECOPY DUP2 MLOAD SWAP2 MSTORE PUSH1 0x20 MSTORE PUSH1 0x40 SWAP1 KECCAK256 SLOAD PUSH1 0x1 PUSH1 0x1 PUSH1 0xA0 SHL SUB AND DUP1 PUSH2 0xD29 JUMPI JUMPDEST PUSH2 0x7FB DUP9 PUSH2 0x2D6F JUMP JUMPDEST DUP1 SLOAD PUSH1 0x1 ADD SWAP1 SSTORE PUSH1 0x0 DUP8 DUP2 MSTORE PUSH1 0x0 DUP1 MLOAD PUSH1 0x20 PUSH2 0x3CD0 DUP4 CODECOPY DUP2 MLOAD SWAP2 MSTORE PUSH1 0x20 MSTORE PUSH1 0x40 DUP2 KECCAK256 DUP1 SLOAD PUSH1 0x1 PUSH1 0x1 PUSH1 0xA0 SHL SUB NOT AND PUSH1 0x1 PUSH1 0x1 PUSH1 0xA0 SHL SUB DUP12 AND SWAP1 DUP2 OR SWAP1 SWAP2 SSTORE DUP9 SWAP2 DUP4 SWAP1 PUSH1 0x0 DUP1 MLOAD PUSH1 0x20 PUSH2 0x3C50 DUP4 CODECOPY DUP2 MLOAD SWAP2 MSTORE SWAP1 DUP1 LOG4 DUP1 PUSH2 0xC71 JUMPI PUSH1 0x0 DUP1 MLOAD PUSH1 0x20 PUSH2 0x3C30 DUP4 CODECOPY DUP2 MLOAD SWAP2 MSTORE SLOAD DUP8 PUSH1 0x0 MSTORE PUSH1 0x0 DUP1 MLOAD PUSH1 0x20 PUSH2 0x3C10 DUP4 CODECOPY DUP2 MLOAD SWAP2 MSTORE PUSH1 0x20 MSTORE DUP1 PUSH1 0x40 PUSH1 0x0 KECCAK256 SSTORE PUSH1 0x1 PUSH1 0x40 SHL DUP2 LT ISZERO PUSH2 0xAB1 JUMPI DUP8 PUSH2 0x8AE DUP3 PUSH1 0x1 PUSH2 0x8C7 SWAP5 ADD PUSH1 0x0 DUP1 MLOAD PUSH1 0x20 PUSH2 0x3C30 DUP4 CODECOPY DUP2 MLOAD SWAP2 MSTORE SSTORE PUSH2 0x36B9 JUMP JUMPDEST SWAP1 SWAP2 SWAP1 DUP3 SLOAD SWAP1 PUSH1 0x3 SHL SWAP2 DUP3 SHL SWAP2 PUSH1 0x0 NOT SWAP1 SHL NOT AND OR SWAP1 SSTORE JUMP JUMPDEST PUSH1 0x1 PUSH1 0x1 PUSH1 0xA0 SHL SUB DUP9 AND DUP2 SUB PUSH2 0xBED JUMPI JUMPDEST PUSH2 0xBD4 JUMPI DUP7 EXTCODESIZE PUSH2 0xAC7 JUMPI JUMPDEST POP DUP5 PUSH1 0x0 MSTORE PUSH32 0x542A41881EE128A365A727B282C86FA859579490B9BB45AAB8503648C8E7900 PUSH1 0x20 MSTORE PUSH1 0x40 PUSH1 0x0 KECCAK256 SWAP1 DUP1 MLOAD SWAP1 PUSH1 0x1 PUSH1 0x1 PUSH1 0x40 SHL SUB DUP3 GT PUSH2 0xAB1 JUMPI DUP2 SWAP1 PUSH2 0x92F DUP5 SLOAD PUSH2 0x2C66 JUMP JUMPDEST PUSH1 0x1F DUP2 GT PUSH2 0xA61 JUMPI JUMPDEST POP PUSH1 0x20 SWAP1 PUSH1 0x1F DUP4 GT PUSH1 0x1 EQ PUSH2 0x9FB JUMPI PUSH1 0x0 SWAP3 PUSH2 0x9F0 JUMPI JUMPDEST POP POP DUP2 PUSH1 0x1 SHL SWAP2 PUSH1 0x0 NOT SWAP1 PUSH1 0x3 SHL SHR NOT AND OR SWAP1 SSTORE JUMPDEST PUSH32 0xF8E1A15ABA9398E019F0B49DF1A4FDE98EE17AE345CB5F6B5E2C27F5033E8CE7 PUSH1 0x20 PUSH1 0x40 MLOAD DUP7 DUP2 MSTORE LOG1 PUSH1 0x40 MLOAD SWAP4 DUP5 MSTORE PUSH1 0x20 DUP5 ADD MSTORE PUSH1 0x1 DUP1 PUSH1 0xA0 SHL SUB AND PUSH1 0x40 DUP4 ADD MSTORE PUSH1 0x80 PUSH1 0x60 DUP4 ADD MSTORE PUSH32 0x3BB5B3CBE3E599032DA0D641669452E9441356969485E2571A9697C1FC60BB64 PUSH1 0x44 CALLDATALOAD SWAP4 PUSH1 0x1 DUP1 PUSH1 0xA0 SHL SUB AND SWAP3 DUP1 PUSH2 0x9EB CALLER SWAP5 PUSH1 0x80 DUP4 ADD SWAP1 PUSH2 0x2B0C JUMP JUMPDEST SUB SWAP1 LOG4 STOP JUMPDEST ADD MLOAD SWAP1 POP DUP9 DUP1 PUSH2 0x94F JUMP JUMPDEST PUSH1 0x0 DUP6 DUP2 MSTORE PUSH1 0x20 DUP2 KECCAK256 SWAP4 POP PUSH1 0x1F NOT DUP6 AND SWAP1 JUMPDEST DUP2 DUP2 LT PUSH2 0xA49 JUMPI POP SWAP1 DUP5 PUSH1 0x1 SWAP6 SWAP5 SWAP4 SWAP3 LT PUSH2 0xA30 JUMPI JUMPDEST POP POP POP DUP2 SHL ADD SWAP1 SSTORE PUSH2 0x964 JUMP JUMPDEST ADD MLOAD PUSH1 0x0 NOT PUSH1 0xF8 DUP5 PUSH1 0x3 SHL AND SHR NOT AND SWAP1 SSTORE DUP9 DUP1 DUP1 PUSH2 0xA23 JUMP JUMPDEST SWAP3 SWAP4 PUSH1 0x20 PUSH1 0x1 DUP2 SWAP3 DUP8 DUP7 ADD MLOAD DUP2 SSTORE ADD SWAP6 ADD SWAP4 ADD PUSH2 0xA0D JUMP JUMPDEST SWAP1 SWAP2 POP DUP4 PUSH1 0x0 MSTORE PUSH1 0x20 PUSH1 0x0 KECCAK256 PUSH1 0x1F DUP5 ADD PUSH1 0x5 SHR DUP2 ADD PUSH1 0x20 DUP6 LT PUSH2 0xAAA JUMPI JUMPDEST SWAP1 DUP5 SWAP4 SWAP3 SWAP2 JUMPDEST PUSH1 0x1F DUP4 ADD PUSH1 0x5 SHR DUP3 ADD DUP2 LT PUSH2 0xA9B JUMPI POP POP PUSH2 0x938 JUMP JUMPDEST PUSH1 0x0 DUP2 SSTORE DUP6 SWAP5 POP PUSH1 0x1 ADD PUSH2 0xA85 JUMP JUMPDEST POP DUP1 PUSH2 0xA7F JUMP JUMPDEST PUSH4 0x4E487B71 PUSH1 0xE0 SHL PUSH1 0x0 MSTORE PUSH1 0x41 PUSH1 0x4 MSTORE PUSH1 0x24 PUSH1 0x0 REVERT JUMPDEST PUSH1 0x40 MLOAD PUSH1 0x20 DUP2 DUP1 PUSH2 0xB01 PUSH4 0xA85BD01 PUSH1 0xE1 SHL SWAP6 DUP7 DUP4 MSTORE CALLER PUSH1 0x4 DUP5 ADD MSTORE PUSH1 0x0 PUSH1 0x24 DUP5 ADD MSTORE DUP12 PUSH1 0x44 DUP5 ADD MSTORE PUSH1 0x80 PUSH1 0x64 DUP5 ADD MSTORE PUSH1 0x84 DUP4 ADD SWAP1 PUSH2 0x2B0C JUMP JUMPDEST SUB DUP2 PUSH1 0x0 PUSH1 0x1 PUSH1 0x1 PUSH1 0xA0 SHL SUB DUP14 AND GAS CALL PUSH1 0x0 SWAP2 DUP2 PUSH2 0xB8F JUMPI JUMPDEST POP PUSH2 0xB59 JUMPI DUP8 PUSH2 0xB28 PUSH2 0x3572 JUMP JUMPDEST DUP1 MLOAD SWAP2 SWAP1 DUP3 PUSH2 0xB52 JUMPI PUSH1 0x40 MLOAD PUSH4 0x32505749 PUSH1 0xE1 SHL DUP2 MSTORE PUSH1 0x1 PUSH1 0x1 PUSH1 0xA0 SHL SUB DUP4 AND PUSH1 0x4 DUP3 ADD MSTORE PUSH1 0x24 SWAP1 REVERT JUMPDEST SWAP1 POP PUSH1 0x20 ADD REVERT JUMPDEST PUSH1 0x1 PUSH1 0x1 PUSH1 0xE0 SHL SUB NOT AND SUB PUSH2 0xB6E JUMPI DUP7 PUSH2 0x8E3 JUMP JUMPDEST PUSH1 0x40 MLOAD PUSH4 0x32505749 PUSH1 0xE1 SHL DUP2 MSTORE PUSH1 0x1 PUSH1 0x1 PUSH1 0xA0 SHL SUB DUP8 AND PUSH1 0x4 DUP3 ADD MSTORE PUSH1 0x24 SWAP1 REVERT JUMPDEST SWAP1 SWAP2 POP PUSH1 0x20 DUP2 RETURNDATASIZE PUSH1 0x20 GT PUSH2 0xBCC JUMPI JUMPDEST DUP2 PUSH2 0xBAB PUSH1 0x20 SWAP4 DUP4 PUSH2 0x2BE3 JUMP JUMPDEST DUP2 ADD SUB SLT PUSH2 0x280 JUMPI MLOAD PUSH1 0x1 PUSH1 0x1 PUSH1 0xE0 SHL SUB NOT DUP2 AND DUP2 SUB PUSH2 0x280 JUMPI SWAP1 DUP10 PUSH2 0xB1A JUMP JUMPDEST RETURNDATASIZE SWAP2 POP PUSH2 0xB9E JUMP JUMPDEST PUSH1 0x40 MLOAD PUSH4 0x39E35637 PUSH1 0xE1 SHL DUP2 MSTORE PUSH1 0x0 PUSH1 0x4 DUP3 ADD MSTORE PUSH1 0x24 SWAP1 REVERT JUMPDEST PUSH2 0xBF6 DUP9 PUSH2 0x3173 JUMP JUMPDEST DUP1 PUSH1 0x0 NOT DUP2 ADD GT PUSH2 0xC5B JUMPI PUSH1 0x1 DUP1 PUSH1 0xA0 SHL SUB DUP10 AND PUSH1 0x0 MSTORE PUSH1 0x0 DUP1 MLOAD PUSH1 0x20 PUSH2 0x3BD0 DUP4 CODECOPY DUP2 MLOAD SWAP2 MSTORE PUSH1 0x20 MSTORE PUSH1 0x40 PUSH1 0x0 KECCAK256 PUSH1 0x0 NOT DUP3 ADD PUSH1 0x0 MSTORE PUSH1 0x20 MSTORE DUP8 PUSH1 0x40 PUSH1 0x0 KECCAK256 SSTORE DUP8 PUSH1 0x0 MSTORE PUSH1 0x0 DUP1 MLOAD PUSH1 0x20 PUSH2 0x3BB0 DUP4 CODECOPY DUP2 MLOAD SWAP2 MSTORE PUSH1 0x20 MSTORE PUSH1 0x0 NOT ADD PUSH1 0x40 PUSH1 0x0 KECCAK256 SSTORE PUSH2 0x8D8 JUMP JUMPDEST PUSH4 0x4E487B71 PUSH1 0xE0 SHL PUSH1 0x0 MSTORE PUSH1 0x11 PUSH1 0x4 MSTORE PUSH1 0x24 PUSH1 0x0 REVERT JUMPDEST PUSH1 0x1 PUSH1 0x1 PUSH1 0xA0 SHL SUB DUP9 AND DUP2 EQ PUSH2 0x8C7 JUMPI PUSH2 0xC8A DUP2 PUSH2 0x3173 JUMP JUMPDEST DUP8 PUSH1 0x0 MSTORE PUSH1 0x0 DUP1 MLOAD PUSH1 0x20 PUSH2 0x3BB0 DUP4 CODECOPY DUP2 MLOAD SWAP2 MSTORE DUP1 PUSH1 0x20 MSTORE PUSH1 0x40 PUSH1 0x0 KECCAK256 SLOAD SWAP1 DUP3 DUP3 SUB PUSH2 0xCEB JUMPI JUMPDEST POP POP DUP8 PUSH1 0x0 MSTORE PUSH1 0x0 PUSH1 0x40 DUP2 KECCAK256 SSTORE DUP2 PUSH1 0x0 MSTORE PUSH1 0x0 DUP1 MLOAD PUSH1 0x20 PUSH2 0x3BD0 DUP4 CODECOPY DUP2 MLOAD SWAP2 MSTORE PUSH1 0x20 MSTORE PUSH1 0x40 PUSH1 0x0 KECCAK256 SWAP1 PUSH1 0x0 MSTORE PUSH1 0x20 MSTORE PUSH1 0x0 PUSH1 0x40 DUP2 KECCAK256 SSTORE PUSH2 0x8C7 JUMP JUMPDEST PUSH1 0x0 DUP5 DUP2 MSTORE PUSH1 0x0 DUP1 MLOAD PUSH1 0x20 PUSH2 0x3BD0 DUP4 CODECOPY DUP2 MLOAD SWAP2 MSTORE PUSH1 0x20 SWAP1 DUP2 MSTORE PUSH1 0x40 DUP1 DUP4 KECCAK256 DUP7 DUP5 MSTORE DUP3 MSTORE DUP1 DUP4 KECCAK256 SLOAD DUP6 DUP5 MSTORE DUP2 DUP5 KECCAK256 DUP2 SWAP1 SSTORE DUP4 MSTORE SWAP3 SWAP1 MSTORE KECCAK256 SSTORE DUP10 DUP1 PUSH2 0xCB0 JUMP JUMPDEST PUSH2 0xD32 DUP8 PUSH2 0x34F9 JUMP JUMPDEST PUSH2 0xD3B DUP2 PUSH2 0x2D6F JUMP JUMPDEST DUP1 SLOAD PUSH1 0x0 NOT ADD SWAP1 SSTORE PUSH2 0x7F2 JUMP JUMPDEST PUSH1 0x40 MLOAD PUSH3 0x461BCD PUSH1 0xE5 SHL DUP2 MSTORE PUSH1 0x20 PUSH1 0x4 DUP3 ADD MSTORE PUSH1 0x22 PUSH1 0x24 DUP3 ADD MSTORE PUSH1 0x0 DUP1 MLOAD PUSH1 0x20 PUSH2 0x3C90 DUP4 CODECOPY DUP2 MLOAD SWAP2 MSTORE PUSH1 0x44 DUP3 ADD MSTORE PUSH2 0x6C65 PUSH1 0xF0 SHL PUSH1 0x64 DUP3 ADD MSTORE PUSH1 0x84 SWAP1 REVERT JUMPDEST PUSH1 0x40 MLOAD PUSH4 0x32505749 PUSH1 0xE1 SHL DUP2 MSTORE PUSH1 0x0 PUSH1 0x4 DUP3 ADD MSTORE PUSH1 0x24 SWAP1 REVERT JUMPDEST ADD MLOAD SWAP1 POP DUP13 DUP1 PUSH2 0x737 JUMP JUMPDEST SWAP1 PUSH1 0x4 DUP5 ADD PUSH1 0x0 MSTORE PUSH1 0x20 PUSH1 0x0 KECCAK256 SWAP2 PUSH1 0x0 JUMPDEST PUSH1 0x1F NOT DUP6 AND DUP2 LT PUSH2 0xE07 JUMPI POP SWAP3 PUSH1 0xE0 SWAP5 SWAP3 PUSH1 0x1 SWAP3 PUSH1 0x5 SWAP6 DUP4 PUSH1 0x1F NOT DUP2 AND LT PUSH2 0xDEE JUMPI JUMPDEST POP POP POP DUP2 SHL ADD PUSH1 0x4 DUP3 ADD SSTORE PUSH2 0x74F JUMP JUMPDEST ADD MLOAD PUSH1 0x0 NOT PUSH1 0xF8 DUP5 PUSH1 0x3 SHL AND SHR NOT AND SWAP1 SSTORE DUP13 DUP1 DUP1 PUSH2 0xDDE JUMP JUMPDEST SWAP2 SWAP3 PUSH1 0x20 PUSH1 0x1 DUP2 SWAP3 DUP7 DUP6 ADD MLOAD DUP2 SSTORE ADD SWAP5 ADD SWAP3 ADD PUSH2 0xDBB JUMP JUMPDEST PUSH1 0x4 DUP5 ADD PUSH1 0x0 MSTORE PUSH1 0x20 PUSH1 0x0 KECCAK256 PUSH1 0x1F DUP5 ADD PUSH1 0x5 SHR DUP2 ADD PUSH1 0x20 DUP6 LT PUSH2 0xE5F JUMPI JUMPDEST PUSH1 0x1F DUP4 ADD PUSH1 0x5 SHR DUP3 ADD DUP2 LT PUSH2 0xE53 JUMPI POP POP PUSH2 0x717 JUMP JUMPDEST PUSH1 0x0 DUP2 SSTORE PUSH1 0x1 ADD PUSH2 0xE3D JUMP JUMPDEST POP DUP1 PUSH2 0xE3D JUMP JUMPDEST PUSH4 0x4E487B71 PUSH1 0xE0 SHL PUSH1 0x0 MSTORE PUSH1 0x21 PUSH1 0x4 MSTORE PUSH1 0x24 PUSH1 0x0 REVERT JUMPDEST PUSH2 0xE9C SWAP1 PUSH1 0x20 RETURNDATASIZE DUP2 GT PUSH2 0xEA3 JUMPI JUMPDEST PUSH2 0xE94 DUP2 DUP4 PUSH2 0x2BE3 JUMP JUMPDEST DUP2 ADD SWAP1 PUSH2 0x37EF JUMP JUMPDEST POP DUP13 PUSH2 0x5DF JUMP JUMPDEST POP RETURNDATASIZE PUSH2 0xE8A JUMP JUMPDEST PUSH1 0x40 MLOAD RETURNDATASIZE PUSH1 0x0 DUP3 RETURNDATACOPY RETURNDATASIZE SWAP1 REVERT JUMPDEST DUP1 CALLVALUE LT PUSH2 0xECA JUMPI PUSH2 0x5E5 DUP6 PUSH2 0x5EE SWAP3 PUSH2 0x3807 JUMP JUMPDEST PUSH1 0x40 MLOAD PUSH3 0x461BCD PUSH1 0xE5 SHL DUP2 MSTORE PUSH1 0x20 PUSH1 0x4 DUP3 ADD MSTORE PUSH1 0x22 PUSH1 0x24 DUP3 ADD MSTORE PUSH32 0x546F6B656E54726561743A20696E73756666696369656E74206D73672E76616C PUSH1 0x44 DUP3 ADD MSTORE PUSH2 0x7565 PUSH1 0xF0 SHL PUSH1 0x64 DUP3 ADD MSTORE PUSH1 0x84 SWAP1 REVERT JUMPDEST PUSH1 0x40 MLOAD PUSH3 0x461BCD PUSH1 0xE5 SHL DUP2 MSTORE PUSH1 0x20 PUSH1 0x4 DUP3 ADD MSTORE PUSH1 0x28 PUSH1 0x24 DUP3 ADD MSTORE PUSH32 0x546F6B656E54726561743A20657870697279206D75737420626520696E207468 PUSH1 0x44 DUP3 ADD MSTORE PUSH8 0x6520667574757265 PUSH1 0xC0 SHL PUSH1 0x64 DUP3 ADD MSTORE PUSH1 0x84 SWAP1 REVERT JUMPDEST CALLVALUE PUSH2 0x280 JUMPI PUSH1 0x20 CALLDATASIZE PUSH1 0x3 NOT ADD SLT PUSH2 0x280 JUMPI PUSH1 0x4 CALLDATALOAD PUSH1 0x0 MSTORE PUSH1 0x1 PUSH1 0x20 MSTORE PUSH1 0x40 PUSH1 0x0 KECCAK256 DUP1 SLOAD SWAP1 PUSH1 0x1 DUP2 ADD SLOAD PUSH1 0x2 DUP3 ADD SLOAD PUSH1 0xFF DUP2 PUSH1 0xA0 SHR AND PUSH1 0x1 DUP1 PUSH1 0xA0 SHL SUB DUP1 PUSH1 0x3 DUP7 ADD SLOAD AND SWAP3 PUSH1 0x5 PUSH1 0x40 MLOAD SWAP7 PUSH2 0xFD2 DUP9 PUSH2 0xFCB DUP2 PUSH1 0x4 DUP6 ADD PUSH2 0x2CA0 JUMP JUMPDEST SUB DUP10 PUSH2 0x2BE3 JUMP JUMPDEST ADD SLOAD SWAP5 PUSH1 0x40 MLOAD SWAP8 DUP9 MSTORE PUSH1 0x20 DUP9 ADD MSTORE AND PUSH1 0x40 DUP7 ADD MSTORE PUSH1 0x4 DUP2 LT ISZERO PUSH2 0xE66 JUMPI DUP5 SWAP4 PUSH1 0xFF SWAP3 PUSH2 0x1013 SWAP3 PUSH1 0x60 DUP8 ADD MSTORE PUSH1 0x80 DUP7 ADD MSTORE PUSH2 0x100 DUP1 PUSH1 0xA0 DUP8 ADD MSTORE DUP6 ADD SWAP1 PUSH2 0x2B0C JUMP JUMPDEST SWAP2 DUP2 DUP2 AND ISZERO ISZERO PUSH1 0xC0 DUP6 ADD MSTORE PUSH1 0x8 SHR AND ISZERO ISZERO PUSH1 0xE0 DUP4 ADD MSTORE SUB SWAP1 RETURN JUMPDEST CALLVALUE PUSH2 0x280 JUMPI PUSH1 0x0 CALLDATASIZE PUSH1 0x3 NOT ADD SLT PUSH2 0x280 JUMPI PUSH2 0x44D PUSH1 0x40 MLOAD PUSH2 0x104D DUP2 PUSH2 0x2BC8 JUMP JUMPDEST PUSH1 0x5 DUP2 MSTORE PUSH5 0x352E302E3 PUSH1 0xDC SHL PUSH1 0x20 DUP3 ADD MSTORE PUSH1 0x40 MLOAD SWAP2 DUP3 SWAP2 PUSH1 0x20 DUP4 MSTORE PUSH1 0x20 DUP4 ADD SWAP1 PUSH2 0x2B0C JUMP JUMPDEST CALLVALUE PUSH2 0x280 JUMPI PUSH1 0x0 CALLDATASIZE PUSH1 0x3 NOT ADD SLT PUSH2 0x280 JUMPI PUSH1 0x20 PUSH1 0x3 SLOAD PUSH1 0x40 MLOAD SWAP1 DUP2 MSTORE RETURN JUMPDEST CALLVALUE PUSH2 0x280 JUMPI PUSH1 0x40 CALLDATASIZE PUSH1 0x3 NOT ADD SLT PUSH2 0x280 JUMPI PUSH2 0x10AA PUSH2 0x2B4C JUMP JUMPDEST PUSH1 0x24 CALLDATALOAD SWAP1 DUP2 ISZERO ISZERO SWAP1 DUP2 DUP4 SUB PUSH2 0x280 JUMPI PUSH1 0x1 PUSH1 0x1 PUSH1 0xA0 SHL SUB AND SWAP2 DUP3 ISZERO PUSH2 0x1121 JUMPI PUSH2 0x10F3 SWAP1 PUSH2 0x10D6 CALLER PUSH2 0x2D36 JUMP JUMPDEST DUP5 PUSH1 0x0 MSTORE PUSH1 0x20 MSTORE PUSH1 0x40 PUSH1 0x0 KECCAK256 SWAP1 PUSH1 0xFF DUP1 NOT DUP4 SLOAD AND SWAP2 ISZERO ISZERO AND OR SWAP1 SSTORE JUMP JUMPDEST PUSH1 0x40 MLOAD SWAP1 DUP2 MSTORE PUSH32 0x17307EAB39AB6107E8899845AD3D59BD9653F200F220920489CA2B5937696C31 PUSH1 0x20 CALLER SWAP3 LOG3 STOP JUMPDEST PUSH1 0x40 MLOAD PUSH4 0xB611743 PUSH1 0xE3 SHL DUP2 MSTORE PUSH1 0x4 DUP2 ADD DUP5 SWAP1 MSTORE PUSH1 0x24 SWAP1 REVERT JUMPDEST CALLVALUE PUSH2 0x280 JUMPI PUSH1 0x0 CALLDATASIZE PUSH1 0x3 NOT ADD SLT PUSH2 0x280 JUMPI PUSH1 0x20 PUSH1 0x40 MLOAD PUSH1 0x0 DUP2 MSTORE RETURN JUMPDEST CALLVALUE PUSH2 0x280 JUMPI PUSH1 0x0 CALLDATASIZE PUSH1 0x3 NOT ADD SLT PUSH2 0x280 JUMPI PUSH1 0x20 PUSH1 0x7 SLOAD PUSH1 0x40 MLOAD SWAP1 DUP2 MSTORE RETURN JUMPDEST CALLVALUE PUSH2 0x280 JUMPI PUSH1 0x0 CALLDATASIZE PUSH1 0x3 NOT ADD SLT PUSH2 0x280 JUMPI PUSH1 0x40 MLOAD PUSH1 0x0 PUSH32 0x80BB2B638CC20BC4D0A60D66940F3AB4A00C1D7B313497CA82FB0B4AB0079301 DUP1 SLOAD PUSH2 0x11B6 DUP2 PUSH2 0x2C66 JUMP JUMPDEST DUP1 DUP6 MSTORE SWAP2 PUSH1 0x1 SWAP2 DUP1 DUP4 AND SWAP1 DUP2 ISZERO PUSH2 0x1250 JUMPI POP PUSH1 0x1 EQ PUSH2 0x11F4 JUMPI JUMPDEST PUSH2 0x44D DUP6 PUSH2 0x11E0 DUP2 DUP8 SUB DUP3 PUSH2 0x2BE3 JUMP JUMPDEST PUSH1 0x40 MLOAD SWAP2 DUP3 SWAP2 PUSH1 0x20 DUP4 MSTORE PUSH1 0x20 DUP4 ADD SWAP1 PUSH2 0x2B0C JUMP JUMPDEST PUSH1 0x0 SWAP1 DUP2 MSTORE SWAP3 POP PUSH32 0xF4BAD0A69248F59680A4F2B3000328CEC71A413447C96781CFE5996DAA8C456E JUMPDEST DUP3 DUP5 LT PUSH2 0x1238 JUMPI POP POP POP DUP2 ADD PUSH1 0x20 ADD PUSH2 0x11E0 DUP3 PUSH2 0x44D PUSH2 0x11D0 JUMP JUMPDEST DUP1 SLOAD PUSH1 0x20 DUP6 DUP8 ADD DUP2 ADD SWAP2 SWAP1 SWAP2 MSTORE SWAP1 SWAP4 ADD SWAP3 DUP2 ADD PUSH2 0x121D JUMP JUMPDEST DUP7 SWAP6 POP PUSH2 0x44D SWAP7 SWAP4 POP PUSH1 0x20 SWAP3 POP PUSH2 0x11E0 SWAP5 SWAP2 POP PUSH1 0xFF NOT AND DUP3 DUP5 ADD MSTORE ISZERO ISZERO PUSH1 0x5 SHL DUP3 ADD ADD SWAP3 SWAP4 PUSH2 0x11D0 JUMP JUMPDEST CALLVALUE PUSH2 0x280 JUMPI PUSH1 0x40 CALLDATASIZE PUSH1 0x3 NOT ADD SLT PUSH2 0x280 JUMPI PUSH2 0x1293 PUSH2 0x2B62 JUMP JUMPDEST PUSH1 0x4 CALLDATALOAD PUSH1 0x0 MSTORE PUSH1 0x0 DUP1 MLOAD PUSH1 0x20 PUSH2 0x3C70 DUP4 CODECOPY DUP2 MLOAD SWAP2 MSTORE PUSH1 0x20 MSTORE PUSH1 0x40 PUSH1 0x0 KECCAK256 SWAP1 PUSH1 0x1 DUP1 PUSH1 0xA0 SHL SUB AND PUSH1 0x0 MSTORE PUSH1 0x20 MSTORE PUSH1 0x20 PUSH1 0xFF PUSH1 0x40 PUSH1 0x0 KECCAK256 SLOAD AND PUSH1 0x40 MLOAD SWAP1 ISZERO ISZERO DUP2 MSTORE RETURN JUMPDEST CALLVALUE PUSH2 0x280 JUMPI PUSH1 0x0 CALLDATASIZE PUSH1 0x3 NOT ADD SLT PUSH2 0x280 JUMPI PUSH2 0x12ED PUSH2 0x2E04 JUMP JUMPDEST PUSH2 0x12F5 PUSH2 0x37A4 JUMP JUMPDEST PUSH1 0x0 DUP1 MLOAD PUSH1 0x20 PUSH2 0x3CB0 DUP4 CODECOPY DUP2 MLOAD SWAP2 MSTORE PUSH1 0x1 PUSH1 0xFF NOT DUP3 SLOAD AND OR SWAP1 SSTORE PUSH32 0x62E78CEA01BEE320CD4E420270B5EA74000D11B0C9F74754EBDBFC544B05A258 PUSH1 0x20 PUSH1 0x40 MLOAD CALLER DUP2 MSTORE LOG1 STOP JUMPDEST CALLVALUE PUSH2 0x280 JUMPI PUSH1 0x20 DUP1 PUSH1 0x3 NOT CALLDATASIZE ADD SLT PUSH2 0x280 JUMPI PUSH1 0x4 CALLDATALOAD DUP1 PUSH1 0x0 MSTORE PUSH1 0x1 SWAP2 DUP3 DUP2 MSTORE PUSH2 0x136A PUSH1 0x40 PUSH1 0x0 KECCAK256 SLOAD TIMESTAMP LT PUSH2 0x3814 JUMP JUMPDEST DUP2 PUSH1 0x0 MSTORE DUP3 DUP2 MSTORE PUSH1 0xFF PUSH1 0x2 PUSH1 0x40 PUSH1 0x0 KECCAK256 ADD SLOAD PUSH1 0xA0 SHR AND PUSH1 0x4 DUP2 LT ISZERO PUSH2 0xE66 JUMPI DUP4 PUSH2 0x1394 SWAP2 EQ PUSH2 0x3860 JUMP JUMPDEST PUSH1 0x0 DUP3 DUP2 MSTORE DUP4 DUP3 MSTORE PUSH1 0x40 SWAP1 KECCAK256 PUSH1 0x2 ADD DUP1 SLOAD PUSH1 0xFF PUSH1 0xA0 SHL NOT AND PUSH1 0x1 PUSH1 0xA1 SHL OR SWAP1 SSTORE PUSH2 0x13BD DUP3 PUSH2 0x352A JUMP JUMPDEST PUSH1 0x0 DUP4 DUP2 MSTORE DUP5 DUP4 MSTORE PUSH1 0x40 SWAP1 KECCAK256 PUSH1 0x2 DUP2 ADD SLOAD PUSH1 0x1 PUSH1 0x1 PUSH1 0xA0 SHL SUB SWAP4 SWAP2 DUP7 SWAP2 DUP6 AND ISZERO PUSH2 0x14E7 JUMPI POP POP PUSH1 0x0 DUP5 DUP2 MSTORE DUP6 DUP3 MSTORE PUSH1 0x40 DUP1 DUP3 KECCAK256 PUSH1 0x2 DUP2 ADD SLOAD SWAP1 DUP9 ADD SLOAD SWAP2 MLOAD PUSH4 0xA9059CBB PUSH1 0xE0 SHL DUP2 MSTORE PUSH1 0x1 PUSH1 0x1 PUSH1 0xA0 SHL SUB DUP7 AND PUSH1 0x4 DUP3 ADD MSTORE PUSH1 0x24 DUP2 ADD SWAP3 SWAP1 SWAP3 MSTORE SWAP1 SWAP2 DUP4 SWAP2 DUP4 SWAP2 SWAP1 DUP8 AND SWAP1 DUP3 SWAP1 DUP2 PUSH1 0x44 DUP2 ADD JUMPDEST SUB SWAP3 GAS CALL DUP1 ISZERO PUSH2 0xEAA JUMPI PUSH2 0x14CA JUMPI JUMPDEST POP JUMPDEST DUP4 PUSH1 0x0 MSTORE DUP5 DUP2 MSTORE PUSH1 0xFF PUSH1 0x5 PUSH1 0x40 PUSH1 0x0 KECCAK256 ADD SLOAD AND PUSH2 0x14BC JUMPI JUMPDEST PUSH1 0x6 SLOAD SWAP4 DUP6 DUP6 ADD DUP1 SWAP6 GT PUSH2 0xC5B JUMPI DUP6 PUSH2 0x14B7 SWAP3 PUSH32 0xA2C73B1F66CAF7DF780B298E49FEA7B834943ADD97570B5CA734332C5D257C80 SWAP7 PUSH1 0x6 SSTORE DUP3 PUSH1 0x0 MSTORE MSTORE PUSH1 0x40 PUSH1 0x0 KECCAK256 SWAP6 DUP7 ADD SLOAD DUP5 PUSH1 0x2 DUP9 ADD SLOAD AND SWAP1 PUSH1 0x4 PUSH1 0x40 MLOAD SWAP7 DUP8 SWAP7 AND SWAP9 ADD SWAP3 DUP6 PUSH2 0x38C1 JUMP JUMPDEST SUB SWAP1 LOG2 STOP JUMPDEST PUSH2 0x14C5 DUP5 PUSH2 0x38EF JUMP JUMPDEST PUSH2 0x1457 JUMP JUMPDEST PUSH2 0x14E0 SWAP1 DUP3 RETURNDATASIZE DUP5 GT PUSH2 0xEA3 JUMPI PUSH2 0xE94 DUP2 DUP4 PUSH2 0x2BE3 JUMP JUMPDEST POP DUP6 PUSH2 0x143D JUMP JUMPDEST PUSH1 0x0 DUP1 DUP1 SWAP4 DUP2 SWAP4 ADD SLOAD DUP2 DUP2 ISZERO PUSH2 0x150D JUMPI JUMPDEST DUP9 DUP9 AND SWAP1 CALL PUSH2 0x143F JUMPI PUSH1 0x40 MLOAD RETURNDATASIZE PUSH1 0x0 DUP3 RETURNDATACOPY RETURNDATASIZE SWAP1 REVERT JUMPDEST POP PUSH2 0x8FC PUSH2 0x14F8 JUMP JUMPDEST CALLVALUE PUSH2 0x280 JUMPI PUSH1 0x0 CALLDATASIZE PUSH1 0x3 NOT ADD SLT PUSH2 0x280 JUMPI PUSH1 0x20 PUSH1 0x40 MLOAD PUSH32 0xA49807205CE4D355092EF5A8A18F56E8913CF4A201FBE287825B095693C21775 DUP2 MSTORE RETURN JUMPDEST CALLVALUE PUSH2 0x280 JUMPI PUSH1 0x20 CALLDATASIZE PUSH1 0x3 NOT ADD SLT PUSH2 0x280 JUMPI PUSH1 0x20 PUSH2 0x1574 PUSH2 0x156F PUSH2 0x2B4C JUMP JUMPDEST PUSH2 0x3173 JUMP JUMPDEST PUSH1 0x40 MLOAD SWAP1 DUP2 MSTORE RETURN JUMPDEST CALLVALUE PUSH2 0x280 JUMPI PUSH1 0x0 CALLDATASIZE PUSH1 0x3 NOT ADD SLT PUSH2 0x280 JUMPI PUSH1 0x20 PUSH1 0x6 SLOAD PUSH1 0x40 MLOAD SWAP1 DUP2 MSTORE RETURN JUMPDEST CALLVALUE PUSH2 0x280 JUMPI PUSH1 0x20 CALLDATASIZE PUSH1 0x3 NOT ADD SLT PUSH2 0x280 JUMPI PUSH1 0x20 PUSH2 0x15B8 PUSH1 0x4 CALLDATALOAD PUSH2 0x352A JUMP JUMPDEST PUSH1 0x40 MLOAD PUSH1 0x1 PUSH1 0x1 PUSH1 0xA0 SHL SUB SWAP1 SWAP2 AND DUP2 MSTORE RETURN JUMPDEST CALLVALUE PUSH2 0x280 JUMPI PUSH1 0x0 CALLDATASIZE PUSH1 0x3 NOT ADD SLT PUSH2 0x280 JUMPI PUSH1 0x20 PUSH1 0xFF PUSH1 0x0 DUP1 MLOAD PUSH1 0x20 PUSH2 0x3CB0 DUP4 CODECOPY DUP2 MLOAD SWAP2 MSTORE SLOAD AND PUSH1 0x40 MLOAD SWAP1 ISZERO ISZERO DUP2 MSTORE RETURN JUMPDEST CALLVALUE PUSH2 0x280 JUMPI PUSH1 0x0 CALLDATASIZE PUSH1 0x3 NOT ADD SLT PUSH2 0x280 JUMPI PUSH1 0x20 PUSH1 0x5 SLOAD PUSH1 0x40 MLOAD SWAP1 DUP2 MSTORE RETURN JUMPDEST CALLVALUE PUSH2 0x280 JUMPI PUSH1 0x0 CALLDATASIZE PUSH1 0x3 NOT ADD SLT PUSH2 0x280 JUMPI PUSH32 0x0 PUSH1 0x1 PUSH1 0x1 PUSH1 0xA0 SHL SUB AND ADDRESS SUB PUSH2 0x1683 JUMPI PUSH1 0x20 PUSH1 0x40 MLOAD PUSH32 0x360894A13BA1A3210667C828492DB98DCA3E2076CC3735A920A3CA505D382BBC DUP2 MSTORE RETURN JUMPDEST PUSH1 0x40 MLOAD PUSH4 0x703E46DD PUSH1 0xE1 SHL DUP2 MSTORE PUSH1 0x4 SWAP1 REVERT JUMPDEST CALLVALUE PUSH2 0x280 JUMPI PUSH1 0x20 CALLDATASIZE PUSH1 0x3 NOT ADD SLT PUSH2 0x280 JUMPI PUSH1 0x4 CALLDATALOAD PUSH1 0x0 DUP1 MLOAD PUSH1 0x20 PUSH2 0x3C30 DUP4 CODECOPY DUP2 MLOAD SWAP2 MSTORE SLOAD DUP2 LT ISZERO PUSH2 0x16D9 JUMPI PUSH2 0x16CB PUSH1 0x20 SWAP2 PUSH2 0x36B9 JUMP JUMPDEST SWAP1 SLOAD PUSH1 0x40 MLOAD SWAP2 PUSH1 0x3 SHL SHR DUP2 MSTORE RETURN JUMPDEST PUSH1 0x44 SWAP1 PUSH1 0x40 MLOAD SWAP1 PUSH4 0x295F44F7 PUSH1 0xE2 SHL DUP3 MSTORE PUSH1 0x0 PUSH1 0x4 DUP4 ADD MSTORE PUSH1 0x24 DUP3 ADD MSTORE REVERT JUMPDEST PUSH1 0x40 CALLDATASIZE PUSH1 0x3 NOT ADD SLT PUSH2 0x280 JUMPI PUSH2 0x170C PUSH2 0x2B4C JUMP JUMPDEST PUSH1 0x24 CALLDATALOAD PUSH1 0x1 PUSH1 0x1 PUSH1 0x40 SHL SUB DUP2 GT PUSH2 0x280 JUMPI PUSH2 0x172B SWAP1 CALLDATASIZE SWAP1 PUSH1 0x4 ADD PUSH2 0x2C1F JUMP JUMPDEST SWAP1 PUSH1 0x1 PUSH1 0x1 PUSH1 0xA0 SHL SUB SWAP1 PUSH32 0x0 DUP3 AND ADDRESS DUP2 EQ SWAP1 DUP2 ISZERO PUSH2 0x1931 JUMPI JUMPDEST POP PUSH2 0x1683 JUMPI CALLER PUSH1 0x0 SWAP1 DUP2 MSTORE PUSH32 0xAB71E3F32666744D246EDFF3F96E4BDAFEE2E9867098CDD118A979A7464786A8 PUSH1 0x20 SWAP1 DUP2 MSTORE PUSH1 0x40 SWAP1 SWAP2 KECCAK256 SLOAD SWAP1 SWAP3 SWAP1 PUSH32 0x189AB7A9244DF0848122154315AF71FE140F3DB0FE014031783B0946B8C9D2E3 SWAP1 PUSH1 0xFF AND ISZERO PUSH2 0x1913 JUMPI POP DUP2 AND SWAP2 PUSH1 0x40 MLOAD PUSH4 0x52D1902D PUSH1 0xE0 SHL DUP2 MSTORE DUP2 DUP2 PUSH1 0x4 DUP2 DUP8 GAS STATICCALL PUSH1 0x0 SWAP2 DUP2 PUSH2 0x18E4 JUMPI JUMPDEST POP PUSH2 0x1807 JUMPI PUSH1 0x40 MLOAD PUSH4 0x4C9C8CE3 PUSH1 0xE0 SHL DUP2 MSTORE PUSH1 0x4 DUP2 ADD DUP6 SWAP1 MSTORE PUSH1 0x24 SWAP1 REVERT JUMPDEST SWAP3 DUP5 SWAP4 PUSH32 0x360894A13BA1A3210667C828492DB98DCA3E2076CC3735A920A3CA505D382BBC SWAP1 DUP2 DUP2 SUB PUSH2 0x18CC JUMPI POP DUP4 EXTCODESIZE ISZERO PUSH2 0x18B3 JUMPI DUP1 SLOAD PUSH1 0x1 PUSH1 0x1 PUSH1 0xA0 SHL SUB NOT AND DUP3 OR SWAP1 SSTORE PUSH1 0x40 MLOAD SWAP1 PUSH32 0xBC7CD75A20EE27FD9ADEBAB32041F755214DBC6BFFA90CC0225B39DA2E5C2D3B PUSH1 0x0 DUP1 LOG2 DUP4 MLOAD ISZERO PUSH2 0x1899 JUMPI POP PUSH1 0x0 DUP4 DUP2 SWAP3 PUSH2 0x35A SWAP6 MLOAD SWAP2 ADD DUP5 GAS DELEGATECALL PUSH2 0x1893 PUSH2 0x3572 JUMP JUMPDEST SWAP2 PUSH2 0x3712 JUMP JUMPDEST SWAP3 POP POP POP CALLVALUE PUSH2 0x18A4 JUMPI STOP JUMPDEST PUSH4 0xB398979F PUSH1 0xE0 SHL DUP2 MSTORE PUSH1 0x4 SWAP1 REVERT JUMPDEST PUSH1 0x40 MLOAD PUSH4 0x4C9C8CE3 PUSH1 0xE0 SHL DUP2 MSTORE PUSH1 0x4 DUP2 ADD DUP4 SWAP1 MSTORE PUSH1 0x24 SWAP1 REVERT JUMPDEST PUSH1 0x24 SWAP1 PUSH1 0x40 MLOAD SWAP1 PUSH4 0x2A875269 PUSH1 0xE2 SHL DUP3 MSTORE PUSH1 0x4 DUP3 ADD MSTORE REVERT JUMPDEST SWAP1 SWAP2 POP DUP3 DUP2 DUP2 RETURNDATASIZE DUP4 GT PUSH2 0x190C JUMPI JUMPDEST PUSH2 0x18FC DUP2 DUP4 PUSH2 0x2BE3 JUMP JUMPDEST DUP2 ADD SUB SLT PUSH2 0x280 JUMPI MLOAD SWAP1 DUP7 PUSH2 0x17E9 JUMP JUMPDEST POP RETURNDATASIZE PUSH2 0x18F2 JUMP JUMPDEST PUSH1 0x44 SWAP1 PUSH1 0x40 MLOAD SWAP1 PUSH4 0xE2517D3F PUSH1 0xE0 SHL DUP3 MSTORE CALLER PUSH1 0x4 DUP4 ADD MSTORE PUSH1 0x24 DUP3 ADD MSTORE REVERT JUMPDEST SWAP1 POP DUP3 PUSH32 0x360894A13BA1A3210667C828492DB98DCA3E2076CC3735A920A3CA505D382BBC SLOAD AND EQ ISZERO DUP5 PUSH2 0x1763 JUMP JUMPDEST CALLVALUE PUSH2 0x280 JUMPI PUSH1 0x0 CALLDATASIZE PUSH1 0x3 NOT ADD SLT PUSH2 0x280 JUMPI PUSH1 0x20 PUSH1 0x0 SLOAD PUSH1 0x40 MLOAD SWAP1 DUP2 MSTORE RETURN JUMPDEST CALLVALUE PUSH2 0x280 JUMPI PUSH1 0x40 CALLDATASIZE PUSH1 0x3 NOT ADD SLT PUSH2 0x280 JUMPI PUSH2 0x1996 PUSH2 0x2B4C JUMP JUMPDEST PUSH2 0x199E PUSH2 0x2B62 JUMP JUMPDEST SWAP1 PUSH1 0x0 DUP1 MLOAD PUSH1 0x20 PUSH2 0x3D10 DUP4 CODECOPY DUP2 MLOAD SWAP2 MSTORE SLOAD SWAP1 PUSH1 0x1 PUSH1 0x1 PUSH1 0x40 SHL SUB DUP3 AND DUP1 ISZERO SWAP1 DUP2 PUSH2 0x1E88 JUMPI JUMPDEST PUSH1 0x1 EQ SWAP1 DUP2 PUSH2 0x1E7E JUMPI JUMPDEST ISZERO SWAP1 DUP2 PUSH2 0x1E75 JUMPI JUMPDEST POP PUSH2 0x1E63 JUMPI PUSH1 0x1 PUSH1 0x1 PUSH1 0x1 PUSH1 0x40 SHL SUB NOT DUP4 AND OR PUSH1 0x0 DUP1 MLOAD PUSH1 0x20 PUSH2 0x3D10 DUP4 CODECOPY DUP2 MLOAD SWAP2 MSTORE SSTORE PUSH1 0xFF DUP3 PUSH1 0x40 SHR AND ISZERO PUSH2 0x1E36 JUMPI JUMPDEST PUSH1 0x40 MLOAD PUSH2 0x1A11 DUP2 PUSH2 0x2BC8 JUMP JUMPDEST PUSH1 0xA DUP2 MSTORE PUSH10 0x151BDAD95B951C99585D PUSH1 0xB2 SHL PUSH1 0x20 DUP3 ADD MSTORE PUSH1 0x40 MLOAD SWAP1 PUSH2 0x1A35 DUP3 PUSH2 0x2BC8 JUMP JUMPDEST PUSH1 0x5 DUP3 MSTORE PUSH5 0x151C99585D PUSH1 0xDA SHL PUSH1 0x20 DUP4 ADD MSTORE PUSH2 0x1A4F PUSH2 0x3775 JUMP JUMPDEST PUSH2 0x1A57 PUSH2 0x3775 JUMP JUMPDEST DUP1 MLOAD SWAP1 PUSH1 0x1 PUSH1 0x1 PUSH1 0x40 SHL SUB DUP3 GT PUSH2 0xAB1 JUMPI DUP2 SWAP1 PUSH2 0x1A82 PUSH1 0x0 DUP1 MLOAD PUSH1 0x20 PUSH2 0x3BF0 DUP4 CODECOPY DUP2 MLOAD SWAP2 MSTORE SLOAD PUSH2 0x2C66 JUMP JUMPDEST PUSH1 0x1F DUP2 GT PUSH2 0x1DB5 JUMPI JUMPDEST POP PUSH1 0x20 SWAP1 PUSH1 0x1F DUP4 GT PUSH1 0x1 EQ PUSH2 0x1D23 JUMPI PUSH1 0x0 SWAP3 PUSH2 0x1D18 JUMPI JUMPDEST POP POP DUP2 PUSH1 0x1 SHL SWAP2 PUSH1 0x0 NOT SWAP1 PUSH1 0x3 SHL SHR NOT AND OR PUSH1 0x0 DUP1 MLOAD PUSH1 0x20 PUSH2 0x3BF0 DUP4 CODECOPY DUP2 MLOAD SWAP2 MSTORE SSTORE JUMPDEST DUP1 MLOAD PUSH1 0x1 PUSH1 0x1 PUSH1 0x40 SHL SUB DUP2 GT PUSH2 0xAB1 JUMPI PUSH32 0x80BB2B638CC20BC4D0A60D66940F3AB4A00C1D7B313497CA82FB0B4AB0079301 SWAP2 PUSH2 0x1B01 DUP4 SLOAD PUSH2 0x2C66 JUMP JUMPDEST PUSH1 0x1F DUP2 GT PUSH2 0x1CB4 JUMPI JUMPDEST POP PUSH1 0x20 SWAP1 PUSH1 0x1F DUP4 GT PUSH1 0x1 EQ PUSH2 0x1C25 JUMPI SWAP3 DUP3 PUSH2 0x1BA2 SWAP4 PUSH2 0x1BA8 SWAP7 SWAP4 PUSH1 0xFF SWAP10 SWAP7 PUSH1 0x0 SWAP3 PUSH2 0x1C1A JUMPI JUMPDEST POP POP DUP2 PUSH1 0x1 SHL SWAP2 PUSH1 0x0 NOT SWAP1 PUSH1 0x3 SHL SHR NOT AND OR SWAP1 SSTORE JUMPDEST PUSH2 0x1B4D PUSH2 0x3775 JUMP JUMPDEST PUSH2 0x1B55 PUSH2 0x3775 JUMP JUMPDEST PUSH2 0x1B5D PUSH2 0x3775 JUMP JUMPDEST PUSH2 0x1B65 PUSH2 0x3775 JUMP JUMPDEST PUSH1 0x0 DUP1 MLOAD PUSH1 0x20 PUSH2 0x3CB0 DUP4 CODECOPY DUP2 MLOAD SWAP2 MSTORE DUP7 NOT DUP2 SLOAD AND SWAP1 SSTORE PUSH2 0x1B83 PUSH2 0x3775 JUMP JUMPDEST PUSH2 0x1B8B PUSH2 0x3775 JUMP JUMPDEST PUSH2 0x1B93 PUSH2 0x3775 JUMP JUMPDEST PUSH2 0x1B9C DUP2 PUSH2 0x2E93 JUMP JUMPDEST POP PUSH2 0x2F21 JUMP JUMPDEST POP PUSH2 0x2FD1 JUMP JUMPDEST POP PUSH2 0x2710 PUSH1 0x2 SSTORE PUSH3 0x186A0 PUSH1 0x3 SSTORE PUSH1 0x40 SHR AND ISZERO PUSH2 0x1BC1 JUMPI STOP JUMPDEST PUSH9 0xFF0000000000000000 NOT PUSH1 0x0 DUP1 MLOAD PUSH1 0x20 PUSH2 0x3D10 DUP4 CODECOPY DUP2 MLOAD SWAP2 MSTORE SLOAD AND PUSH1 0x0 DUP1 MLOAD PUSH1 0x20 PUSH2 0x3D10 DUP4 CODECOPY DUP2 MLOAD SWAP2 MSTORE SSTORE PUSH32 0xC7F505B2F371AE2175EE4913F4499E1F2633A7B5936321EED1CDAEB6115181D2 PUSH1 0x20 PUSH1 0x40 MLOAD PUSH1 0x1 DUP2 MSTORE LOG1 STOP JUMPDEST ADD MLOAD SWAP1 POP DUP10 DUP1 PUSH2 0x1B30 JUMP JUMPDEST SWAP1 PUSH1 0x1F NOT DUP4 AND SWAP2 DUP5 PUSH1 0x0 MSTORE PUSH32 0xF4BAD0A69248F59680A4F2B3000328CEC71A413447C96781CFE5996DAA8C456E SWAP3 PUSH1 0x0 JUMPDEST DUP2 DUP2 LT PUSH2 0x1C9C JUMPI POP SWAP4 PUSH2 0x1BA8 SWAP7 SWAP4 PUSH1 0xFF SWAP10 SWAP7 SWAP4 PUSH1 0x1 SWAP4 DUP4 PUSH2 0x1BA2 SWAP9 LT PUSH2 0x1C83 JUMPI JUMPDEST POP POP POP DUP2 SHL ADD SWAP1 SSTORE PUSH2 0x1B45 JUMP JUMPDEST ADD MLOAD PUSH1 0x0 NOT PUSH1 0xF8 DUP5 PUSH1 0x3 SHL AND SHR NOT AND SWAP1 SSTORE DUP10 DUP1 DUP1 PUSH2 0x1C76 JUMP JUMPDEST SWAP3 SWAP4 PUSH1 0x20 PUSH1 0x1 DUP2 SWAP3 DUP8 DUP7 ADD MLOAD DUP2 SSTORE ADD SWAP6 ADD SWAP4 ADD PUSH2 0x1C55 JUMP JUMPDEST DUP4 PUSH1 0x0 MSTORE PUSH32 0xF4BAD0A69248F59680A4F2B3000328CEC71A413447C96781CFE5996DAA8C456E PUSH1 0x1F DUP5 ADD PUSH1 0x5 SHR DUP2 ADD SWAP2 PUSH1 0x20 DUP6 LT PUSH2 0x1D0E JUMPI JUMPDEST PUSH1 0x1F ADD PUSH1 0x5 SHR ADD SWAP1 JUMPDEST DUP2 DUP2 LT PUSH2 0x1D02 JUMPI POP PUSH2 0x1B0A JUMP JUMPDEST PUSH1 0x0 DUP2 SSTORE PUSH1 0x1 ADD PUSH2 0x1CF5 JUMP JUMPDEST SWAP1 SWAP2 POP DUP2 SWAP1 PUSH2 0x1CEC JUMP JUMPDEST ADD MLOAD SWAP1 POP DUP7 DUP1 PUSH2 0x1AA2 JUMP JUMPDEST SWAP3 POP PUSH1 0x0 DUP1 MLOAD PUSH1 0x20 PUSH2 0x3BF0 DUP4 CODECOPY DUP2 MLOAD SWAP2 MSTORE PUSH1 0x0 MSTORE PUSH1 0x0 DUP1 MLOAD PUSH1 0x20 PUSH2 0x3D30 DUP4 CODECOPY DUP2 MLOAD SWAP2 MSTORE SWAP1 PUSH1 0x0 SWAP4 JUMPDEST PUSH1 0x1F NOT DUP5 AND DUP6 LT PUSH2 0x1D9A JUMPI PUSH1 0x1 SWAP5 POP DUP4 PUSH1 0x1F NOT DUP2 AND LT PUSH2 0x1D81 JUMPI JUMPDEST POP POP POP DUP2 SHL ADD PUSH1 0x0 DUP1 MLOAD PUSH1 0x20 PUSH2 0x3BF0 DUP4 CODECOPY DUP2 MLOAD SWAP2 MSTORE SSTORE PUSH2 0x1AC5 JUMP JUMPDEST ADD MLOAD PUSH1 0x0 NOT PUSH1 0xF8 DUP5 PUSH1 0x3 SHL AND SHR NOT AND SWAP1 SSTORE DUP7 DUP1 DUP1 PUSH2 0x1D66 JUMP JUMPDEST DUP2 DUP2 ADD MLOAD DUP4 SSTORE PUSH1 0x20 SWAP5 DUP6 ADD SWAP5 PUSH1 0x1 SWAP1 SWAP4 ADD SWAP3 SWAP1 SWAP2 ADD SWAP1 PUSH2 0x1D4B JUMP JUMPDEST SWAP1 SWAP2 POP PUSH1 0x0 DUP1 MLOAD PUSH1 0x20 PUSH2 0x3BF0 DUP4 CODECOPY DUP2 MLOAD SWAP2 MSTORE PUSH1 0x0 MSTORE PUSH1 0x1F DUP4 ADD PUSH1 0x5 SHR PUSH1 0x0 DUP1 MLOAD PUSH1 0x20 PUSH2 0x3D30 DUP4 CODECOPY DUP2 MLOAD SWAP2 MSTORE ADD PUSH1 0x20 DUP5 LT PUSH2 0x1E21 JUMPI JUMPDEST SWAP1 DUP4 SWAP3 SWAP2 JUMPDEST PUSH1 0x1F DUP3 ADD PUSH1 0x5 SHR PUSH1 0x0 DUP1 MLOAD PUSH1 0x20 PUSH2 0x3D30 DUP4 CODECOPY DUP2 MLOAD SWAP2 MSTORE ADD DUP2 LT PUSH2 0x1E12 JUMPI POP PUSH2 0x1A8B JUMP JUMPDEST PUSH1 0x0 DUP2 SSTORE DUP5 SWAP4 POP PUSH1 0x1 ADD PUSH2 0x1DEF JUMP JUMPDEST POP PUSH1 0x0 DUP1 MLOAD PUSH1 0x20 PUSH2 0x3D30 DUP4 CODECOPY DUP2 MLOAD SWAP2 MSTORE PUSH2 0x1DEA JUMP JUMPDEST PUSH9 0xFFFFFFFFFFFFFFFFFF NOT DUP3 AND PUSH9 0x10000000000000001 OR PUSH1 0x0 DUP1 MLOAD PUSH1 0x20 PUSH2 0x3D10 DUP4 CODECOPY DUP2 MLOAD SWAP2 MSTORE SSTORE PUSH2 0x1A05 JUMP JUMPDEST PUSH1 0x40 MLOAD PUSH4 0xF92EE8A9 PUSH1 0xE0 SHL DUP2 MSTORE PUSH1 0x4 SWAP1 REVERT JUMPDEST SWAP1 POP ISZERO DUP5 PUSH2 0x19D5 JUMP JUMPDEST ADDRESS EXTCODESIZE ISZERO SWAP2 POP PUSH2 0x19CD JUMP JUMPDEST PUSH1 0x40 DUP5 SWAP1 SHR PUSH1 0xFF AND ISZERO SWAP2 POP PUSH2 0x19C3 JUMP JUMPDEST CALLVALUE PUSH2 0x280 JUMPI PUSH1 0x20 DUP1 PUSH1 0x3 NOT CALLDATASIZE ADD SLT PUSH2 0x280 JUMPI PUSH1 0x4 CALLDATALOAD SWAP1 DUP2 PUSH1 0x0 MSTORE PUSH1 0x1 DUP2 MSTORE PUSH1 0xFF PUSH1 0x5 PUSH1 0x40 PUSH1 0x0 KECCAK256 ADD SLOAD PUSH1 0x8 SHR AND ISZERO PUSH2 0x21E1 JUMPI PUSH2 0x1ED2 PUSH2 0x37A4 JUMP JUMPDEST PUSH1 0x0 DUP3 DUP2 MSTORE PUSH1 0x0 DUP1 MLOAD PUSH1 0x20 PUSH2 0x3CD0 DUP4 CODECOPY DUP2 MLOAD SWAP2 MSTORE DUP1 DUP4 MSTORE PUSH1 0x40 SWAP1 SWAP2 KECCAK256 SLOAD PUSH1 0x1 PUSH1 0x1 PUSH1 0xA0 SHL SUB SWAP1 DUP2 AND SWAP2 SWAP1 CALLER ISZERO ISZERO SWAP1 DUP2 PUSH2 0x212F JUMPI JUMPDEST POP POP DUP2 ISZERO DUP1 ISZERO SWAP2 DUP3 PUSH2 0x2110 JUMPI JUMPDEST DUP6 PUSH1 0x0 MSTORE DUP5 MSTORE PUSH1 0x40 PUSH1 0x0 KECCAK256 PUSH12 0xFFFFFFFFFFFFFFFFFFFFFFFF PUSH1 0xA0 SHL DUP2 SLOAD AND SWAP1 SSTORE DUP5 PUSH1 0x0 DUP5 PUSH1 0x0 DUP1 MLOAD PUSH1 0x20 PUSH2 0x3C50 DUP4 CODECOPY DUP2 MLOAD SWAP2 MSTORE DUP3 DUP1 LOG4 ISZERO PUSH2 0x204B JUMPI POP POP PUSH1 0x0 DUP1 MLOAD PUSH1 0x20 PUSH2 0x3C30 DUP4 CODECOPY DUP2 MLOAD SWAP2 MSTORE DUP1 SLOAD DUP4 PUSH1 0x0 MSTORE PUSH1 0x0 DUP1 MLOAD PUSH1 0x20 PUSH2 0x3C10 DUP4 CODECOPY DUP2 MLOAD SWAP2 MSTORE DUP4 MSTORE DUP1 PUSH1 0x40 PUSH1 0x0 KECCAK256 SSTORE PUSH1 0x1 PUSH1 0x40 SHL DUP2 LT ISZERO PUSH2 0xAB1 JUMPI PUSH2 0x8AE DUP2 PUSH2 0x1F9D SWAP4 PUSH1 0x1 DUP8 SWAP5 ADD SWAP1 SSTORE PUSH2 0x36B9 JUMP JUMPDEST PUSH1 0x0 DUP1 MLOAD PUSH1 0x20 PUSH2 0x3C30 DUP4 CODECOPY DUP2 MLOAD SWAP2 MSTORE SWAP2 DUP3 SLOAD PUSH1 0x0 NOT SWAP3 DUP4 DUP3 ADD SWAP2 DUP3 GT PUSH2 0xC5B JUMPI DUP3 PUSH1 0x0 MSTORE PUSH1 0x0 DUP1 MLOAD PUSH1 0x20 PUSH2 0x3C10 DUP4 CODECOPY DUP2 MLOAD SWAP2 MSTORE SWAP1 DUP2 DUP2 MSTORE PUSH2 0x1FE3 PUSH1 0x40 PUSH1 0x0 KECCAK256 SLOAD SWAP4 PUSH2 0x36B9 JUMP JUMPDEST SWAP1 SLOAD SWAP1 PUSH1 0x3 SHL SHR PUSH2 0x1FF7 DUP2 PUSH2 0x8AE DUP7 PUSH2 0x36B9 JUMP JUMPDEST PUSH1 0x0 MSTORE MSTORE PUSH1 0x40 PUSH1 0x0 KECCAK256 SSTORE PUSH1 0x0 MSTORE PUSH1 0x0 PUSH1 0x40 DUP2 KECCAK256 SSTORE DUP2 SLOAD DUP1 ISZERO PUSH2 0x2035 JUMPI ADD SWAP1 PUSH2 0x2032 PUSH2 0x2021 DUP4 PUSH2 0x36B9 JUMP JUMPDEST DUP2 SLOAD SWAP1 PUSH1 0x0 NOT SWAP1 PUSH1 0x3 SHL SHL NOT AND SWAP1 SSTORE JUMP JUMPDEST SSTORE STOP JUMPDEST PUSH4 0x4E487B71 PUSH1 0xE0 SHL PUSH1 0x0 MSTORE PUSH1 0x31 PUSH1 0x4 MSTORE PUSH1 0x24 PUSH1 0x0 REVERT JUMPDEST PUSH2 0x2056 JUMPI JUMPDEST POP PUSH2 0x1F9D JUMP JUMPDEST PUSH2 0x205F DUP2 PUSH2 0x3173 JUMP JUMPDEST SWAP1 DUP4 PUSH1 0x0 MSTORE PUSH1 0x0 DUP1 MLOAD PUSH1 0x20 PUSH2 0x3BB0 DUP4 CODECOPY DUP2 MLOAD SWAP2 MSTORE DUP1 DUP5 MSTORE PUSH1 0x40 PUSH1 0x0 KECCAK256 SLOAD SWAP1 DUP4 DUP3 SUB PUSH2 0x20BE JUMPI JUMPDEST POP POP DUP4 PUSH1 0x0 MSTORE PUSH1 0x0 PUSH1 0x40 DUP2 KECCAK256 SSTORE PUSH1 0x0 MSTORE PUSH1 0x0 DUP1 MLOAD PUSH1 0x20 PUSH2 0x3BD0 DUP4 CODECOPY DUP2 MLOAD SWAP2 MSTORE DUP3 MSTORE PUSH1 0x40 PUSH1 0x0 KECCAK256 SWAP1 PUSH1 0x0 MSTORE DUP2 MSTORE PUSH1 0x0 PUSH1 0x40 DUP2 KECCAK256 SSTORE DUP3 PUSH2 0x2050 JUMP JUMPDEST DUP3 PUSH1 0x0 MSTORE PUSH1 0x0 DUP1 MLOAD PUSH1 0x20 PUSH2 0x3BD0 DUP4 CODECOPY DUP2 MLOAD SWAP2 MSTORE DUP1 DUP7 MSTORE PUSH1 0x40 PUSH1 0x0 KECCAK256 DUP6 PUSH1 0x0 MSTORE DUP7 MSTORE PUSH1 0x40 PUSH1 0x0 KECCAK256 SLOAD SWAP1 DUP5 PUSH1 0x0 MSTORE DUP7 MSTORE PUSH1 0x40 PUSH1 0x0 KECCAK256 DUP4 PUSH1 0x0 MSTORE DUP7 MSTORE DUP1 PUSH1 0x40 PUSH1 0x0 KECCAK256 SSTORE PUSH1 0x0 MSTORE DUP5 MSTORE PUSH1 0x40 PUSH1 0x0 KECCAK256 SSTORE DUP5 DUP1 PUSH2 0x2085 JUMP JUMPDEST PUSH2 0x2119 DUP7 PUSH2 0x34F9 JUMP JUMPDEST PUSH2 0x2122 DUP5 PUSH2 0x2D6F JUMP JUMPDEST DUP1 SLOAD PUSH1 0x0 NOT ADD SWAP1 SSTORE PUSH2 0x1F13 JUMP JUMPDEST DUP2 PUSH2 0x2180 JUMPI JUMPDEST POP ISZERO PUSH2 0x2142 JUMPI DUP5 DUP1 PUSH2 0x1F06 JUMP JUMPDEST DUP4 DUP3 PUSH2 0x2160 JUMPI PUSH1 0x24 SWAP1 PUSH1 0x40 MLOAD SWAP1 PUSH4 0x7E273289 PUSH1 0xE0 SHL DUP3 MSTORE PUSH1 0x4 DUP3 ADD MSTORE REVERT JUMPDEST PUSH1 0x40 MLOAD PUSH4 0x177E802F PUSH1 0xE0 SHL DUP2 MSTORE CALLER PUSH1 0x4 DUP3 ADD MSTORE PUSH1 0x24 DUP2 ADD SWAP2 SWAP1 SWAP2 MSTORE PUSH1 0x44 SWAP1 REVERT JUMPDEST CALLER DUP5 EQ SWAP2 POP DUP2 ISZERO PUSH2 0x21C1 JUMPI JUMPDEST DUP2 ISZERO PUSH2 0x219A JUMPI JUMPDEST POP DUP6 PUSH2 0x2135 JUMP JUMPDEST SWAP1 POP DUP5 PUSH1 0x0 MSTORE PUSH1 0x0 DUP1 MLOAD PUSH1 0x20 PUSH2 0x3CF0 DUP4 CODECOPY DUP2 MLOAD SWAP2 MSTORE DUP5 MSTORE CALLER SWAP1 PUSH1 0x40 PUSH1 0x0 KECCAK256 SLOAD AND EQ DUP6 PUSH2 0x2193 JUMP JUMPDEST SWAP1 POP PUSH2 0x21CC DUP4 PUSH2 0x2D36 JUMP JUMPDEST CALLER PUSH1 0x0 MSTORE DUP5 MSTORE PUSH1 0xFF PUSH1 0x40 PUSH1 0x0 KECCAK256 SLOAD AND SWAP1 PUSH2 0x218C JUMP JUMPDEST PUSH1 0x84 SWAP1 PUSH1 0x40 MLOAD SWAP1 PUSH3 0x461BCD PUSH1 0xE5 SHL DUP3 MSTORE PUSH1 0x4 DUP3 ADD MSTORE PUSH1 0x22 PUSH1 0x24 DUP3 ADD MSTORE PUSH1 0x0 DUP1 MLOAD PUSH1 0x20 PUSH2 0x3C90 DUP4 CODECOPY DUP2 MLOAD SWAP2 MSTORE PUSH1 0x44 DUP3 ADD MSTORE PUSH2 0x6C65 PUSH1 0xF0 SHL PUSH1 0x64 DUP3 ADD MSTORE REVERT JUMPDEST CALLVALUE PUSH2 0x280 JUMPI PUSH2 0x35A PUSH2 0x222F CALLDATASIZE PUSH2 0x2B78 JUMP JUMPDEST SWAP1 PUSH1 0x40 MLOAD SWAP3 PUSH2 0x223D DUP5 PUSH2 0x2BAD JUMP JUMPDEST PUSH1 0x0 DUP5 MSTORE PUSH2 0x4C3 DUP4 DUP4 DUP4 PUSH2 0x31A8 JUMP JUMPDEST CALLVALUE PUSH2 0x280 JUMPI PUSH1 0x20 CALLDATASIZE PUSH1 0x3 NOT ADD SLT PUSH2 0x280 JUMPI PUSH2 0x2265 PUSH2 0x2DA8 JUMP JUMPDEST PUSH1 0x4 CALLDATALOAD PUSH1 0x3 SSTORE STOP JUMPDEST CALLVALUE PUSH2 0x280 JUMPI PUSH1 0x40 CALLDATASIZE PUSH1 0x3 NOT ADD SLT PUSH2 0x280 JUMPI PUSH1 0x4 CALLDATALOAD PUSH2 0x2289 PUSH2 0x2B62 JUMP JUMPDEST SWAP1 PUSH2 0x2293 DUP2 PUSH2 0x352A JUMP JUMPDEST PUSH1 0x1 PUSH1 0x1 PUSH1 0xA0 SHL SUB SWAP1 CALLER SWAP1 DUP3 AND SUB PUSH2 0x2369 JUMPI DUP2 PUSH1 0x0 MSTORE PUSH1 0x1 SWAP3 PUSH1 0x20 DUP5 DUP2 MSTORE PUSH2 0x22C1 PUSH1 0x40 PUSH1 0x0 KECCAK256 SLOAD TIMESTAMP LT PUSH2 0x3814 JUMP JUMPDEST DUP4 PUSH1 0x0 MSTORE DUP5 DUP2 MSTORE PUSH1 0xFF PUSH1 0x2 PUSH1 0x40 PUSH1 0x0 KECCAK256 ADD SLOAD PUSH1 0xA0 SHR AND PUSH1 0x4 DUP2 LT ISZERO PUSH2 0xE66 JUMPI DUP6 PUSH2 0x22EB SWAP2 EQ PUSH2 0x3860 JUMP JUMPDEST PUSH1 0x0 DUP5 DUP2 MSTORE DUP6 DUP3 MSTORE PUSH1 0x40 SWAP1 KECCAK256 PUSH1 0x2 DUP2 ADD DUP1 SLOAD PUSH1 0xFF PUSH1 0xA0 SHL NOT DUP2 AND PUSH1 0x1 PUSH1 0xA1 SHL OR SWAP1 SWAP2 SSTORE DUP7 SWAP2 SWAP1 DUP6 AND ISZERO PUSH2 0x14E7 JUMPI POP POP PUSH1 0x0 DUP5 DUP2 MSTORE DUP6 DUP3 MSTORE PUSH1 0x40 DUP1 DUP3 KECCAK256 PUSH1 0x2 DUP2 ADD SLOAD SWAP1 DUP9 ADD SLOAD SWAP2 MLOAD PUSH4 0xA9059CBB PUSH1 0xE0 SHL DUP2 MSTORE PUSH1 0x1 PUSH1 0x1 PUSH1 0xA0 SHL SUB DUP7 AND PUSH1 0x4 DUP3 ADD MSTORE PUSH1 0x24 DUP2 ADD SWAP3 SWAP1 SWAP3 MSTORE SWAP1 SWAP2 DUP4 SWAP2 DUP4 SWAP2 SWAP1 DUP8 AND SWAP1 DUP3 SWAP1 DUP2 PUSH1 0x44 DUP2 ADD PUSH2 0x142E JUMP JUMPDEST PUSH1 0x40 MLOAD PUSH3 0x461BCD PUSH1 0xE5 SHL DUP2 MSTORE PUSH1 0x20 PUSH1 0x4 DUP3 ADD MSTORE PUSH1 0x15 PUSH1 0x24 DUP3 ADD MSTORE PUSH21 0x2A37B5B2B72A3932B0BA1D103737BA1037BBB732B9 PUSH1 0x59 SHL PUSH1 0x44 DUP3 ADD MSTORE PUSH1 0x64 SWAP1 REVERT JUMPDEST CALLVALUE PUSH2 0x280 JUMPI PUSH1 0x0 CALLDATASIZE PUSH1 0x3 NOT ADD SLT PUSH2 0x280 JUMPI PUSH2 0x23BF PUSH2 0x2E04 JUMP JUMPDEST PUSH1 0x0 DUP1 MLOAD PUSH1 0x20 PUSH2 0x3CB0 DUP4 CODECOPY DUP2 MLOAD SWAP2 MSTORE DUP1 SLOAD PUSH1 0xFF DUP2 AND ISZERO PUSH2 0x240B JUMPI PUSH1 0xFF NOT AND SWAP1 SSTORE PUSH32 0x5DB9EE0A495BF2E6FF9C91A7834C1BA4FDD244A5E8AA4E537BD38AEAE4B073AA PUSH1 0x20 PUSH1 0x40 MLOAD CALLER DUP2 MSTORE LOG1 STOP JUMPDEST PUSH1 0x40 MLOAD PUSH4 0x8DFC202B PUSH1 0xE0 SHL DUP2 MSTORE PUSH1 0x4 SWAP1 REVERT JUMPDEST CALLVALUE PUSH2 0x280 JUMPI PUSH1 0x40 CALLDATASIZE PUSH1 0x3 NOT ADD SLT PUSH2 0x280 JUMPI PUSH2 0x2436 PUSH2 0x2B62 JUMP JUMPDEST CALLER PUSH1 0x1 PUSH1 0x1 PUSH1 0xA0 SHL SUB DUP3 AND SUB PUSH2 0x2452 JUMPI PUSH2 0x35A SWAP1 PUSH1 0x4 CALLDATALOAD PUSH2 0x30F0 JUMP JUMPDEST PUSH1 0x40 MLOAD PUSH4 0x334BD919 PUSH1 0xE1 SHL DUP2 MSTORE PUSH1 0x4 SWAP1 REVERT JUMPDEST CALLVALUE PUSH2 0x280 JUMPI PUSH1 0x40 CALLDATASIZE PUSH1 0x3 NOT ADD SLT PUSH2 0x280 JUMPI PUSH2 0x247D PUSH2 0x2B4C JUMP JUMPDEST PUSH1 0x24 CALLDATALOAD SWAP1 PUSH2 0x248A DUP2 PUSH2 0x3173 JUMP JUMPDEST DUP3 LT ISZERO PUSH2 0x24CA JUMPI PUSH1 0x1 DUP1 PUSH1 0xA0 SHL SUB AND PUSH1 0x0 MSTORE PUSH1 0x0 DUP1 MLOAD PUSH1 0x20 PUSH2 0x3BD0 DUP4 CODECOPY DUP2 MLOAD SWAP2 MSTORE PUSH1 0x20 MSTORE PUSH1 0x40 PUSH1 0x0 KECCAK256 SWAP1 PUSH1 0x0 MSTORE PUSH1 0x20 MSTORE PUSH1 0x20 PUSH1 0x40 PUSH1 0x0 KECCAK256 SLOAD PUSH1 0x40 MLOAD SWAP1 DUP2 MSTORE RETURN JUMPDEST PUSH1 0x40 MLOAD PUSH4 0x295F44F7 PUSH1 0xE2 SHL DUP2 MSTORE PUSH1 0x1 PUSH1 0x1 PUSH1 0xA0 SHL SUB SWAP2 SWAP1 SWAP2 AND PUSH1 0x4 DUP3 ADD MSTORE PUSH1 0x24 DUP2 ADD SWAP2 SWAP1 SWAP2 MSTORE PUSH1 0x44 SWAP1 REVERT JUMPDEST CALLVALUE PUSH2 0x280 JUMPI PUSH1 0x40 CALLDATASIZE PUSH1 0x3 NOT ADD SLT PUSH2 0x280 JUMPI PUSH2 0x35A PUSH1 0x4 CALLDATALOAD PUSH2 0x2514 PUSH2 0x2B62 JUMP JUMPDEST SWAP1 DUP1 PUSH1 0x0 MSTORE PUSH1 0x0 DUP1 MLOAD PUSH1 0x20 PUSH2 0x3C70 DUP4 CODECOPY DUP2 MLOAD SWAP2 MSTORE PUSH1 0x20 MSTORE PUSH2 0x253C PUSH1 0x1 PUSH1 0x40 PUSH1 0x0 KECCAK256 ADD SLOAD PUSH2 0x2E60 JUMP JUMPDEST PUSH2 0x307B JUMP JUMPDEST CALLVALUE PUSH2 0x280 JUMPI PUSH1 0x0 CALLDATASIZE PUSH1 0x3 NOT ADD SLT PUSH2 0x280 JUMPI PUSH1 0x20 PUSH1 0x2 SLOAD PUSH1 0x40 MLOAD SWAP1 DUP2 MSTORE RETURN JUMPDEST CALLVALUE PUSH2 0x280 JUMPI PUSH1 0x20 CALLDATASIZE PUSH1 0x3 NOT ADD SLT PUSH2 0x280 JUMPI PUSH1 0x4 CALLDATALOAD PUSH1 0x0 MSTORE PUSH1 0x0 DUP1 MLOAD PUSH1 0x20 PUSH2 0x3C70 DUP4 CODECOPY DUP2 MLOAD SWAP2 MSTORE PUSH1 0x20 MSTORE PUSH1 0x20 PUSH1 0x1 PUSH1 0x40 PUSH1 0x0 KECCAK256 ADD SLOAD PUSH1 0x40 MLOAD SWAP1 DUP2 MSTORE RETURN JUMPDEST CALLVALUE PUSH2 0x280 JUMPI PUSH2 0x35A PUSH2 0x25AC CALLDATASIZE PUSH2 0x2B78 JUMP JUMPDEST SWAP2 PUSH2 0x31A8 JUMP JUMPDEST CALLVALUE PUSH2 0x280 JUMPI PUSH1 0x0 CALLDATASIZE PUSH1 0x3 NOT ADD SLT PUSH2 0x280 JUMPI PUSH1 0x20 PUSH1 0x0 DUP1 MLOAD PUSH1 0x20 PUSH2 0x3C30 DUP4 CODECOPY DUP2 MLOAD SWAP2 MSTORE SLOAD PUSH1 0x40 MLOAD SWAP1 DUP2 MSTORE RETURN JUMPDEST CALLVALUE PUSH2 0x280 JUMPI PUSH1 0x20 CALLDATASIZE PUSH1 0x3 NOT ADD SLT PUSH2 0x280 JUMPI PUSH2 0x25F6 PUSH2 0x2DA8 JUMP JUMPDEST PUSH1 0x4 CALLDATALOAD PUSH1 0x2 SSTORE STOP JUMPDEST CALLVALUE PUSH2 0x280 JUMPI PUSH1 0x20 DUP1 PUSH1 0x3 NOT CALLDATASIZE ADD SLT PUSH2 0x280 JUMPI PUSH1 0x4 CALLDATALOAD SWAP1 DUP2 PUSH1 0x0 MSTORE PUSH1 0x1 SWAP1 DUP2 DUP2 MSTORE PUSH2 0x262E PUSH1 0x40 PUSH1 0x0 KECCAK256 SLOAD TIMESTAMP LT PUSH2 0x3814 JUMP JUMPDEST DUP3 PUSH1 0x0 MSTORE DUP2 DUP2 MSTORE PUSH1 0xFF PUSH1 0x2 PUSH1 0x40 PUSH1 0x0 KECCAK256 ADD SLOAD PUSH1 0xA0 SHR AND PUSH1 0x4 DUP2 LT ISZERO PUSH2 0xE66 JUMPI DUP3 PUSH2 0x2658 SWAP2 EQ PUSH2 0x3860 JUMP JUMPDEST PUSH1 0x0 DUP4 DUP2 MSTORE DUP3 DUP3 MSTORE PUSH1 0x40 SWAP1 KECCAK256 PUSH1 0x2 DUP2 ADD DUP1 SLOAD PUSH1 0xFF PUSH1 0xA0 SHL NOT AND PUSH1 0x3 PUSH1 0xA0 SHL OR SWAP1 SSTORE DUP3 ADD SLOAD PUSH1 0x3 SLOAD PUSH2 0x2710 SWAP2 PUSH2 0x268D SWAP2 SWAP1 PUSH2 0x37CF JUMP JUMPDEST DIV SWAP1 PUSH2 0x269B DUP3 PUSH1 0x5 SLOAD PUSH2 0x37E2 JUMP JUMPDEST PUSH1 0x5 SSTORE DUP4 PUSH1 0x0 MSTORE DUP3 DUP2 MSTORE PUSH2 0x26B6 DUP3 DUP5 PUSH1 0x40 PUSH1 0x0 KECCAK256 ADD SLOAD PUSH2 0x3807 JUMP JUMPDEST PUSH1 0x0 DUP6 DUP2 MSTORE DUP5 DUP4 MSTORE PUSH1 0x40 SWAP1 KECCAK256 PUSH1 0x2 DUP2 ADD SLOAD PUSH1 0x1 PUSH1 0x1 PUSH1 0xA0 SHL SUB SWAP3 SWAP2 DUP4 SWAP2 DUP3 AND ISZERO PUSH2 0x2809 JUMPI POP POP PUSH1 0x0 DUP7 DUP2 MSTORE DUP6 DUP5 MSTORE PUSH1 0x40 SWAP1 DUP2 SWAP1 KECCAK256 PUSH1 0x2 DUP2 ADD SLOAD PUSH1 0x3 SWAP1 SWAP2 ADD SLOAD SWAP2 MLOAD PUSH4 0xA9059CBB PUSH1 0xE0 SHL DUP1 DUP3 MSTORE SWAP3 DUP6 AND PUSH1 0x1 PUSH1 0x1 PUSH1 0xA0 SHL SUB AND PUSH1 0x4 DUP3 ADD MSTORE PUSH1 0x24 DUP2 ADD SWAP4 SWAP1 SWAP4 MSTORE DUP4 AND SWAP2 SWAP1 DUP5 DUP3 DUP1 PUSH1 0x44 DUP2 ADD SUB DUP2 PUSH1 0x0 DUP8 GAS CALL SWAP2 DUP3 ISZERO PUSH2 0xEAA JUMPI DUP6 SWAP3 PUSH2 0x27EC JUMPI JUMPDEST POP PUSH1 0x40 MLOAD SWAP1 DUP2 MSTORE CALLER PUSH1 0x4 DUP3 ADD MSTORE PUSH1 0x24 DUP2 ADD DUP7 SWAP1 MSTORE SWAP2 DUP3 SWAP1 PUSH1 0x44 SWAP1 DUP3 SWAP1 PUSH1 0x0 SWAP1 GAS CALL DUP1 ISZERO PUSH2 0xEAA JUMPI PUSH2 0x27CF JUMPI JUMPDEST POP JUMPDEST PUSH2 0x2772 DUP6 PUSH2 0x38EF JUMP JUMPDEST PUSH1 0x7 SLOAD DUP5 DUP2 ADD DUP1 SWAP2 GT PUSH2 0xC5B JUMPI PUSH1 0x7 SSTORE DUP5 PUSH1 0x0 MSTORE DUP4 DUP3 MSTORE PUSH1 0x2 PUSH1 0x40 PUSH1 0x0 KECCAK256 SWAP5 DUP6 ADD SLOAD SWAP5 ADD SLOAD AND SWAP1 PUSH1 0x40 MLOAD SWAP4 DUP5 MSTORE DUP4 ADD MSTORE PUSH1 0x40 DUP3 ADD MSTORE PUSH32 0x839FF367FFB7FF50B52FD014700A49F0D68C1F2D4EA4363CBE912BD7EAAF4870 PUSH1 0x60 CALLER SWAP3 LOG3 STOP JUMPDEST PUSH2 0x27E5 SWAP1 DUP4 RETURNDATASIZE DUP6 GT PUSH2 0xEA3 JUMPI PUSH2 0xE94 DUP2 DUP4 PUSH2 0x2BE3 JUMP JUMPDEST POP DUP6 PUSH2 0x2767 JUMP JUMPDEST PUSH2 0x2802 SWAP1 DUP4 RETURNDATASIZE DUP6 GT PUSH2 0xEA3 JUMPI PUSH2 0xE94 DUP2 DUP4 PUSH2 0x2BE3 JUMP JUMPDEST POP DUP9 PUSH2 0x273B JUMP JUMPDEST PUSH1 0x0 DUP1 SWAP4 DUP2 SWAP4 PUSH1 0x3 DUP4 SWAP5 ADD SLOAD AND DUP3 DUP3 ISZERO PUSH2 0x2851 JUMPI JUMPDEST CALL ISZERO PUSH2 0xEAA JUMPI DUP3 PUSH1 0x0 DUP2 ISZERO PUSH2 0x2848 JUMPI JUMPDEST PUSH1 0x0 DUP1 DUP1 SWAP4 DUP2 SWAP4 CALLER SWAP1 CALL PUSH2 0x2769 JUMPI PUSH1 0x40 MLOAD RETURNDATASIZE PUSH1 0x0 DUP3 RETURNDATACOPY RETURNDATASIZE SWAP1 REVERT JUMPDEST POP PUSH2 0x8FC PUSH2 0x282E JUMP JUMPDEST POP PUSH2 0x8FC PUSH2 0x281E JUMP JUMPDEST CALLVALUE PUSH2 0x280 JUMPI PUSH1 0x20 CALLDATASIZE PUSH1 0x3 NOT ADD SLT PUSH2 0x280 JUMPI PUSH1 0x20 PUSH2 0x2710 PUSH2 0x3BB PUSH1 0x2 SLOAD PUSH1 0x4 CALLDATALOAD PUSH2 0x37CF JUMP JUMPDEST CALLVALUE PUSH2 0x280 JUMPI PUSH1 0x40 CALLDATASIZE PUSH1 0x3 NOT ADD SLT PUSH2 0x280 JUMPI PUSH2 0x2897 PUSH2 0x2B4C JUMP JUMPDEST PUSH1 0x24 CALLDATALOAD PUSH2 0x28A3 DUP2 PUSH2 0x352A JUMP JUMPDEST CALLER ISZERO ISZERO DUP1 PUSH2 0x2952 JUMPI JUMPDEST DUP1 PUSH2 0x2932 JUMPI JUMPDEST PUSH2 0x291A JUMPI PUSH1 0x1 PUSH1 0x1 PUSH1 0xA0 SHL SUB SWAP3 DUP4 AND SWAP3 DUP3 SWAP2 DUP5 SWAP2 AND PUSH32 0x8C5BE1E5EBEC7D5BD14F71427D1E84F3DD0314C0F7B2291E5B200AC8C7C3B925 PUSH1 0x0 DUP1 LOG4 PUSH1 0x0 SWAP1 DUP2 MSTORE PUSH1 0x0 DUP1 MLOAD PUSH1 0x20 PUSH2 0x3CF0 DUP4 CODECOPY DUP2 MLOAD SWAP2 MSTORE PUSH1 0x20 MSTORE PUSH1 0x40 SWAP1 KECCAK256 DUP1 SLOAD PUSH1 0x1 PUSH1 0x1 PUSH1 0xA0 SHL SUB NOT AND SWAP1 SWAP2 OR SWAP1 SSTORE STOP JUMPDEST PUSH1 0x40 MLOAD PUSH4 0xA9FBF51F PUSH1 0xE0 SHL DUP2 MSTORE CALLER PUSH1 0x4 DUP3 ADD MSTORE PUSH1 0x24 SWAP1 REVERT JUMPDEST POP PUSH2 0x293C DUP2 PUSH2 0x2D36 JUMP JUMPDEST CALLER PUSH1 0x0 MSTORE PUSH1 0x20 MSTORE PUSH1 0xFF PUSH1 0x40 PUSH1 0x0 KECCAK256 SLOAD AND ISZERO PUSH2 0x28B2 JUMP JUMPDEST POP PUSH1 0x1 PUSH1 0x1 PUSH1 0xA0 SHL SUB DUP2 AND CALLER EQ ISZERO PUSH2 0x28AC JUMP JUMPDEST CALLVALUE PUSH2 0x280 JUMPI PUSH1 0x20 CALLDATASIZE PUSH1 0x3 NOT ADD SLT PUSH2 0x280 JUMPI PUSH1 0x4 CALLDATALOAD PUSH2 0x2982 DUP2 PUSH2 0x352A JUMP JUMPDEST POP PUSH1 0x0 MSTORE PUSH1 0x0 DUP1 MLOAD PUSH1 0x20 PUSH2 0x3CF0 DUP4 CODECOPY DUP2 MLOAD SWAP2 MSTORE PUSH1 0x20 MSTORE PUSH1 0x20 PUSH1 0x1 DUP1 PUSH1 0xA0 SHL SUB PUSH1 0x40 PUSH1 0x0 KECCAK256 SLOAD AND PUSH1 0x40 MLOAD SWAP1 DUP2 MSTORE RETURN JUMPDEST CALLVALUE PUSH2 0x280 JUMPI PUSH1 0x0 CALLDATASIZE PUSH1 0x3 NOT ADD SLT PUSH2 0x280 JUMPI PUSH1 0x40 MLOAD PUSH1 0x0 PUSH1 0x0 DUP1 MLOAD PUSH1 0x20 PUSH2 0x3BF0 DUP4 CODECOPY DUP2 MLOAD SWAP2 MSTORE DUP1 SLOAD PUSH2 0x29E0 DUP2 PUSH2 0x2C66 JUMP JUMPDEST DUP1 DUP6 MSTORE SWAP2 PUSH1 0x1 SWAP2 DUP1 DUP4 AND SWAP1 DUP2 ISZERO PUSH2 0x1250 JUMPI POP PUSH1 0x1 EQ PUSH2 0x2A09 JUMPI PUSH2 0x44D DUP6 PUSH2 0x11E0 DUP2 DUP8 SUB DUP3 PUSH2 0x2BE3 JUMP JUMPDEST PUSH1 0x0 SWAP1 DUP2 MSTORE SWAP3 POP PUSH1 0x0 DUP1 MLOAD PUSH1 0x20 PUSH2 0x3D30 DUP4 CODECOPY DUP2 MLOAD SWAP2 MSTORE JUMPDEST DUP3 DUP5 LT PUSH2 0x2A3B JUMPI POP POP POP DUP2 ADD PUSH1 0x20 ADD PUSH2 0x11E0 DUP3 PUSH2 0x44D PUSH2 0x11D0 JUMP JUMPDEST DUP1 SLOAD PUSH1 0x20 DUP6 DUP8 ADD DUP2 ADD SWAP2 SWAP1 SWAP2 MSTORE SWAP1 SWAP4 ADD SWAP3 DUP2 ADD PUSH2 0x2A20 JUMP JUMPDEST CALLVALUE PUSH2 0x280 JUMPI PUSH1 0x20 CALLDATASIZE PUSH1 0x3 NOT ADD SLT PUSH2 0x280 JUMPI PUSH1 0x4 CALLDATALOAD SWAP1 PUSH4 0xFFFFFFFF PUSH1 0xE0 SHL DUP3 AND DUP1 SWAP3 SUB PUSH2 0x280 JUMPI PUSH1 0x20 SWAP2 PUSH4 0x7965DB0B PUSH1 0xE0 SHL DUP2 EQ SWAP1 DUP2 ISZERO PUSH2 0x2A95 JUMPI JUMPDEST POP ISZERO ISZERO DUP2 MSTORE RETURN JUMPDEST PUSH4 0x24832483 PUSH1 0xE1 SHL DUP2 EQ SWAP2 POP DUP2 ISZERO PUSH2 0x2AAF JUMPI JUMPDEST POP DUP4 PUSH2 0x2A8E JUMP JUMPDEST PUSH4 0x780E9D63 PUSH1 0xE0 SHL DUP2 EQ SWAP2 POP DUP2 ISZERO PUSH2 0x2AC9 JUMPI JUMPDEST POP DUP4 PUSH2 0x2AA8 JUMP JUMPDEST PUSH4 0x80AC58CD PUSH1 0xE0 SHL DUP2 EQ SWAP2 POP DUP2 ISZERO PUSH2 0x2AFB JUMPI JUMPDEST DUP2 ISZERO PUSH2 0x2AEA JUMPI JUMPDEST POP DUP4 PUSH2 0x2AC2 JUMP JUMPDEST PUSH4 0x1FFC9A7 PUSH1 0xE0 SHL EQ SWAP1 POP DUP4 PUSH2 0x2AE3 JUMP JUMPDEST PUSH4 0x5B5E139F PUSH1 0xE0 SHL DUP2 EQ SWAP2 POP PUSH2 0x2ADC JUMP JUMPDEST SWAP2 SWAP1 DUP3 MLOAD SWAP3 DUP4 DUP3 MSTORE PUSH1 0x0 JUMPDEST DUP5 DUP2 LT PUSH2 0x2B38 JUMPI POP POP DUP3 PUSH1 0x0 PUSH1 0x20 DUP1 SWAP5 SWAP6 DUP5 ADD ADD MSTORE PUSH1 0x1F DUP1 NOT SWAP2 ADD AND ADD ADD SWAP1 JUMP JUMPDEST PUSH1 0x20 DUP2 DUP4 ADD DUP2 ADD MLOAD DUP5 DUP4 ADD DUP3 ADD MSTORE ADD PUSH2 0x2B17 JUMP JUMPDEST PUSH1 0x4 CALLDATALOAD SWAP1 PUSH1 0x1 PUSH1 0x1 PUSH1 0xA0 SHL SUB DUP3 AND DUP3 SUB PUSH2 0x280 JUMPI JUMP JUMPDEST PUSH1 0x24 CALLDATALOAD SWAP1 PUSH1 0x1 PUSH1 0x1 PUSH1 0xA0 SHL SUB DUP3 AND DUP3 SUB PUSH2 0x280 JUMPI JUMP JUMPDEST PUSH1 0x60 SWAP1 PUSH1 0x3 NOT ADD SLT PUSH2 0x280 JUMPI PUSH1 0x1 PUSH1 0x1 PUSH1 0xA0 SHL SUB SWAP1 PUSH1 0x4 CALLDATALOAD DUP3 DUP2 AND DUP2 SUB PUSH2 0x280 JUMPI SWAP2 PUSH1 0x24 CALLDATALOAD SWAP1 DUP2 AND DUP2 SUB PUSH2 0x280 JUMPI SWAP1 PUSH1 0x44 CALLDATALOAD SWAP1 JUMP JUMPDEST PUSH1 0x20 DUP2 ADD SWAP1 DUP2 LT PUSH1 0x1 PUSH1 0x1 PUSH1 0x40 SHL SUB DUP3 GT OR PUSH2 0xAB1 JUMPI PUSH1 0x40 MSTORE JUMP JUMPDEST PUSH1 0x40 DUP2 ADD SWAP1 DUP2 LT PUSH1 0x1 PUSH1 0x1 PUSH1 0x40 SHL SUB DUP3 GT OR PUSH2 0xAB1 JUMPI PUSH1 0x40 MSTORE JUMP JUMPDEST SWAP1 PUSH1 0x1F DUP1 NOT SWAP2 ADD AND DUP2 ADD SWAP1 DUP2 LT PUSH1 0x1 PUSH1 0x1 PUSH1 0x40 SHL SUB DUP3 GT OR PUSH2 0xAB1 JUMPI PUSH1 0x40 MSTORE JUMP JUMPDEST PUSH1 0x1 PUSH1 0x1 PUSH1 0x40 SHL SUB DUP2 GT PUSH2 0xAB1 JUMPI PUSH1 0x1F ADD PUSH1 0x1F NOT AND PUSH1 0x20 ADD SWAP1 JUMP JUMPDEST DUP2 PUSH1 0x1F DUP3 ADD SLT ISZERO PUSH2 0x280 JUMPI DUP1 CALLDATALOAD SWAP1 PUSH2 0x2C36 DUP3 PUSH2 0x2C04 JUMP JUMPDEST SWAP3 PUSH2 0x2C44 PUSH1 0x40 MLOAD SWAP5 DUP6 PUSH2 0x2BE3 JUMP JUMPDEST DUP3 DUP5 MSTORE PUSH1 0x20 DUP4 DUP4 ADD ADD GT PUSH2 0x280 JUMPI DUP2 PUSH1 0x0 SWAP3 PUSH1 0x20 DUP1 SWAP4 ADD DUP4 DUP7 ADD CALLDATACOPY DUP4 ADD ADD MSTORE SWAP1 JUMP JUMPDEST SWAP1 PUSH1 0x1 DUP3 DUP2 SHR SWAP3 AND DUP1 ISZERO PUSH2 0x2C96 JUMPI JUMPDEST PUSH1 0x20 DUP4 LT EQ PUSH2 0x2C80 JUMPI JUMP JUMPDEST PUSH4 0x4E487B71 PUSH1 0xE0 SHL PUSH1 0x0 MSTORE PUSH1 0x22 PUSH1 0x4 MSTORE PUSH1 0x24 PUSH1 0x0 REVERT JUMPDEST SWAP2 PUSH1 0x7F AND SWAP2 PUSH2 0x2C75 JUMP JUMPDEST SWAP1 PUSH1 0x0 SWAP3 SWAP2 DUP1 SLOAD SWAP2 PUSH2 0x2CB1 DUP4 PUSH2 0x2C66 JUMP JUMPDEST SWAP2 DUP3 DUP3 MSTORE PUSH1 0x1 SWAP4 DUP5 DUP2 AND SWAP1 DUP2 PUSH1 0x0 EQ PUSH2 0x2D13 JUMPI POP PUSH1 0x1 EQ PUSH2 0x2CD3 JUMPI JUMPDEST POP POP POP POP JUMP JUMPDEST SWAP1 SWAP2 SWAP4 SWAP5 POP PUSH1 0x0 MSTORE PUSH1 0x20 SWAP3 DUP4 PUSH1 0x0 KECCAK256 SWAP3 DUP5 PUSH1 0x0 SWAP5 JUMPDEST DUP4 DUP7 LT PUSH2 0x2CFF JUMPI POP POP POP POP ADD ADD SWAP1 CODESIZE DUP1 DUP1 DUP1 PUSH2 0x2CCD JUMP JUMPDEST DUP1 SLOAD DUP6 DUP8 ADD DUP4 ADD MSTORE SWAP5 ADD SWAP4 DUP6 SWAP1 DUP3 ADD PUSH2 0x2CE8 JUMP JUMPDEST SWAP3 SWAP5 POP POP POP PUSH1 0x20 SWAP4 SWAP5 POP PUSH1 0xFF NOT AND DUP4 DUP4 ADD MSTORE ISZERO ISZERO PUSH1 0x5 SHL ADD ADD SWAP1 CODESIZE DUP1 DUP1 DUP1 PUSH2 0x2CCD JUMP JUMPDEST PUSH1 0x1 PUSH1 0x1 PUSH1 0xA0 SHL SUB AND PUSH1 0x0 SWAP1 DUP2 MSTORE PUSH32 0x80BB2B638CC20BC4D0A60D66940F3AB4A00C1D7B313497CA82FB0B4AB0079305 PUSH1 0x20 MSTORE PUSH1 0x40 SWAP1 KECCAK256 SWAP1 JUMP JUMPDEST PUSH1 0x1 PUSH1 0x1 PUSH1 0xA0 SHL SUB AND PUSH1 0x0 SWAP1 DUP2 MSTORE PUSH32 0x80BB2B638CC20BC4D0A60D66940F3AB4A00C1D7B313497CA82FB0B4AB0079303 PUSH1 0x20 MSTORE PUSH1 0x40 SWAP1 KECCAK256 SWAP1 JUMP JUMPDEST CALLER PUSH1 0x0 SWAP1 DUP2 MSTORE PUSH32 0xB16E88C42FD4E48DF2DD6A2EABD6BC9AEC654EC170056B470819F8892CC6431C PUSH1 0x20 MSTORE PUSH1 0x40 SWAP1 KECCAK256 SLOAD PUSH32 0xA49807205CE4D355092EF5A8A18F56E8913CF4A201FBE287825B095693C21775 SWAP1 PUSH1 0xFF AND ISZERO PUSH2 0x1913 JUMPI POP JUMP JUMPDEST CALLER PUSH1 0x0 SWAP1 DUP2 MSTORE PUSH32 0x75442B0A96088B5456BC4ED01394C96A4FEEC0F883C9494257D76B96AB1C9B6B PUSH1 0x20 MSTORE PUSH1 0x40 SWAP1 KECCAK256 SLOAD PUSH32 0x65D7A28E3265B37A6474929F336521B332C1681B933F6CB9F3376673440D862A SWAP1 PUSH1 0xFF AND ISZERO PUSH2 0x1913 JUMPI POP JUMP JUMPDEST DUP1 PUSH1 0x0 MSTORE PUSH1 0x0 DUP1 MLOAD PUSH1 0x20 PUSH2 0x3C70 DUP4 CODECOPY DUP2 MLOAD SWAP2 MSTORE PUSH1 0x20 MSTORE PUSH1 0x40 PUSH1 0x0 KECCAK256 CALLER PUSH1 0x0 MSTORE PUSH1 0x20 MSTORE PUSH1 0xFF PUSH1 0x40 PUSH1 0x0 KECCAK256 SLOAD AND ISZERO PUSH2 0x1913 JUMPI POP JUMP JUMPDEST PUSH1 0x1 PUSH1 0x1 PUSH1 0xA0 SHL SUB AND PUSH1 0x0 DUP2 DUP2 MSTORE PUSH32 0xB7DB2DD08FCB62D0C9E08C51941CAE53C267786A0B75803FB7960902FC8EF97D PUSH1 0x20 MSTORE PUSH1 0x40 DUP2 KECCAK256 SLOAD SWAP1 SWAP2 SWAP1 PUSH1 0x0 DUP1 MLOAD PUSH1 0x20 PUSH2 0x3C70 DUP4 CODECOPY DUP2 MLOAD SWAP2 MSTORE SWAP1 PUSH1 0xFF AND PUSH2 0x2F1C JUMPI DUP3 DUP1 MSTORE PUSH1 0x20 MSTORE PUSH1 0x40 DUP3 KECCAK256 DUP2 DUP4 MSTORE PUSH1 0x20 MSTORE PUSH1 0x40 DUP3 KECCAK256 PUSH1 0x1 PUSH1 0xFF NOT DUP3 SLOAD AND OR SWAP1 SSTORE CALLER SWAP2 PUSH1 0x0 DUP1 MLOAD PUSH1 0x20 PUSH2 0x3B90 DUP4 CODECOPY DUP2 MLOAD SWAP2 MSTORE DUP2 DUP1 LOG4 PUSH1 0x1 SWAP1 JUMP JUMPDEST POP POP SWAP1 JUMP JUMPDEST PUSH1 0x1 PUSH1 0x1 PUSH1 0xA0 SHL SUB AND PUSH1 0x0 DUP2 DUP2 MSTORE PUSH32 0xAB71E3F32666744D246EDFF3F96E4BDAFEE2E9867098CDD118A979A7464786A8 PUSH1 0x20 MSTORE PUSH1 0x40 DUP2 KECCAK256 SLOAD SWAP1 SWAP2 SWAP1 PUSH32 0x189AB7A9244DF0848122154315AF71FE140F3DB0FE014031783B0946B8C9D2E3 SWAP1 PUSH1 0x0 DUP1 MLOAD PUSH1 0x20 PUSH2 0x3C70 DUP4 CODECOPY DUP2 MLOAD SWAP2 MSTORE SWAP1 PUSH1 0xFF AND PUSH2 0x2FCB JUMPI DUP2 DUP5 MSTORE PUSH1 0x20 MSTORE PUSH1 0x40 DUP4 KECCAK256 DUP3 DUP5 MSTORE PUSH1 0x20 MSTORE PUSH1 0x40 DUP4 KECCAK256 PUSH1 0x1 PUSH1 0xFF NOT DUP3 SLOAD AND OR SWAP1 SSTORE PUSH1 0x0 DUP1 MLOAD PUSH1 0x20 PUSH2 0x3B90 DUP4 CODECOPY DUP2 MLOAD SWAP2 MSTORE CALLER SWAP4 DUP1 LOG4 PUSH1 0x1 SWAP1 JUMP JUMPDEST POP POP POP SWAP1 JUMP JUMPDEST PUSH1 0x1 PUSH1 0x1 PUSH1 0xA0 SHL SUB AND PUSH1 0x0 DUP2 DUP2 MSTORE PUSH32 0x549FE2656C81D2947B3B913F0A53B9EA86C71E049F3A1B8AA23C09A8A05CB8D4 PUSH1 0x20 MSTORE PUSH1 0x40 DUP2 KECCAK256 SLOAD SWAP1 SWAP2 SWAP1 PUSH32 0x9F2DF0FED2C77648DE5860A4CC508CD0818C85B8B8A1AB4CEEEF8D981C8956A6 SWAP1 PUSH1 0x0 DUP1 MLOAD PUSH1 0x20 PUSH2 0x3C70 DUP4 CODECOPY DUP2 MLOAD SWAP2 MSTORE SWAP1 PUSH1 0xFF AND PUSH2 0x2FCB JUMPI DUP2 DUP5 MSTORE PUSH1 0x20 MSTORE PUSH1 0x40 DUP4 KECCAK256 DUP3 DUP5 MSTORE PUSH1 0x20 MSTORE PUSH1 0x40 DUP4 KECCAK256 PUSH1 0x1 PUSH1 0xFF NOT DUP3 SLOAD AND OR SWAP1 SSTORE PUSH1 0x0 DUP1 MLOAD PUSH1 0x20 PUSH2 0x3B90 DUP4 CODECOPY DUP2 MLOAD SWAP2 MSTORE CALLER SWAP4 DUP1 LOG4 PUSH1 0x1 SWAP1 JUMP JUMPDEST SWAP1 PUSH1 0x0 SWAP2 DUP1 DUP4 MSTORE PUSH1 0x0 DUP1 MLOAD PUSH1 0x20 PUSH2 0x3C70 DUP4 CODECOPY DUP2 MLOAD SWAP2 MSTORE DUP1 PUSH1 0x20 MSTORE PUSH1 0x40 DUP5 KECCAK256 SWAP3 PUSH1 0x1 DUP1 PUSH1 0xA0 SHL SUB AND SWAP3 DUP4 DUP6 MSTORE PUSH1 0x20 MSTORE PUSH1 0xFF PUSH1 0x40 DUP6 KECCAK256 SLOAD AND ISZERO PUSH1 0x0 EQ PUSH2 0x2FCB JUMPI DUP2 DUP5 MSTORE PUSH1 0x20 MSTORE PUSH1 0x40 DUP4 KECCAK256 DUP3 DUP5 MSTORE PUSH1 0x20 MSTORE PUSH1 0x40 DUP4 KECCAK256 PUSH1 0x1 PUSH1 0xFF NOT DUP3 SLOAD AND OR SWAP1 SSTORE PUSH1 0x0 DUP1 MLOAD PUSH1 0x20 PUSH2 0x3B90 DUP4 CODECOPY DUP2 MLOAD SWAP2 MSTORE CALLER SWAP4 DUP1 LOG4 PUSH1 0x1 SWAP1 JUMP JUMPDEST SWAP1 PUSH1 0x0 SWAP2 DUP1 DUP4 MSTORE PUSH1 0x0 DUP1 MLOAD PUSH1 0x20 PUSH2 0x3C70 DUP4 CODECOPY DUP2 MLOAD SWAP2 MSTORE DUP1 PUSH1 0x20 MSTORE PUSH1 0x40 DUP5 KECCAK256 SWAP3 PUSH1 0x1 DUP1 PUSH1 0xA0 SHL SUB AND SWAP3 DUP4 DUP6 MSTORE PUSH1 0x20 MSTORE PUSH1 0xFF PUSH1 0x40 DUP6 KECCAK256 SLOAD AND PUSH1 0x0 EQ PUSH2 0x2FCB JUMPI DUP2 DUP5 MSTORE PUSH1 0x20 MSTORE PUSH1 0x40 DUP4 KECCAK256 DUP3 DUP5 MSTORE PUSH1 0x20 MSTORE PUSH1 0x40 DUP4 KECCAK256 PUSH1 0xFF NOT DUP2 SLOAD AND SWAP1 SSTORE PUSH32 0xF6391F5C32D9C69D2A47EA670B442974B53935D1EDC7FD64EB21E047A839171B CALLER SWAP4 DUP1 LOG4 PUSH1 0x1 SWAP1 JUMP JUMPDEST PUSH1 0x1 PUSH1 0x1 PUSH1 0xA0 SHL SUB DUP2 AND ISZERO PUSH2 0x318F JUMPI PUSH2 0x318B SWAP1 PUSH2 0x2D6F JUMP JUMPDEST SLOAD SWAP1 JUMP JUMPDEST PUSH1 0x40 MLOAD PUSH4 0x22718AD9 PUSH1 0xE2 SHL DUP2 MSTORE PUSH1 0x0 PUSH1 0x4 DUP3 ADD MSTORE PUSH1 0x24 SWAP1 REVERT JUMPDEST PUSH1 0x1 PUSH1 0x1 PUSH1 0xA0 SHL SUB DUP3 DUP2 AND SWAP4 SWAP2 DUP5 ISZERO PUSH2 0xD86 JUMPI PUSH1 0x0 SWAP5 DUP4 DUP7 MSTORE PUSH1 0x20 SWAP6 PUSH1 0x1 DUP8 MSTORE PUSH1 0x40 SWAP7 PUSH1 0xFF PUSH1 0x5 DUP10 DUP5 KECCAK256 ADD SLOAD PUSH1 0x8 SHR AND ISZERO PUSH2 0x34BD JUMPI PUSH2 0x31E5 PUSH2 0x37A4 JUMP JUMPDEST DUP6 DUP3 MSTORE PUSH1 0x0 DUP1 MLOAD PUSH1 0x20 PUSH2 0x3CD0 DUP4 CODECOPY DUP2 MLOAD SWAP2 MSTORE SWAP7 DUP8 DUP3 MSTORE DUP6 DUP10 DUP5 KECCAK256 SLOAD AND SWAP8 CALLER ISZERO ISZERO DUP1 PUSH2 0x3423 JUMPI JUMPDEST POP DUP9 ISZERO SWAP1 DUP2 ISZERO PUSH2 0x3404 JUMPI JUMPDEST PUSH2 0x321F DUP4 PUSH2 0x2D6F JUMP JUMPDEST DUP1 SLOAD PUSH1 0x1 ADD SWAP1 SSTORE DUP9 DUP6 MSTORE DUP4 MSTORE DUP10 DUP5 KECCAK256 DUP1 SLOAD PUSH1 0x1 PUSH1 0x1 PUSH1 0xA0 SHL SUB NOT AND DUP7 OR SWAP1 SSTORE DUP8 DUP6 DUP11 PUSH1 0x0 DUP1 MLOAD PUSH1 0x20 PUSH2 0x3C50 DUP4 CODECOPY DUP2 MLOAD SWAP2 MSTORE DUP8 DUP1 LOG4 ISZERO PUSH2 0x335F JUMPI PUSH1 0x0 DUP1 MLOAD PUSH1 0x20 PUSH2 0x3C30 DUP4 CODECOPY DUP2 MLOAD SWAP2 MSTORE DUP1 SLOAD SWAP1 DUP9 DUP6 MSTORE PUSH1 0x0 DUP1 MLOAD PUSH1 0x20 PUSH2 0x3C10 DUP4 CODECOPY DUP2 MLOAD SWAP2 MSTORE DUP5 MSTORE DUP2 DUP12 DUP7 KECCAK256 SSTORE PUSH1 0x1 PUSH1 0x40 SHL DUP3 LT ISZERO PUSH2 0x334B JUMPI PUSH2 0x8AE DUP3 DUP11 SWAP3 PUSH1 0x1 PUSH2 0x32A3 SWAP6 ADD SWAP1 SSTORE PUSH2 0x36B9 JUMP JUMPDEST DUP4 DUP9 SUB PUSH2 0x32DF JUMPI JUMPDEST POP POP POP POP AND SWAP3 DUP4 DUP4 SUB PUSH2 0x32BE JUMPI POP POP POP POP JUMP JUMPDEST PUSH1 0x64 SWAP5 POP MLOAD SWAP3 PUSH4 0x64283D7B PUSH1 0xE0 SHL DUP5 MSTORE PUSH1 0x4 DUP5 ADD MSTORE PUSH1 0x24 DUP4 ADD MSTORE PUSH1 0x44 DUP3 ADD MSTORE REVERT JUMPDEST PUSH2 0x32E8 SWAP1 PUSH2 0x3173 JUMP JUMPDEST PUSH1 0x0 NOT DUP2 ADD SWAP4 SWAP1 DUP5 GT PUSH2 0x3337 JUMPI DUP3 SWAP2 PUSH1 0x0 DUP1 MLOAD PUSH1 0x20 PUSH2 0x3BB0 DUP4 CODECOPY DUP2 MLOAD SWAP2 MSTORE SWAP2 DUP11 SWAP5 MSTORE PUSH1 0x0 DUP1 MLOAD PUSH1 0x20 PUSH2 0x3BD0 DUP4 CODECOPY DUP2 MLOAD SWAP2 MSTORE DUP2 MSTORE DUP4 DUP4 KECCAK256 DUP6 DUP5 MSTORE DUP2 MSTORE DUP8 DUP5 DUP5 KECCAK256 SSTORE DUP8 DUP4 MSTORE MSTORE KECCAK256 SSTORE CODESIZE DUP1 DUP1 DUP1 PUSH2 0x32AB JUMP JUMPDEST PUSH4 0x4E487B71 PUSH1 0xE0 SHL DUP4 MSTORE PUSH1 0x11 PUSH1 0x4 MSTORE PUSH1 0x24 DUP4 REVERT JUMPDEST PUSH4 0x4E487B71 PUSH1 0xE0 SHL DUP6 MSTORE PUSH1 0x41 PUSH1 0x4 MSTORE PUSH1 0x24 DUP6 REVERT JUMPDEST DUP8 DUP5 EQ PUSH2 0x32A3 JUMPI PUSH2 0x336F DUP9 PUSH2 0x3173 JUMP JUMPDEST DUP8 DUP5 MSTORE PUSH1 0x0 DUP1 MLOAD PUSH1 0x20 PUSH2 0x3BB0 DUP4 CODECOPY DUP2 MLOAD SWAP2 MSTORE DUP1 DUP5 MSTORE DUP11 DUP6 KECCAK256 SLOAD SWAP1 DUP3 DUP3 SUB PUSH2 0x33C1 JUMPI JUMPDEST POP POP DUP8 DUP5 MSTORE DUP4 DUP11 DUP2 KECCAK256 SSTORE DUP9 DUP5 MSTORE PUSH1 0x0 DUP1 MLOAD PUSH1 0x20 PUSH2 0x3BD0 DUP4 CODECOPY DUP2 MLOAD SWAP2 MSTORE DUP4 MSTORE DUP10 DUP5 KECCAK256 SWAP1 DUP5 MSTORE DUP3 MSTORE DUP3 DUP10 DUP2 KECCAK256 SSTORE PUSH2 0x32A3 JUMP JUMPDEST DUP11 DUP7 MSTORE PUSH1 0x0 DUP1 MLOAD PUSH1 0x20 PUSH2 0x3BD0 DUP4 CODECOPY DUP2 MLOAD SWAP2 MSTORE DUP1 DUP7 MSTORE DUP13 DUP8 KECCAK256 DUP5 DUP9 MSTORE DUP7 MSTORE DUP13 DUP8 KECCAK256 SLOAD SWAP1 DUP13 DUP9 MSTORE DUP7 MSTORE DUP13 DUP8 KECCAK256 DUP4 DUP9 MSTORE DUP7 MSTORE DUP1 DUP14 DUP9 KECCAK256 SSTORE DUP7 MSTORE DUP5 MSTORE DUP11 DUP6 KECCAK256 SSTORE CODESIZE DUP1 PUSH2 0x3391 JUMP JUMPDEST PUSH2 0x340D DUP10 PUSH2 0x34F9 JUMP JUMPDEST PUSH2 0x3416 DUP11 PUSH2 0x2D6F JUMP JUMPDEST DUP1 SLOAD PUSH1 0x0 NOT ADD SWAP1 SSTORE PUSH2 0x3216 JUMP JUMPDEST DUP1 PUSH2 0x3470 JUMPI JUMPDEST ISZERO PUSH2 0x3434 JUMPI CODESIZE PUSH2 0x320B JUMP JUMPDEST DUP10 DUP9 DUP11 PUSH2 0x3451 JUMPI PUSH1 0x24 SWAP2 MLOAD SWAP1 PUSH4 0x7E273289 PUSH1 0xE0 SHL DUP3 MSTORE PUSH1 0x4 DUP3 ADD MSTORE REVERT JUMPDEST SWAP1 MLOAD PUSH4 0x177E802F PUSH1 0xE0 SHL DUP2 MSTORE CALLER PUSH1 0x4 DUP3 ADD MSTORE PUSH1 0x24 DUP2 ADD SWAP2 SWAP1 SWAP2 MSTORE PUSH1 0x44 SWAP1 REVERT JUMPDEST POP CALLER DUP10 EQ DUP1 ISZERO PUSH2 0x34A2 JUMPI JUMPDEST DUP1 PUSH2 0x3429 JUMPI POP DUP8 DUP5 MSTORE PUSH1 0x0 DUP1 MLOAD PUSH1 0x20 PUSH2 0x3CF0 DUP4 CODECOPY DUP2 MLOAD SWAP2 MSTORE DUP4 MSTORE CALLER DUP8 DUP12 DUP7 KECCAK256 SLOAD AND EQ PUSH2 0x3429 JUMP JUMPDEST POP PUSH2 0x34AC DUP10 PUSH2 0x2D36 JUMP JUMPDEST CALLER DUP6 MSTORE DUP4 MSTORE PUSH1 0xFF DUP11 DUP6 KECCAK256 SLOAD AND PUSH2 0x347B JUMP JUMPDEST PUSH1 0x84 SWAP1 DUP9 MLOAD SWAP1 PUSH3 0x461BCD PUSH1 0xE5 SHL DUP3 MSTORE PUSH1 0x4 DUP3 ADD MSTORE PUSH1 0x22 PUSH1 0x24 DUP3 ADD MSTORE PUSH1 0x0 DUP1 MLOAD PUSH1 0x20 PUSH2 0x3C90 DUP4 CODECOPY DUP2 MLOAD SWAP2 MSTORE PUSH1 0x44 DUP3 ADD MSTORE PUSH2 0x6C65 PUSH1 0xF0 SHL PUSH1 0x64 DUP3 ADD MSTORE REVERT JUMPDEST PUSH1 0x0 MSTORE PUSH1 0x0 DUP1 MLOAD PUSH1 0x20 PUSH2 0x3CF0 DUP4 CODECOPY DUP2 MLOAD SWAP2 MSTORE PUSH1 0x20 MSTORE PUSH1 0x40 PUSH1 0x0 KECCAK256 PUSH12 0xFFFFFFFFFFFFFFFFFFFFFFFF PUSH1 0xA0 SHL DUP2 SLOAD AND SWAP1 SSTORE JUMP JUMPDEST PUSH1 0x0 DUP2 DUP2 MSTORE PUSH1 0x0 DUP1 MLOAD PUSH1 0x20 PUSH2 0x3CD0 DUP4 CODECOPY DUP2 MLOAD SWAP2 MSTORE PUSH1 0x20 MSTORE PUSH1 0x40 SWAP1 KECCAK256 SLOAD PUSH1 0x1 PUSH1 0x1 PUSH1 0xA0 SHL SUB AND SWAP1 DUP2 ISZERO PUSH2 0x355A JUMPI POP SWAP1 JUMP JUMPDEST PUSH1 0x24 SWAP1 PUSH1 0x40 MLOAD SWAP1 PUSH4 0x7E273289 PUSH1 0xE0 SHL DUP3 MSTORE PUSH1 0x4 DUP3 ADD MSTORE REVERT JUMPDEST RETURNDATASIZE ISZERO PUSH2 0x359D JUMPI RETURNDATASIZE SWAP1 PUSH2 0x3583 DUP3 PUSH2 0x2C04 JUMP JUMPDEST SWAP2 PUSH2 0x3591 PUSH1 0x40 MLOAD SWAP4 DUP5 PUSH2 0x2BE3 JUMP JUMPDEST DUP3 MSTORE RETURNDATASIZE PUSH1 0x0 PUSH1 0x20 DUP5 ADD RETURNDATACOPY JUMP JUMPDEST PUSH1 0x60 SWAP1 JUMP JUMPDEST SWAP2 SWAP1 DUP1 EXTCODESIZE PUSH2 0x35B0 JUMPI POP POP POP POP JUMP JUMPDEST PUSH2 0x35F2 PUSH1 0x1 DUP1 PUSH1 0xA0 SHL SUB DUP1 SWAP3 AND SWAP5 PUSH1 0x40 MLOAD SWAP4 DUP5 SWAP4 PUSH4 0xA85BD01 PUSH1 0xE1 SHL SWAP7 DUP8 DUP7 MSTORE CALLER PUSH1 0x4 DUP8 ADD MSTORE AND PUSH1 0x24 DUP6 ADD MSTORE PUSH1 0x44 DUP5 ADD MSTORE PUSH1 0x80 PUSH1 0x64 DUP5 ADD MSTORE PUSH1 0x84 DUP4 ADD SWAP1 PUSH2 0x2B0C JUMP JUMPDEST SUB SWAP1 PUSH1 0x20 DUP2 PUSH1 0x0 SWAP4 DUP2 DUP6 DUP9 GAS CALL SWAP1 DUP3 SWAP1 DUP3 PUSH2 0x366A JUMPI JUMPDEST POP POP PUSH2 0x3639 JUMPI DUP3 PUSH2 0x3617 PUSH2 0x3572 JUMP JUMPDEST DUP1 MLOAD SWAP2 SWAP1 DUP3 PUSH2 0xB52 JUMPI PUSH1 0x40 MLOAD PUSH4 0x32505749 PUSH1 0xE1 SHL DUP2 MSTORE PUSH1 0x4 DUP2 ADD DUP4 SWAP1 MSTORE PUSH1 0x24 SWAP1 REVERT JUMPDEST PUSH1 0x1 PUSH1 0x1 PUSH1 0xE0 SHL SUB NOT AND SUB PUSH2 0x3652 JUMPI POP CODESIZE DUP1 DUP1 DUP1 PUSH2 0x2CCD JUMP JUMPDEST PUSH1 0x24 SWAP1 PUSH1 0x40 MLOAD SWAP1 PUSH4 0x32505749 PUSH1 0xE1 SHL DUP3 MSTORE PUSH1 0x4 DUP3 ADD MSTORE REVERT JUMPDEST SWAP1 SWAP2 SWAP3 POP PUSH1 0x20 DUP2 RETURNDATASIZE DUP3 GT PUSH2 0x36B1 JUMPI JUMPDEST DUP2 PUSH2 0x3686 PUSH1 0x20 SWAP4 DUP4 PUSH2 0x2BE3 JUMP JUMPDEST DUP2 ADD SUB SLT PUSH2 0x36AD JUMPI MLOAD SWAP1 PUSH1 0x1 PUSH1 0x1 PUSH1 0xE0 SHL SUB NOT DUP3 AND DUP3 SUB PUSH2 0x36AA JUMPI POP SWAP1 CODESIZE DUP1 PUSH2 0x3608 JUMP JUMPDEST DUP1 REVERT JUMPDEST POP DUP1 REVERT JUMPDEST RETURNDATASIZE SWAP2 POP PUSH2 0x3679 JUMP JUMPDEST PUSH1 0x0 DUP1 MLOAD PUSH1 0x20 PUSH2 0x3C30 DUP4 CODECOPY DUP2 MLOAD SWAP2 MSTORE DUP1 SLOAD DUP3 LT ISZERO PUSH2 0x36FC JUMPI PUSH1 0x0 MSTORE PUSH32 0xA42F15E5D656F8155FD7419D740A6073999F19CD6E061449CE4A257150545BF2 ADD SWAP1 PUSH1 0x0 SWAP1 JUMP JUMPDEST PUSH4 0x4E487B71 PUSH1 0xE0 SHL PUSH1 0x0 MSTORE PUSH1 0x32 PUSH1 0x4 MSTORE PUSH1 0x24 PUSH1 0x0 REVERT JUMPDEST SWAP1 PUSH2 0x3739 JUMPI POP DUP1 MLOAD ISZERO PUSH2 0x3727 JUMPI DUP1 MLOAD SWAP1 PUSH1 0x20 ADD REVERT JUMPDEST PUSH1 0x40 MLOAD PUSH4 0xA12F521 PUSH1 0xE1 SHL DUP2 MSTORE PUSH1 0x4 SWAP1 REVERT JUMPDEST DUP2 MLOAD ISZERO DUP1 PUSH2 0x376C JUMPI JUMPDEST PUSH2 0x374A JUMPI POP SWAP1 JUMP JUMPDEST PUSH1 0x40 MLOAD PUSH4 0x9996B315 PUSH1 0xE0 SHL DUP2 MSTORE PUSH1 0x1 PUSH1 0x1 PUSH1 0xA0 SHL SUB SWAP1 SWAP2 AND PUSH1 0x4 DUP3 ADD MSTORE PUSH1 0x24 SWAP1 REVERT JUMPDEST POP DUP1 EXTCODESIZE ISZERO PUSH2 0x3742 JUMP JUMPDEST PUSH1 0xFF PUSH1 0x0 DUP1 MLOAD PUSH1 0x20 PUSH2 0x3D10 DUP4 CODECOPY DUP2 MLOAD SWAP2 MSTORE SLOAD PUSH1 0x40 SHR AND ISZERO PUSH2 0x3792 JUMPI JUMP JUMPDEST PUSH1 0x40 MLOAD PUSH4 0x1AFCD79F PUSH1 0xE3 SHL DUP2 MSTORE PUSH1 0x4 SWAP1 REVERT JUMPDEST PUSH1 0xFF PUSH1 0x0 DUP1 MLOAD PUSH1 0x20 PUSH2 0x3CB0 DUP4 CODECOPY DUP2 MLOAD SWAP2 MSTORE SLOAD AND PUSH2 0x37BD JUMPI JUMP JUMPDEST PUSH1 0x40 MLOAD PUSH4 0xD93C0665 PUSH1 0xE0 SHL DUP2 MSTORE PUSH1 0x4 SWAP1 REVERT JUMPDEST DUP2 DUP2 MUL SWAP3 SWAP2 DUP2 ISZERO SWAP2 DUP5 DIV EQ OR ISZERO PUSH2 0xC5B JUMPI JUMP JUMPDEST SWAP2 SWAP1 DUP3 ADD DUP1 SWAP3 GT PUSH2 0xC5B JUMPI JUMP JUMPDEST SWAP1 DUP2 PUSH1 0x20 SWAP2 SUB SLT PUSH2 0x280 JUMPI MLOAD DUP1 ISZERO ISZERO DUP2 SUB PUSH2 0x280 JUMPI SWAP1 JUMP JUMPDEST SWAP2 SWAP1 DUP3 SUB SWAP2 DUP3 GT PUSH2 0xC5B JUMPI JUMP JUMPDEST ISZERO PUSH2 0x381B JUMPI JUMP JUMPDEST PUSH1 0x40 MLOAD PUSH3 0x461BCD PUSH1 0xE5 SHL DUP2 MSTORE PUSH1 0x20 PUSH1 0x4 DUP3 ADD MSTORE PUSH1 0x19 PUSH1 0x24 DUP3 ADD MSTORE PUSH32 0x546F6B656E54726561743A207472656174206578706972656400000000000000 PUSH1 0x44 DUP3 ADD MSTORE PUSH1 0x64 SWAP1 REVERT JUMPDEST ISZERO PUSH2 0x3867 JUMPI JUMP JUMPDEST PUSH1 0x40 MLOAD PUSH3 0x461BCD PUSH1 0xE5 SHL DUP2 MSTORE PUSH1 0x20 PUSH1 0x4 DUP3 ADD MSTORE PUSH1 0x2C PUSH1 0x24 DUP3 ADD MSTORE PUSH32 0x546F6B656E54726561743A20747265617420616C726561647920636C61696D65 PUSH1 0x44 DUP3 ADD MSTORE PUSH12 0x19081BDC88195E1C1A5C9959 PUSH1 0xA2 SHL PUSH1 0x64 DUP3 ADD MSTORE PUSH1 0x84 SWAP1 REVERT JUMPDEST SWAP1 SWAP3 PUSH1 0x80 SWAP3 PUSH2 0x38EC SWAP6 SWAP5 DUP4 MSTORE PUSH1 0x20 DUP4 ADD MSTORE PUSH1 0x1 DUP1 PUSH1 0xA0 SHL SUB AND PUSH1 0x40 DUP3 ADD MSTORE DUP2 PUSH1 0x60 DUP3 ADD MSTORE ADD SWAP1 PUSH2 0x2CA0 JUMP JUMPDEST SWAP1 JUMP JUMPDEST PUSH1 0x0 DUP2 DUP2 MSTORE PUSH1 0x20 PUSH1 0x1 DUP2 MSTORE PUSH1 0x40 SWAP2 PUSH1 0xFF PUSH1 0x5 DUP5 DUP4 KECCAK256 ADD SLOAD PUSH1 0x8 SHR AND ISZERO PUSH2 0x3B53 JUMPI PUSH2 0x3917 PUSH2 0x37A4 JUMP JUMPDEST DUP4 DUP2 MSTORE PUSH1 0x0 DUP1 MLOAD PUSH1 0x20 PUSH2 0x3CD0 DUP4 CODECOPY DUP2 MLOAD SWAP2 MSTORE DUP1 DUP4 MSTORE DUP4 DUP3 KECCAK256 SLOAD PUSH1 0x1 PUSH1 0x1 PUSH1 0xA0 SHL SUB AND DUP1 ISZERO SWAP4 SWAP2 DUP5 ISZERO SWAP1 DUP2 PUSH2 0x3B34 JUMPI JUMPDEST DUP8 DUP6 MSTORE DUP4 MSTORE DUP6 DUP5 KECCAK256 DUP1 SLOAD PUSH1 0x1 PUSH1 0x1 PUSH1 0xA0 SHL SUB NOT AND SWAP1 SSTORE DUP7 DUP5 DUP4 PUSH1 0x0 DUP1 MLOAD PUSH1 0x20 PUSH2 0x3C50 DUP4 CODECOPY DUP2 MLOAD SWAP2 MSTORE DUP3 DUP1 LOG4 DUP5 ISZERO PUSH2 0x3A8A JUMPI POP POP PUSH1 0x0 DUP1 MLOAD PUSH1 0x20 PUSH2 0x3C30 DUP4 CODECOPY DUP2 MLOAD SWAP2 MSTORE DUP1 SLOAD SWAP1 DUP7 DUP5 MSTORE PUSH1 0x0 DUP1 MLOAD PUSH1 0x20 PUSH2 0x3C10 DUP4 CODECOPY DUP2 MLOAD SWAP2 MSTORE DUP4 MSTORE DUP2 DUP7 DUP6 KECCAK256 SSTORE PUSH1 0x1 PUSH1 0x40 SHL DUP3 LT ISZERO PUSH2 0x3A76 JUMPI PUSH2 0x8AE DUP3 DUP9 SWAP3 PUSH1 0x1 PUSH2 0x39C4 SWAP6 ADD SWAP1 SSTORE PUSH2 0x36B9 JUMP JUMPDEST PUSH1 0x0 DUP1 MLOAD PUSH1 0x20 PUSH2 0x3C30 DUP4 CODECOPY DUP2 MLOAD SWAP2 MSTORE SWAP2 DUP3 SLOAD PUSH1 0x0 NOT SWAP3 DUP4 DUP3 ADD SWAP2 DUP3 GT PUSH2 0x3337 JUMPI DUP8 DUP4 MSTORE PUSH1 0x0 DUP1 MLOAD PUSH1 0x20 PUSH2 0x3C10 DUP4 CODECOPY DUP2 MLOAD SWAP2 MSTORE SWAP1 DUP2 DUP2 MSTORE PUSH2 0x3A07 DUP9 DUP6 KECCAK256 SLOAD SWAP4 PUSH2 0x36B9 JUMP JUMPDEST SWAP1 SLOAD SWAP1 PUSH1 0x3 SHL SHR PUSH2 0x3A1B DUP2 PUSH2 0x8AE DUP7 PUSH2 0x36B9 JUMP JUMPDEST DUP5 MSTORE MSTORE DUP6 DUP3 KECCAK256 SSTORE DUP6 DUP2 MSTORE DUP1 DUP6 DUP2 KECCAK256 SSTORE DUP3 SLOAD SWAP1 DUP2 ISZERO PUSH2 0x3A62 JUMPI POP ADD SWAP1 PUSH2 0x3A42 PUSH2 0x2021 DUP4 PUSH2 0x36B9 JUMP JUMPDEST SSTORE PUSH2 0x3A4B JUMPI POP POP JUMP JUMPDEST PUSH1 0x24 SWAP3 POP MLOAD SWAP1 PUSH4 0x7E273289 PUSH1 0xE0 SHL DUP3 MSTORE PUSH1 0x4 DUP3 ADD MSTORE REVERT JUMPDEST PUSH4 0x4E487B71 PUSH1 0xE0 SHL DUP2 MSTORE PUSH1 0x31 PUSH1 0x4 MSTORE PUSH1 0x24 SWAP1 REVERT JUMPDEST PUSH4 0x4E487B71 PUSH1 0xE0 SHL DUP5 MSTORE PUSH1 0x41 PUSH1 0x4 MSTORE PUSH1 0x24 DUP5 REVERT JUMPDEST PUSH2 0x3A95 JUMPI JUMPDEST POP PUSH2 0x39C4 JUMP JUMPDEST PUSH2 0x3A9E DUP2 PUSH2 0x3173 JUMP JUMPDEST SWAP1 DUP7 DUP5 MSTORE PUSH1 0x0 DUP1 MLOAD PUSH1 0x20 PUSH2 0x3BB0 DUP4 CODECOPY DUP2 MLOAD SWAP2 MSTORE DUP1 DUP5 MSTORE DUP7 DUP6 KECCAK256 SLOAD SWAP1 DUP4 DUP3 SUB PUSH2 0x3AF1 JUMPI JUMPDEST POP POP DUP7 DUP5 MSTORE DUP4 DUP7 DUP2 KECCAK256 SSTORE DUP4 MSTORE PUSH1 0x0 DUP1 MLOAD PUSH1 0x20 PUSH2 0x3BD0 DUP4 CODECOPY DUP2 MLOAD SWAP2 MSTORE DUP3 MSTORE DUP5 DUP4 KECCAK256 SWAP1 DUP4 MSTORE DUP2 MSTORE DUP2 DUP5 DUP2 KECCAK256 SSTORE CODESIZE PUSH2 0x3A8F JUMP JUMPDEST DUP3 DUP7 MSTORE PUSH1 0x0 DUP1 MLOAD PUSH1 0x20 PUSH2 0x3BD0 DUP4 CODECOPY DUP2 MLOAD SWAP2 MSTORE DUP1 DUP7 MSTORE DUP9 DUP8 KECCAK256 DUP6 DUP9 MSTORE DUP7 MSTORE DUP9 DUP8 KECCAK256 SLOAD SWAP1 DUP5 DUP9 MSTORE DUP7 MSTORE DUP9 DUP8 KECCAK256 DUP4 DUP9 MSTORE DUP7 MSTORE DUP1 DUP10 DUP9 KECCAK256 SSTORE DUP7 MSTORE DUP5 MSTORE DUP7 DUP6 KECCAK256 SSTORE CODESIZE DUP1 PUSH2 0x3AC1 JUMP JUMPDEST PUSH2 0x3B3D DUP9 PUSH2 0x34F9 JUMP JUMPDEST PUSH2 0x3B46 DUP4 PUSH2 0x2D6F JUMP JUMPDEST DUP1 SLOAD PUSH1 0x0 NOT ADD SWAP1 SSTORE PUSH2 0x3946 JUMP JUMPDEST POP PUSH1 0x84 SWAP2 MLOAD SWAP1 PUSH3 0x461BCD PUSH1 0xE5 SHL DUP3 MSTORE PUSH1 0x4 DUP3 ADD MSTORE PUSH1 0x22 PUSH1 0x24 DUP3 ADD MSTORE PUSH1 0x0 DUP1 MLOAD PUSH1 0x20 PUSH2 0x3C90 DUP4 CODECOPY DUP2 MLOAD SWAP2 MSTORE PUSH1 0x44 DUP3 ADD MSTORE PUSH2 0x6C65 PUSH1 0xF0 SHL PUSH1 0x64 DUP3 ADD MSTORE REVERT INVALID 0x2F DUP8 DUP9 GT PUSH31 0x7EFF1D82E926EC794901D17C78024A50270940304540A733656F0D645E0397 SDIV 0x49 STOP DUP9 0xDA 0xAD DUP10 0xBA 0xE2 POP 0x49 LOG3 0x4F 0x4A SWAP1 PUSH19 0xD398537B1AB2425F24CBED01645E0397054900 DUP9 0xDA 0xAD DUP10 0xBA 0xE2 POP 0x49 LOG3 0x4F 0x4A SWAP1 PUSH19 0xD398537B1AB2425F24CBED0080BB2B638CC20B 0xC4 0xD0 0xA6 0xD PUSH7 0x940F3AB4A00C1D PUSH28 0x313497CA82FB0B4AB0079300645E039705490088DAAD89BAE25049A3 0x4F 0x4A SWAP1 PUSH19 0xD398537B1AB2425F24CBED03645E0397054900 DUP9 0xDA 0xAD DUP10 0xBA 0xE2 POP 0x49 LOG3 0x4F 0x4A SWAP1 PUSH19 0xD398537B1AB2425F24CBED02DDF252AD1BE2C8 SWAP12 PUSH10 0xC2B068FC378DAA952BA7 CALL PUSH4 0xC4A11628 CREATE2 GAS 0x4D CREATE2 0x23 0xB3 0xEF MUL 0xDD PUSH28 0xC7DEC4DCEEDDA775E58DD541E08A116C6C53815C0BD028192F7B6268 STOP SLOAD PUSH16 0x6B656E54726561743A20746F6B656E20 PUSH15 0x6F74207472616E736665726162CD5E 0xD1 0x5C PUSH15 0x187E77E9AEE88184C21F4F2182AB58 0x27 0xCB EXTCODESIZE PUSH31 0x7FBEDCD63F0330080BB2B638CC20BC4D0A60D66940F3AB4A00C1D7B313497 0xCA DUP3 0xFB SIGNEXTEND 0x4A 0xB0 SMOD SWAP4 MUL DUP1 0xBB 0x2B PUSH4 0x8CC20BC4 0xD0 0xA6 0xD PUSH7 0x940F3AB4A00C1D PUSH28 0x313497CA82FB0B4AB0079304F0C57E16840DF040F15088DC2F81FE39 SHR CODECOPY 0x23 0xBE 0xC7 RETURNDATACOPY 0x23 0xA9 PUSH7 0x2EFC9C229C6A00 CALLDATACOPY 0xC5 DUP13 PUSH26 0x9B6609234B945E882912EE9AD34948A1DFAA20A97485E1A7752B 0xBF DUP2 LOG2 PUSH5 0x6970667358 0x22 SLT KECCAK256 SLOAD NOT 0xC MSIZE GT EXTCODECOPY PUSH28 0x98BC1AD30CD2C78E22C62FA9990905B8B2B9594BF79DB6F4E664736F PUSH13 0x63430008140033000000000000 "},"gasEstimates":{"creation":{"codeDepositCost":"3149800","executionCost":"infinite","totalCost":"infinite"},"external":{"ADMIN_ROLE()":"793","DEFAULT_ADMIN_ROLE()":"925","MINTER_ROLE()":"1145","PAUSER_ROLE()":"1189","UPGRADER_ROLE()":"1230","UPGRADE_INTERFACE_VERSION()":"infinite","_nextTokenId()":"2698","approve(address,uint256)":"infinite","balanceOf(address)":"3125","burn(uint256)":"infinite","burnRewardFee()":"3072","burnTreat(uint256)":"infinite","calculateBurnRewardFee(uint256)":"3320","calculatePlatformFee(uint256)":"2440","claimTreat(uint256)":"infinite","claimTreatAtAddress(uint256,address)":"infinite","getApproved(uint256)":"infinite","getRoleAdmin(bytes32)":"infinite","grantRole(bytes32,address)":"infinite","hasRole(bytes32,address)":"infinite","initialize(address,address)":"infinite","isApprovedForAll(address,address)":"3667","mintTreat(address,string,uint256,uint256,address,address,bool,bool,string)":"infinite","name()":"infinite","ownerOf(uint256)":"infinite","pause()":"infinite","paused()":"infinite","platformFee()":"2478","proxiableUUID()":"infinite","renounceRole(bytes32,address)":"29118","revokeRole(bytes32,address)":"infinite","safeTransferFrom(address,address,uint256)":"infinite","safeTransferFrom(address,address,uint256,bytes)":"infinite","setApprovalForAll(address,bool)":"27297","setPlatformFee(uint256)":"24597","setRewardFee(uint256)":"24817","supportsInterface(bytes4)":"494","symbol()":"infinite","tokenByIndex(uint256)":"infinite","tokenOfOwnerByIndex(address,uint256)":"infinite","tokenURI(uint256)":"infinite","totalBurnRewardFeeDistributed()":"2786","totalBurntTreats()":"3006","totalClaimedTreats()":"2852","totalPlatformFeeCollected()":"3182","totalSupply()":"infinite","transferFrom(address,address,uint256)":"infinite","treatInfo(uint256)":"infinite","unpause()":"infinite","upgradeToAndCall(address,bytes)":"infinite"},"internal":{"_authorizeUpgrade(address)":"infinite","_increaseBalance(address,uint128)":"infinite","_update(address,uint256,address)":"infinite"}},"methodIdentifiers":{"ADMIN_ROLE()":"75b238fc","DEFAULT_ADMIN_ROLE()":"a217fddf","MINTER_ROLE()":"d5391393","PAUSER_ROLE()":"e63ab1e9","UPGRADER_ROLE()":"f72c0d8b","UPGRADE_INTERFACE_VERSION()":"ad3cb1cc","_nextTokenId()":"4a60f620","approve(address,uint256)":"095ea7b3","balanceOf(address)":"70a08231","burn(uint256)":"42966c68","burnRewardFee()":"accaa6c5","burnTreat(uint256)":"11c9c32e","calculateBurnRewardFee(uint256)":"ca4d4603","calculatePlatformFee(uint256)":"0cbab4f7","claimTreat(uint256)":"7f23007b","claimTreatAtAddress(uint256,address)":"400cf3c4","getApproved(uint256)":"081812fc","getRoleAdmin(bytes32)":"248a9ca3","grantRole(bytes32,address)":"2f2ff15d","hasRole(bytes32,address)":"91d14854","initialize(address,address)":"485cc955","isApprovedForAll(address,address)":"e985e9c5","mintTreat(address,string,uint256,uint256,address,address,bool,bool,string)":"b6fd17f3","name()":"06fdde03","ownerOf(uint256)":"6352211e","pause()":"8456cb59","paused()":"5c975abb","platformFee()":"26232a2e","proxiableUUID()":"52d1902d","renounceRole(bytes32,address)":"36568abe","revokeRole(bytes32,address)":"d547741f","safeTransferFrom(address,address,uint256)":"42842e0e","safeTransferFrom(address,address,uint256,bytes)":"b88d4fde","setApprovalForAll(address,bool)":"a22cb465","setPlatformFee(uint256)":"12e8e2c3","setRewardFee(uint256)":"41a2ac70","supportsInterface(bytes4)":"01ffc9a7","symbol()":"95d89b41","tokenByIndex(uint256)":"4f6ccce7","tokenOfOwnerByIndex(address,uint256)":"2f745c59","tokenURI(uint256)":"c87b56dd","totalBurnRewardFeeDistributed()":"59b9e93c","totalBurntTreats()":"9a2241bb","totalClaimedTreats()":"66661069","totalPlatformFeeCollected()":"c60c3bbb","totalSupply()":"18160ddd","transferFrom(address,address,uint256)":"23b872dd","treatInfo(uint256)":"b61dfeca","unpause()":"3f4ba83a","upgradeToAndCall(address,bytes)":"4f1ef286"}},"storageLayout":{"storage":[{"astId":5636,"contract":"contracts/TokenTreat.sol:TokenTreat","label":"_nextTokenId","offset":0,"slot":"0","type":"t_uint256"},{"astId":5664,"contract":"contracts/TokenTreat.sol:TokenTreat","label":"treatInfo","offset":0,"slot":"1","type":"t_mapping(t_uint256,t_struct(TreatInfo)5659_storage)"},{"astId":5666,"contract":"contracts/TokenTreat.sol:TokenTreat","label":"platformFee","offset":0,"slot":"2","type":"t_uint256"},{"astId":5668,"contract":"contracts/TokenTreat.sol:TokenTreat","label":"burnRewardFee","offset":0,"slot":"3","type":"t_uint256"},{"astId":5670,"contract":"contracts/TokenTreat.sol:TokenTreat","label":"totalPlatformFeeCollected","offset":0,"slot":"4","type":"t_uint256"},{"astId":5672,"contract":"contracts/TokenTreat.sol:TokenTreat","label":"totalBurnRewardFeeDistributed","offset":0,"slot":"5","type":"t_uint256"},{"astId":5674,"contract":"contracts/TokenTreat.sol:TokenTreat","label":"totalClaimedTreats","offset":0,"slot":"6","type":"t_uint256"},{"astId":5676,"contract":"contracts/TokenTreat.sol:TokenTreat","label":"totalBurntTreats","offset":0,"slot":"7","type":"t_uint256"}],"types":{"t_address":{"encoding":"inplace","label":"address","numberOfBytes":"20"},"t_bool":{"encoding":"inplace","label":"bool","numberOfBytes":"1"},"t_enum(TreatStatus)5641":{"encoding":"inplace","label":"enum TokenTreat.TreatStatus","numberOfBytes":"1"},"t_mapping(t_uint256,t_struct(TreatInfo)5659_storage)":{"encoding":"mapping","key":"t_uint256","label":"mapping(uint256 => struct TokenTreat.TreatInfo)","numberOfBytes":"32","value":"t_struct(TreatInfo)5659_storage"},"t_string_storage":{"encoding":"bytes","label":"string","numberOfBytes":"32"},"t_struct(TreatInfo)5659_storage":{"encoding":"inplace","label":"struct TokenTreat.TreatInfo","members":[{"astId":5643,"contract":"contracts/TokenTreat.sol:TokenTreat","label":"expiry","offset":0,"slot":"0","type":"t_uint256"},{"astId":5645,"contract":"contracts/TokenTreat.sol:TokenTreat","label":"amount","offset":0,"slot":"1","type":"t_uint256"},{"astId":5647,"contract":"contracts/TokenTreat.sol:TokenTreat","label":"tokenAddress","offset":0,"slot":"2","type":"t_address"},{"astId":5650,"contract":"contracts/TokenTreat.sol:TokenTreat","label":"status","offset":20,"slot":"2","type":"t_enum(TreatStatus)5641"},{"astId":5652,"contract":"contracts/TokenTreat.sol:TokenTreat","label":"refundTreasury","offset":0,"slot":"3","type":"t_address"},{"astId":5654,"contract":"contracts/TokenTreat.sol:TokenTreat","label":"treatMetadata","offset":0,"slot":"4","type":"t_string_storage"},{"astId":5656,"contract":"contracts/TokenTreat.sol:TokenTreat","label":"burnOnClaim","offset":0,"slot":"5","type":"t_bool"},{"astId":5658,"contract":"contracts/TokenTreat.sol:TokenTreat","label":"transferable","offset":1,"slot":"5","type":"t_bool"}],"numberOfBytes":"192"},"t_uint256":{"encoding":"inplace","label":"uint256","numberOfBytes":"32"}}},"userdoc":{"kind":"user","methods":{},"version":1}}}}